{
  "contractName": "Crowdfunding",
  "abi": [
    {
      "inputs": [
        {
          "internalType": "uint256",
          "name": "_goal",
          "type": "uint256"
        },
        {
          "internalType": "uint256",
          "name": "_deadline",
          "type": "uint256"
        }
      ],
      "stateMutability": "nonpayable",
      "type": "constructor"
    },
    {
      "anonymous": false,
      "inputs": [
        {
          "indexed": false,
          "internalType": "address",
          "name": "_sender",
          "type": "address"
        },
        {
          "indexed": false,
          "internalType": "uint256",
          "name": "_value",
          "type": "uint256"
        }
      ],
      "name": "ContributeEvent",
      "type": "event"
    },
    {
      "anonymous": false,
      "inputs": [
        {
          "indexed": false,
          "internalType": "string",
          "name": "_desrciption",
          "type": "string"
        },
        {
          "indexed": false,
          "internalType": "address",
          "name": "_recipient",
          "type": "address"
        },
        {
          "indexed": false,
          "internalType": "int256",
          "name": "_value",
          "type": "int256"
        }
      ],
      "name": "CreateRequestEvent",
      "type": "event"
    },
    {
      "anonymous": false,
      "inputs": [
        {
          "indexed": false,
          "internalType": "address",
          "name": "_recipient",
          "type": "address"
        },
        {
          "indexed": false,
          "internalType": "int256",
          "name": "_value",
          "type": "int256"
        }
      ],
      "name": "MakePaymentEvent",
      "type": "event"
    },
    {
      "inputs": [],
      "name": "admin",
      "outputs": [
        {
          "internalType": "address",
          "name": "",
          "type": "address"
        }
      ],
      "stateMutability": "view",
      "type": "function"
    },
    {
      "inputs": [
        {
          "internalType": "address",
          "name": "",
          "type": "address"
        }
      ],
      "name": "contributers",
      "outputs": [
        {
          "internalType": "uint256",
          "name": "",
          "type": "uint256"
        }
      ],
      "stateMutability": "view",
      "type": "function"
    },
    {
      "inputs": [],
      "name": "deadline",
      "outputs": [
        {
          "internalType": "uint256",
          "name": "",
          "type": "uint256"
        }
      ],
      "stateMutability": "view",
      "type": "function"
    },
    {
      "inputs": [],
      "name": "goal",
      "outputs": [
        {
          "internalType": "uint256",
          "name": "",
          "type": "uint256"
        }
      ],
      "stateMutability": "view",
      "type": "function"
    },
    {
      "inputs": [],
      "name": "minimumContribution",
      "outputs": [
        {
          "internalType": "uint256",
          "name": "",
          "type": "uint256"
        }
      ],
      "stateMutability": "view",
      "type": "function"
    },
    {
      "inputs": [],
      "name": "noOfContributors",
      "outputs": [
        {
          "internalType": "int256",
          "name": "",
          "type": "int256"
        }
      ],
      "stateMutability": "view",
      "type": "function"
    },
    {
      "inputs": [],
      "name": "numRequests",
      "outputs": [
        {
          "internalType": "int256",
          "name": "",
          "type": "int256"
        }
      ],
      "stateMutability": "view",
      "type": "function"
    },
    {
      "inputs": [],
      "name": "raisedAmount",
      "outputs": [
        {
          "internalType": "uint256",
          "name": "",
          "type": "uint256"
        }
      ],
      "stateMutability": "view",
      "type": "function"
    },
    {
      "inputs": [
        {
          "internalType": "int256",
          "name": "",
          "type": "int256"
        }
      ],
      "name": "requests",
      "outputs": [
        {
          "internalType": "string",
          "name": "desrciption",
          "type": "string"
        },
        {
          "internalType": "address payable",
          "name": "recipient",
          "type": "address"
        },
        {
          "internalType": "int256",
          "name": "value",
          "type": "int256"
        },
        {
          "internalType": "bool",
          "name": "completed",
          "type": "bool"
        },
        {
          "internalType": "int256",
          "name": "noOfVoters",
          "type": "int256"
        }
      ],
      "stateMutability": "view",
      "type": "function"
    },
    {
      "stateMutability": "payable",
      "type": "receive"
    },
    {
      "inputs": [],
      "name": "contribute",
      "outputs": [],
      "stateMutability": "payable",
      "type": "function"
    },
    {
      "inputs": [],
      "name": "getBalance",
      "outputs": [
        {
          "internalType": "uint256",
          "name": "",
          "type": "uint256"
        }
      ],
      "stateMutability": "view",
      "type": "function"
    },
    {
      "inputs": [],
      "name": "getRefund",
      "outputs": [],
      "stateMutability": "nonpayable",
      "type": "function"
    },
    {
      "inputs": [
        {
          "internalType": "string",
          "name": "_desrciption",
          "type": "string"
        },
        {
          "internalType": "address payable",
          "name": "_recipient",
          "type": "address"
        },
        {
          "internalType": "int256",
          "name": "_value",
          "type": "int256"
        }
      ],
      "name": "createRequest",
      "outputs": [],
      "stateMutability": "nonpayable",
      "type": "function"
    },
    {
      "inputs": [
        {
          "internalType": "int256",
          "name": "_requestNo",
          "type": "int256"
        }
      ],
      "name": "voteRequest",
      "outputs": [],
      "stateMutability": "nonpayable",
      "type": "function"
    },
    {
      "inputs": [
        {
          "internalType": "int256",
          "name": "_requestNo",
          "type": "int256"
        }
      ],
      "name": "makePayment",
      "outputs": [],
      "stateMutability": "nonpayable",
      "type": "function"
    }
  ],
  "bytecode": "0x60806040523480156200001157600080fd5b5060405162001b1838038062001b188339818101604052810190620000379190620000e3565b8160058190555080426200004c919062000159565b600481905550606460038190555033600160006101000a81548173ffffffffffffffffffffffffffffffffffffffff021916908373ffffffffffffffffffffffffffffffffffffffff160217905550505062000194565b600080fd5b6000819050919050565b620000bd81620000a8565b8114620000c957600080fd5b50565b600081519050620000dd81620000b2565b92915050565b60008060408385031215620000fd57620000fc620000a3565b5b60006200010d85828601620000cc565b92505060206200012085828601620000cc565b9150509250929050565b7f4e487b7100000000000000000000000000000000000000000000000000000000600052601160045260246000fd5b60006200016682620000a8565b91506200017383620000a8565b92508282019050808211156200018e576200018d6200012a565b5b92915050565b61197480620001a46000396000f3fe6080604052600436106100ec5760003560e01c8063714842cc1161008a578063c59ee1dc11610059578063c59ee1dc146102e9578063d7bb99ba14610314578063ed4e5df31461031e578063f851a44014610347576100fb565b8063714842cc14610253578063937e09b11461027c5780639fb42b1f146102a7578063b2d5ae44146102d2576100fb565b806334b66460116100c657806334b664601461017f57806340193883146101bc5780634c82427e146101e75780634e260f6f14610228576100fb565b80630ddbfecd1461010057806312065fe01461012957806329dcb0cf14610154576100fb565b366100fb576100f9610372565b005b600080fd5b34801561010c57600080fd5b5061012760048036038101906101229190610d2d565b6104bf565b005b34801561013557600080fd5b5061013e6106a9565b60405161014b9190610d73565b60405180910390f35b34801561016057600080fd5b506101696106b1565b6040516101769190610d73565b60405180910390f35b34801561018b57600080fd5b506101a660048036038101906101a19190610dec565b6106b7565b6040516101b39190610d73565b60405180910390f35b3480156101c857600080fd5b506101d16106cf565b6040516101de9190610d73565b60405180910390f35b3480156101f357600080fd5b5061020e60048036038101906102099190610d2d565b6106d5565b60405161021f959493929190610ef4565b60405180910390f35b34801561023457600080fd5b5061023d6107c0565b60405161024a9190610f4e565b60405180910390f35b34801561025f57600080fd5b5061027a600480360381019061027591906110ca565b6107c6565b005b34801561028857600080fd5b5061029161094d565b60405161029e9190610d73565b60405180910390f35b3480156102b357600080fd5b506102bc610953565b6040516102c99190610f4e565b60405180910390f35b3480156102de57600080fd5b506102e7610959565b005b3480156102f557600080fd5b506102fe610a99565b60405161030b9190610d73565b60405180910390f35b61031c610372565b005b34801561032a57600080fd5b5061034560048036038101906103409190610d2d565b610a9f565b005b34801561035357600080fd5b5061035c610cbd565b6040516103699190611148565b60405180910390f35b6003543410156103b7576040517f08c379a00000000000000000000000000000000000000000000000000000000081526004016103ae906111af565b60405180910390fd5b60008060003373ffffffffffffffffffffffffffffffffffffffff1673ffffffffffffffffffffffffffffffffffffffff16815260200190815260200160002054036104165760026000815480929190610410906111fe565b91905055505b346000803373ffffffffffffffffffffffffffffffffffffffff1673ffffffffffffffffffffffffffffffffffffffff16815260200190815260200160002060008282546104649190611246565b92505081905550346006600082825461047d9190611246565b925050819055507f2daf61dec57a2c194e9e87958b1a40a5c236b5e8c6041655d664ddbd16c2932033346040516104b592919061127a565b60405180910390a1565b60008060003373ffffffffffffffffffffffffffffffffffffffff1673ffffffffffffffffffffffffffffffffffffffff1681526020019081526020016000205411610540576040517f08c379a000000000000000000000000000000000000000000000000000000000815260040161053790611315565b60405180910390fd5b6000600760008381526020019081526020016000209050600015158160050160003373ffffffffffffffffffffffffffffffffffffffff1673ffffffffffffffffffffffffffffffffffffffff16815260200190815260200160002060009054906101000a900460ff161515146105ec576040517f08c379a00000000000000000000000000000000000000000000000000000000081526004016105e390611381565b60405180910390fd5b816008541215610631576040517f08c379a0000000000000000000000000000000000000000000000000000000008152600401610628906113ed565b60405180910390fd5b60018160050160003373ffffffffffffffffffffffffffffffffffffffff1673ffffffffffffffffffffffffffffffffffffffff16815260200190815260200160002060006101000a81548160ff0219169083151502179055508060040160008154809291906106a0906111fe565b91905055505050565b600047905090565b60045481565b60006020528060005260406000206000915090505481565b60055481565b60076020528060005260406000206000915090508060000180546106f89061143c565b80601f01602080910402602001604051908101604052809291908181526020018280546107249061143c565b80156107715780601f1061074657610100808354040283529160200191610771565b820191906000526020600020905b81548152906001019060200180831161075457829003601f168201915b5050505050908060010160009054906101000a900473ffffffffffffffffffffffffffffffffffffffff16908060020154908060030160009054906101000a900460ff16908060040154905085565b60025481565b600160009054906101000a900473ffffffffffffffffffffffffffffffffffffffff1673ffffffffffffffffffffffffffffffffffffffff163373ffffffffffffffffffffffffffffffffffffffff1614610856576040517f08c379a000000000000000000000000000000000000000000000000000000000815260040161084d906114df565b60405180910390fd5b6000600760006008548152602001908152602001600020905060086000815480929190610882906111fe565b91905055508381600001908161089891906116ab565b50828160010160006101000a81548173ffffffffffffffffffffffffffffffffffffffff021916908373ffffffffffffffffffffffffffffffffffffffff16021790555081816002018190555060008160030160006101000a81548160ff021916908315150217905550600081600401819055507fba1c87eae1096664b988d89a995a762d23d70c5dff5af8951feed1a186e3eda184848460405161093f939291906117d2565b60405180910390a150505050565b60035481565b60085481565b600454421015801561096e5750600554600654105b61097757600080fd5b60008060003373ffffffffffffffffffffffffffffffffffffffff1673ffffffffffffffffffffffffffffffffffffffff16815260200190815260200160002054116109c257600080fd5b600033905060008060003373ffffffffffffffffffffffffffffffffffffffff1673ffffffffffffffffffffffffffffffffffffffff16815260200190815260200160002054905060008060003373ffffffffffffffffffffffffffffffffffffffff1673ffffffffffffffffffffffffffffffffffffffff168152602001908152602001600020819055508173ffffffffffffffffffffffffffffffffffffffff166108fc829081150290604051600060405180830381858888f19350505050158015610a94573d6000803e3d6000fd5b505050565b60065481565b600160009054906101000a900473ffffffffffffffffffffffffffffffffffffffff1673ffffffffffffffffffffffffffffffffffffffff163373ffffffffffffffffffffffffffffffffffffffff1614610b2f576040517f08c379a0000000000000000000000000000000000000000000000000000000008152600401610b26906114df565b60405180910390fd5b6005546006541015610b4057600080fd5b6000600760008381526020019081526020016000209050600015158160030160009054906101000a900460ff16151514610baf576040517f08c379a0000000000000000000000000000000000000000000000000000000008152600401610ba69061185c565b60405180910390fd5b60028054610bbd91906118ab565b816004015413610bcc57600080fd5b8060010160009054906101000a900473ffffffffffffffffffffffffffffffffffffffff1673ffffffffffffffffffffffffffffffffffffffff166108fc82600201549081150290604051600060405180830381858888f19350505050158015610c3a573d6000803e3d6000fd5b5060018160030160006101000a81548160ff0219169083151502179055507fda6118b7032b4ffd3ac6847f62bb237f521e2e3acfa53800ef890aef1828fc638160010160009054906101000a900473ffffffffffffffffffffffffffffffffffffffff168260020154604051610cb1929190611915565b60405180910390a15050565b600160009054906101000a900473ffffffffffffffffffffffffffffffffffffffff1681565b6000604051905090565b600080fd5b600080fd5b6000819050919050565b610d0a81610cf7565b8114610d1557600080fd5b50565b600081359050610d2781610d01565b92915050565b600060208284031215610d4357610d42610ced565b5b6000610d5184828501610d18565b91505092915050565b6000819050919050565b610d6d81610d5a565b82525050565b6000602082019050610d886000830184610d64565b92915050565b600073ffffffffffffffffffffffffffffffffffffffff82169050919050565b6000610db982610d8e565b9050919050565b610dc981610dae565b8114610dd457600080fd5b50565b600081359050610de681610dc0565b92915050565b600060208284031215610e0257610e01610ced565b5b6000610e1084828501610dd7565b91505092915050565b600081519050919050565b600082825260208201905092915050565b60005b83811015610e53578082015181840152602081019050610e38565b60008484015250505050565b6000601f19601f8301169050919050565b6000610e7b82610e19565b610e858185610e24565b9350610e95818560208601610e35565b610e9e81610e5f565b840191505092915050565b6000610eb482610d8e565b9050919050565b610ec481610ea9565b82525050565b610ed381610cf7565b82525050565b60008115159050919050565b610eee81610ed9565b82525050565b600060a0820190508181036000830152610f0e8188610e70565b9050610f1d6020830187610ebb565b610f2a6040830186610eca565b610f376060830185610ee5565b610f446080830184610eca565b9695505050505050565b6000602082019050610f636000830184610eca565b92915050565b600080fd5b600080fd5b7f4e487b7100000000000000000000000000000000000000000000000000000000600052604160045260246000fd5b610fab82610e5f565b810181811067ffffffffffffffff82111715610fca57610fc9610f73565b5b80604052505050565b6000610fdd610ce3565b9050610fe98282610fa2565b919050565b600067ffffffffffffffff82111561100957611008610f73565b5b61101282610e5f565b9050602081019050919050565b82818337600083830152505050565b600061104161103c84610fee565b610fd3565b90508281526020810184848401111561105d5761105c610f6e565b5b61106884828561101f565b509392505050565b600082601f83011261108557611084610f69565b5b813561109584826020860161102e565b91505092915050565b6110a781610ea9565b81146110b257600080fd5b50565b6000813590506110c48161109e565b92915050565b6000806000606084860312156110e3576110e2610ced565b5b600084013567ffffffffffffffff81111561110157611100610cf2565b5b61110d86828701611070565b935050602061111e868287016110b5565b925050604061112f86828701610d18565b9150509250925092565b61114281610dae565b82525050565b600060208201905061115d6000830184611139565b92915050565b7f6d696e696d756d20636f6e747269627574696f6e206e6f74206d657400000000600082015250565b6000611199601c83610e24565b91506111a482611163565b602082019050919050565b600060208201905081810360008301526111c88161118c565b9050919050565b7f4e487b7100000000000000000000000000000000000000000000000000000000600052601160045260246000fd5b600061120982610cf7565b91507f7fffffffffffffffffffffffffffffffffffffffffffffffffffffffffffffff820361123b5761123a6111cf565b5b600182019050919050565b600061125182610d5a565b915061125c83610d5a565b9250828201905080821115611274576112736111cf565b5b92915050565b600060408201905061128f6000830185611139565b61129c6020830184610d64565b9392505050565b7f596f75206d757374206265206120636f6e7472696275746f7220746f20766f7460008201527f6521000000000000000000000000000000000000000000000000000000000000602082015250565b60006112ff602283610e24565b915061130a826112a3565b604082019050919050565b6000602082019050818103600083015261132e816112f2565b9050919050565b7f596f75206861766520616c726561647920766f74656400000000000000000000600082015250565b600061136b601683610e24565b915061137682611335565b602082019050919050565b6000602082019050818103600083015261139a8161135e565b9050919050565b7f5265717565737420646f6573206e6f742065786973742e000000000000000000600082015250565b60006113d7601783610e24565b91506113e2826113a1565b602082019050919050565b60006020820190508181036000830152611406816113ca565b9050919050565b7f4e487b7100000000000000000000000000000000000000000000000000000000600052602260045260246000fd5b6000600282049050600182168061145457607f821691505b6020821081036114675761146661140d565b5b50919050565b7f6f6e6c792061646d696e2063616e2063616c6c20746869732066756e6374696f60008201527f6e00000000000000000000000000000000000000000000000000000000000000602082015250565b60006114c9602183610e24565b91506114d48261146d565b604082019050919050565b600060208201905081810360008301526114f8816114bc565b9050919050565b60008190508160005260206000209050919050565b60006020601f8301049050919050565b600082821b905092915050565b6000600883026115617fffffffffffffffffffffffffffffffffffffffffffffffffffffffffffffffff82611524565b61156b8683611524565b95508019841693508086168417925050509392505050565b6000819050919050565b60006115a86115a361159e84610d5a565b611583565b610d5a565b9050919050565b6000819050919050565b6115c28361158d565b6115d66115ce826115af565b848454611531565b825550505050565b600090565b6115eb6115de565b6115f68184846115b9565b505050565b5b8181101561161a5761160f6000826115e3565b6001810190506115fc565b5050565b601f82111561165f57611630816114ff565b61163984611514565b81016020851015611648578190505b61165c61165485611514565b8301826115fb565b50505b505050565b600082821c905092915050565b600061168260001984600802611664565b1980831691505092915050565b600061169b8383611671565b9150826002028217905092915050565b6116b482610e19565b67ffffffffffffffff8111156116cd576116cc610f73565b5b6116d7825461143c565b6116e282828561161e565b600060209050601f8311600181146117155760008415611703578287015190505b61170d858261168f565b865550611775565b601f198416611723866114ff565b60005b8281101561174b57848901518255600182019150602085019450602081019050611726565b868310156117685784890151611764601f891682611671565b8355505b6001600288020188555050505b505050505050565b600061179861179361178e84610d8e565b611583565b610d8e565b9050919050565b60006117aa8261177d565b9050919050565b60006117bc8261179f565b9050919050565b6117cc816117b1565b82525050565b600060608201905081810360008301526117ec8186610e70565b90506117fb60208301856117c3565b6118086040830184610eca565b949350505050565b7f546865207265717565737420686173206265656e20636f6d706c657465642e00600082015250565b6000611846601f83610e24565b915061185182611810565b602082019050919050565b6000602082019050818103600083015261187581611839565b9050919050565b7f4e487b7100000000000000000000000000000000000000000000000000000000600052601260045260246000fd5b60006118b682610cf7565b91506118c183610cf7565b9250826118d1576118d061187c565b5b600160000383147f80000000000000000000000000000000000000000000000000000000000000008314161561190a576119096111cf565b5b828205905092915050565b600060408201905061192a60008301856117c3565b6119376020830184610eca565b939250505056fea264697066735822122044fb7e210d8973b7903ea1d739fbc11aa9781a78c0f2439f9f1b48561a33abc064736f6c63430008130033",
  "immutableReferences": {},
  "source": "//SPDX-License-Identifier: GPL-3.0\r\n\r\npragma solidity >0.8.0;\r\n\r\nimport \"@openzeppelin/contracts/token/ERC20/ERC20.sol\";\r\nimport \"@openzeppelin/contracts/access/AccessControl.sol\";\r\n\r\ncontract Crowdfunding {\r\n    mapping(address => uint) public contributers;\r\n    address public admin;\r\n\r\n    int public noOfContributors;\r\n    uint public minimumContribution;\r\n    uint public deadline;\r\n    uint public goal;\r\n    uint public raisedAmount;\r\n\r\n    struct Request {\r\n        string desrciption;\r\n        address payable recipient;\r\n        int value;\r\n        bool completed;\r\n        int noOfVoters;\r\n        mapping(address => bool) voters;\r\n    }\r\n\r\n    // Events\r\n    event ContributeEvent(address _sender, uint _value);\r\n    event CreateRequestEvent(\r\n        string _desrciption,\r\n        address _recipient,\r\n        int _value\r\n    );\r\n    event MakePaymentEvent(address _recipient, int _value);\r\n\r\n    // cannot store Request in array as it contains mapping\r\n    // therefore use mapping\r\n    mapping(int => Request) public requests;\r\n    int public numRequests;\r\n\r\n    constructor(uint _goal, uint _deadline) {\r\n        goal = _goal;\r\n        deadline = block.timestamp + _deadline;\r\n        minimumContribution = 100 wei;\r\n        admin = msg.sender;\r\n    }\r\n\r\n    function contribute() public payable {\r\n        // require(block.timestamp < deadline, \"Deadline has passed\");\r\n        require(\r\n            msg.value >= minimumContribution,\r\n            \"minimum contribution not met\"\r\n        );\r\n\r\n        if (contributers[msg.sender] == 0) {\r\n            noOfContributors++;\r\n        }\r\n        contributers[msg.sender] += msg.value;\r\n        raisedAmount += msg.value;\r\n\r\n        emit ContributeEvent(msg.sender, msg.value);\r\n    }\r\n\r\n    receive() external payable {\r\n        contribute();\r\n    }\r\n\r\n    function getBalance() public view returns (uint) {\r\n        return address(this).balance; // in wei\r\n    }\r\n\r\n    function getRefund() public {\r\n        require(block.timestamp >= deadline && raisedAmount < goal);\r\n        require(contributers[msg.sender] > 0);\r\n\r\n        address payable recipient = payable(msg.sender);\r\n        uint value = contributers[msg.sender];\r\n        contributers[msg.sender] = 0;\r\n        recipient.transfer(value);\r\n    }\r\n\r\n    modifier onlyAdmin() {\r\n        require(msg.sender == admin, \"only admin can call this function\");\r\n        _;\r\n    }\r\n\r\n    function createRequest(\r\n        string memory _desrciption,\r\n        address payable _recipient,\r\n        int _value\r\n    ) public onlyAdmin {\r\n        Request storage newRequest = requests[numRequests];\r\n        numRequests++;\r\n\r\n        newRequest.desrciption = _desrciption;\r\n        newRequest.recipient = _recipient;\r\n        newRequest.value = _value;\r\n        newRequest.completed = false;\r\n        newRequest.noOfVoters = 0;\r\n\r\n        emit CreateRequestEvent(_desrciption, _recipient, _value);\r\n    }\r\n\r\n    function voteRequest(int _requestNo) public {\r\n        require(\r\n            contributers[msg.sender] > 0,\r\n            \"You must be a contributor to vote!\"\r\n        );\r\n        Request storage thisRequest = requests[_requestNo];\r\n\r\n        require(\r\n            thisRequest.voters[msg.sender] == false,\r\n            \"You have already voted\"\r\n        );\r\n        require(numRequests >= _requestNo, \"Request does not exist.\");\r\n\r\n        thisRequest.voters[msg.sender] = true;\r\n        thisRequest.noOfVoters++;\r\n    }\r\n\r\n    function makePayment(int _requestNo) public onlyAdmin {\r\n        require(raisedAmount >= goal);\r\n        Request storage thisRequest = requests[_requestNo];\r\n        require(\r\n            thisRequest.completed == false,\r\n            \"The request has been completed.\"\r\n        );\r\n        require(thisRequest.noOfVoters > noOfContributors / 2);\r\n\r\n        thisRequest.recipient.transfer(uint(thisRequest.value));\r\n        thisRequest.completed = true;\r\n\r\n        emit MakePaymentEvent(thisRequest.recipient, thisRequest.value);\r\n    }\r\n}\r\n",
  "sourcePath": "C:\\Users\\kimwu\\Desktop\\TFIP-NUS\\proj\\truffle\\contracts\\Crowdfunding.sol",
  "compiler": {
    "name": "solc",
    "version": "0.8.19+commit.7dd6d404.Emscripten.clang"
  },
  "schemaVersion": "3.4.13",
  "updatedAt": "2023-04-14T18:44:25.028Z",
  "devdoc": {
    "kind": "dev",
    "methods": {},
    "version": 1
  },
  "userdoc": {
    "kind": "user",
    "methods": {},
    "version": 1
  }
}