{
  "contractName": "Crowdfunding",
  "abi": [
    {
      "inputs": [
        {
          "internalType": "uint256",
          "name": "_goal",
          "type": "uint256"
        },
        {
          "internalType": "uint256",
          "name": "_deadline",
          "type": "uint256"
        },
        {
          "internalType": "address",
          "name": "_acceptingThisToken",
          "type": "address"
        },
        {
          "internalType": "string",
          "name": "_title",
          "type": "string"
        }
      ],
      "stateMutability": "nonpayable",
      "type": "constructor"
    },
    {
      "anonymous": false,
      "inputs": [
        {
          "indexed": false,
          "internalType": "address",
          "name": "_contributor",
          "type": "address"
        },
        {
          "indexed": false,
          "internalType": "address",
          "name": "_tokenAddress",
          "type": "address"
        },
        {
          "indexed": false,
          "internalType": "uint256",
          "name": "_amount",
          "type": "uint256"
        }
      ],
      "name": "ContributeEvent",
      "type": "event"
    },
    {
      "anonymous": false,
      "inputs": [
        {
          "indexed": false,
          "internalType": "uint256",
          "name": "requestNum",
          "type": "uint256"
        },
        {
          "indexed": false,
          "internalType": "address",
          "name": "_projectCreator",
          "type": "address"
        },
        {
          "indexed": false,
          "internalType": "string",
          "name": "_title",
          "type": "string"
        },
        {
          "indexed": false,
          "internalType": "address",
          "name": "_recipient",
          "type": "address"
        },
        {
          "indexed": false,
          "internalType": "uint256",
          "name": "_amount",
          "type": "uint256"
        }
      ],
      "name": "CreateRequestEvent",
      "type": "event"
    },
    {
      "anonymous": false,
      "inputs": [
        {
          "indexed": false,
          "internalType": "address",
          "name": "_contributor",
          "type": "address"
        },
        {
          "indexed": false,
          "internalType": "address",
          "name": "_RefundToken",
          "type": "address"
        },
        {
          "indexed": false,
          "internalType": "uint256",
          "name": "_RefundAmount",
          "type": "uint256"
        }
      ],
      "name": "GetRefundEvent",
      "type": "event"
    },
    {
      "anonymous": false,
      "inputs": [
        {
          "indexed": true,
          "internalType": "address",
          "name": "previousOwner",
          "type": "address"
        },
        {
          "indexed": true,
          "internalType": "address",
          "name": "newOwner",
          "type": "address"
        }
      ],
      "name": "OwnershipTransferred",
      "type": "event"
    },
    {
      "anonymous": false,
      "inputs": [
        {
          "indexed": false,
          "internalType": "address",
          "name": "_projectCreator",
          "type": "address"
        },
        {
          "indexed": false,
          "internalType": "address",
          "name": "_recipient",
          "type": "address"
        },
        {
          "indexed": false,
          "internalType": "uint256",
          "name": "_amount",
          "type": "uint256"
        },
        {
          "indexed": false,
          "internalType": "uint256",
          "name": "_requestNo",
          "type": "uint256"
        }
      ],
      "name": "ReceiveContributionEvent",
      "type": "event"
    },
    {
      "anonymous": false,
      "inputs": [
        {
          "indexed": false,
          "internalType": "address",
          "name": "_voter",
          "type": "address"
        },
        {
          "indexed": false,
          "internalType": "uint256",
          "name": "_requestNo",
          "type": "uint256"
        },
        {
          "indexed": false,
          "internalType": "uint256",
          "name": "_valueOfVote",
          "type": "uint256"
        }
      ],
      "name": "voteRequestEvent",
      "type": "event"
    },
    {
      "inputs": [],
      "name": "admin",
      "outputs": [
        {
          "internalType": "address",
          "name": "",
          "type": "address"
        }
      ],
      "stateMutability": "view",
      "type": "function"
    },
    {
      "inputs": [
        {
          "internalType": "address",
          "name": "",
          "type": "address"
        }
      ],
      "name": "contributors",
      "outputs": [
        {
          "internalType": "uint256",
          "name": "",
          "type": "uint256"
        }
      ],
      "stateMutability": "view",
      "type": "function"
    },
    {
      "inputs": [],
      "name": "deadline",
      "outputs": [
        {
          "internalType": "uint256",
          "name": "",
          "type": "uint256"
        }
      ],
      "stateMutability": "view",
      "type": "function"
    },
    {
      "inputs": [],
      "name": "goal",
      "outputs": [
        {
          "internalType": "uint256",
          "name": "",
          "type": "uint256"
        }
      ],
      "stateMutability": "view",
      "type": "function"
    },
    {
      "inputs": [],
      "name": "noOfContributors",
      "outputs": [
        {
          "internalType": "uint256",
          "name": "",
          "type": "uint256"
        }
      ],
      "stateMutability": "view",
      "type": "function"
    },
    {
      "inputs": [],
      "name": "numRequests",
      "outputs": [
        {
          "internalType": "uint256",
          "name": "",
          "type": "uint256"
        }
      ],
      "stateMutability": "view",
      "type": "function"
    },
    {
      "inputs": [],
      "name": "owner",
      "outputs": [
        {
          "internalType": "address",
          "name": "",
          "type": "address"
        }
      ],
      "stateMutability": "view",
      "type": "function"
    },
    {
      "inputs": [],
      "name": "raisedAmount",
      "outputs": [
        {
          "internalType": "uint256",
          "name": "",
          "type": "uint256"
        }
      ],
      "stateMutability": "view",
      "type": "function"
    },
    {
      "inputs": [],
      "name": "renounceOwnership",
      "outputs": [],
      "stateMutability": "nonpayable",
      "type": "function"
    },
    {
      "inputs": [
        {
          "internalType": "uint256",
          "name": "",
          "type": "uint256"
        }
      ],
      "name": "requests",
      "outputs": [
        {
          "internalType": "string",
          "name": "title",
          "type": "string"
        },
        {
          "internalType": "address",
          "name": "recipient",
          "type": "address"
        },
        {
          "internalType": "uint256",
          "name": "amount",
          "type": "uint256"
        },
        {
          "internalType": "bool",
          "name": "completed",
          "type": "bool"
        },
        {
          "internalType": "uint256",
          "name": "noOfVoters",
          "type": "uint256"
        },
        {
          "internalType": "uint256",
          "name": "valueOfVotes",
          "type": "uint256"
        }
      ],
      "stateMutability": "view",
      "type": "function"
    },
    {
      "inputs": [],
      "name": "title",
      "outputs": [
        {
          "internalType": "string",
          "name": "",
          "type": "string"
        }
      ],
      "stateMutability": "view",
      "type": "function"
    },
    {
      "inputs": [],
      "name": "token",
      "outputs": [
        {
          "internalType": "contract IERC20",
          "name": "",
          "type": "address"
        }
      ],
      "stateMutability": "view",
      "type": "function"
    },
    {
      "inputs": [],
      "name": "tokenAddress",
      "outputs": [
        {
          "internalType": "address",
          "name": "",
          "type": "address"
        }
      ],
      "stateMutability": "view",
      "type": "function"
    },
    {
      "inputs": [],
      "name": "totalRequestAmount",
      "outputs": [
        {
          "internalType": "uint256",
          "name": "",
          "type": "uint256"
        }
      ],
      "stateMutability": "view",
      "type": "function"
    },
    {
      "inputs": [
        {
          "internalType": "address",
          "name": "newOwner",
          "type": "address"
        }
      ],
      "name": "transferOwnership",
      "outputs": [],
      "stateMutability": "nonpayable",
      "type": "function"
    },
    {
      "inputs": [
        {
          "internalType": "uint256",
          "name": "_amount",
          "type": "uint256"
        }
      ],
      "name": "contribute",
      "outputs": [],
      "stateMutability": "nonpayable",
      "type": "function"
    },
    {
      "inputs": [],
      "name": "getRefund",
      "outputs": [
        {
          "internalType": "uint256",
          "name": "",
          "type": "uint256"
        }
      ],
      "stateMutability": "nonpayable",
      "type": "function"
    },
    {
      "inputs": [
        {
          "internalType": "string",
          "name": "_title",
          "type": "string"
        },
        {
          "internalType": "address",
          "name": "_recipient",
          "type": "address"
        },
        {
          "internalType": "uint256",
          "name": "_amount",
          "type": "uint256"
        }
      ],
      "name": "createRequest",
      "outputs": [],
      "stateMutability": "nonpayable",
      "type": "function"
    },
    {
      "inputs": [
        {
          "internalType": "uint256",
          "name": "_requestNo",
          "type": "uint256"
        }
      ],
      "name": "voteRequest",
      "outputs": [],
      "stateMutability": "nonpayable",
      "type": "function"
    },
    {
      "inputs": [
        {
          "internalType": "uint256",
          "name": "_requestNo",
          "type": "uint256"
        }
      ],
      "name": "receiveContribution",
      "outputs": [
        {
          "internalType": "address",
          "name": "",
          "type": "address"
        },
        {
          "internalType": "uint256",
          "name": "",
          "type": "uint256"
        }
      ],
      "stateMutability": "nonpayable",
      "type": "function"
    },
    {
      "inputs": [
        {
          "internalType": "uint256",
          "name": "_requestNo",
          "type": "uint256"
        }
      ],
      "name": "getRequestTitle",
      "outputs": [
        {
          "internalType": "string",
          "name": "",
          "type": "string"
        }
      ],
      "stateMutability": "view",
      "type": "function"
    },
    {
      "inputs": [
        {
          "internalType": "uint256",
          "name": "_requestNo",
          "type": "uint256"
        }
      ],
      "name": "getRequestRecipient",
      "outputs": [
        {
          "internalType": "address",
          "name": "",
          "type": "address"
        }
      ],
      "stateMutability": "view",
      "type": "function"
    },
    {
      "inputs": [
        {
          "internalType": "uint256",
          "name": "_requestNo",
          "type": "uint256"
        }
      ],
      "name": "getRequestAmount",
      "outputs": [
        {
          "internalType": "uint256",
          "name": "",
          "type": "uint256"
        }
      ],
      "stateMutability": "view",
      "type": "function"
    },
    {
      "inputs": [
        {
          "internalType": "uint256",
          "name": "_requestNo",
          "type": "uint256"
        }
      ],
      "name": "getRequestCompleted",
      "outputs": [
        {
          "internalType": "bool",
          "name": "",
          "type": "bool"
        }
      ],
      "stateMutability": "view",
      "type": "function"
    },
    {
      "inputs": [
        {
          "internalType": "uint256",
          "name": "_requestNo",
          "type": "uint256"
        }
      ],
      "name": "getRequestNumOfVoters",
      "outputs": [
        {
          "internalType": "uint256",
          "name": "",
          "type": "uint256"
        }
      ],
      "stateMutability": "view",
      "type": "function"
    },
    {
      "inputs": [
        {
          "internalType": "uint256",
          "name": "_requestNo",
          "type": "uint256"
        }
      ],
      "name": "getRequestValueOfVotes",
      "outputs": [
        {
          "internalType": "uint256",
          "name": "",
          "type": "uint256"
        }
      ],
      "stateMutability": "view",
      "type": "function"
    },
    {
      "inputs": [],
      "name": "currBlockTimestamp",
      "outputs": [
        {
          "internalType": "uint256",
          "name": "",
          "type": "uint256"
        }
      ],
      "stateMutability": "view",
      "type": "function"
    },
    {
      "inputs": [
        {
          "internalType": "address",
          "name": "_address",
          "type": "address"
        }
      ],
      "name": "isContract",
      "outputs": [
        {
          "internalType": "bool",
          "name": "",
          "type": "bool"
        }
      ],
      "stateMutability": "view",
      "type": "function"
    },
    {
      "inputs": [
        {
          "internalType": "address",
          "name": "_address",
          "type": "address"
        }
      ],
      "name": "isToken",
      "outputs": [
        {
          "internalType": "bool",
          "name": "",
          "type": "bool"
        }
      ],
      "stateMutability": "view",
      "type": "function"
    }
  ],
  "bytecode": "0x60806040523480156200001157600080fd5b5060405162001d3138038062001d3183398101604081905262000034916200048f565b6200003f336200019e565b428311620000945760405162461bcd60e51b815260206004820152601e60248201527f446561646c696e65206d75737420626520696e2074686520667574757265000060448201526064015b60405180910390fd5b6200009f82620001ee565b620000ed5760405162461bcd60e51b815260206004820152601d60248201527f416464726573732070726f7669646564206973206e6f7420746f6b656e00000060448201526064016200008b565b813b620001485760405162461bcd60e51b815260206004820152602260248201527f416464726573732070726f7669646564206973206e6f74206120636f6e74726160448201526118dd60f21b60648201526084016200008b565b600462000156828262000593565b505060079290925560065560018054336001600160a01b0319918216179091556003805482166001600160a01b039093169283179055600280549091169091179055620006b9565b600080546001600160a01b038381166001600160a01b0319831681178455604051919092169283917f8be0079c531659141344cd1fd0a4f28419497f9722a3daafe3b4186f6b6457e09190a35050565b6040516370a0823160e01b8152336004820152600090829082906001600160a01b038316906370a0823190602401602060405180830381865afa1580156200023a573d6000803e3d6000fd5b505050506040513d601f19601f820116820180604052508101906200026091906200065f565b1015620002b05760405162461bcd60e51b815260206004820152601460248201527f6d6574686f6420646f65736e277420657869737400000000000000000000000060448201526064016200008b565b6000816001600160a01b03166318160ddd6040518163ffffffff1660e01b8152600401602060405180830381865afa158015620002f1573d6000803e3d6000fd5b505050506040513d601f19601f820116820180604052508101906200031791906200065f565b11620003545760405162461bcd60e51b815260206004820152600b60248201526a0537570706c7920697320360ac1b60448201526064016200008b565b6000816001600160a01b03166306fdde036040518163ffffffff1660e01b8152600401600060405180830381865afa15801562000395573d6000803e3d6000fd5b505050506040513d6000823e601f3d908101601f19168201604052620003bf919081019062000679565b511515949350505050565b634e487b7160e01b600052604160045260246000fd5b600082601f830112620003f257600080fd5b81516001600160401b03808211156200040f576200040f620003ca565b604051601f8301601f19908116603f011681019082821181831017156200043a576200043a620003ca565b816040528381526020925086838588010111156200045757600080fd5b600091505b838210156200047b57858201830151818301840152908201906200045c565b600093810190920192909252949350505050565b60008060008060808587031215620004a657600080fd5b84516020860151604087015191955093506001600160a01b0381168114620004cd57600080fd5b60608601519092506001600160401b03811115620004ea57600080fd5b620004f887828801620003e0565b91505092959194509250565b600181811c908216806200051957607f821691505b6020821081036200053a57634e487b7160e01b600052602260045260246000fd5b50919050565b601f8211156200058e57600081815260208120601f850160051c81016020861015620005695750805b601f850160051c820191505b818110156200058a5782815560010162000575565b5050505b505050565b81516001600160401b03811115620005af57620005af620003ca565b620005c781620005c0845462000504565b8462000540565b602080601f831160018114620005ff5760008415620005e65750858301515b600019600386901b1c1916600185901b1785556200058a565b600085815260208120601f198616915b8281101562000630578886015182559484019460019091019084016200060f565b50858210156200064f5787850151600019600388901b60f8161c191681555b5050505050600190811b01905550565b6000602082840312156200067257600080fd5b5051919050565b6000602082840312156200068c57600080fd5b81516001600160401b03811115620006a357600080fd5b620006b184828501620003e0565b949350505050565b61166880620006c96000396000f3fe608060405234801561001057600080fd5b50600436106101cf5760003560e01c8063715018a611610104578063c1cbbca7116100a2578063f2fde38b11610071578063f2fde38b14610432578063f851a44014610445578063f8b3a2c414610458578063fc0c546a1461046157600080fd5b8063c1cbbca7146103ea578063c59ee1dc146103fd578063d42c48d114610406578063ee6f5afc1461042c57600080fd5b80639d76ea58116100de5780639d76ea58146103a35780639fb42b1f146103b6578063a43b6fff146103bf578063b2d5ae44146103e257600080fd5b8063715018a61461036557806381d12c581461036d5780638da5cb5b1461039257600080fd5b8063379248e2116101715780634cb6f4a51161014b5780634cb6f4a5146102f25780634e260f6f1461030557806355e1dedf1461030e5780635b8575a91461032157600080fd5b8063379248e2146102b157806340193883146102d45780634a79d50c146102dd57600080fd5b80631b16bb5c116101ad5780631b16bb5c146102425780631f6d49421461025757806329dcb0cf146102855780632f0829f71461028e57600080fd5b806316279055146101d4578063180b7138146101fd57806319f373611461022f575b600080fd5b6101e86101e23660046111c8565b3b151590565b60405190151581526020015b60405180910390f35b61021061020b3660046111ea565b610474565b604080516001600160a01b0390931683526020830191909152016101f4565b6101e861023d3660046111c8565b610596565b610255610250366004611272565b610761565b005b6102776102653660046111c8565b600c6020526000908152604090205481565b6040519081526020016101f4565b61027760065481565b61027761029c3660046111ea565b6000908152600b602052604090206002015490565b6102776102bf3660046111ea565b6000908152600b602052604090206005015490565b61027760075481565b6102e56108cc565b6040516101f4919061135c565b6102556103003660046111ea565b61095a565b61027760055481565b6102e561031c3660046111ea565b610bec565b61034d61032f3660046111ea565b6000908152600b60205260409020600101546001600160a01b031690565b6040516001600160a01b0390911681526020016101f4565b610255610c8e565b61038061037b3660046111ea565b610ca2565b6040516101f49695949392919061136f565b6000546001600160a01b031661034d565b60025461034d906001600160a01b031681565b610277600a5481565b6102776103cd3660046111ea565b6000908152600b602052604090206004015490565b610277610d6c565b6102556103f83660046111ea565b610ec2565b61027760085481565b6101e86104143660046111ea565b6000908152600b602052604090206003015460ff1690565b42610277565b6102556104403660046111c8565b611089565b60015461034d906001600160a01b031681565b61027760095481565b60035461034d906001600160a01b031681565b60008061047f611102565b6000838152600b60205260409081902060018101546002820154600354935163a9059cbb60e01b81526001600160a01b039283166004820181905260248201839052939491929091169063a9059cbb906044016020604051808303816000875af11580156104f1573d6000803e3d6000fd5b505050506040513d601f19601f8201168201806040525081019061051591906113b4565b5060038301805460ff19166001179055604080513381526001600160a01b0384166020820152908101829052606081018790527fe8865f6295f774cc1f85678223321412003260525398a1d46e5e884a0f694a739060800160405180910390a1505060018101546002909101546001600160a01b0390911692509050915091565b6040516370a0823160e01b8152336004820152600090829082906001600160a01b038316906370a0823190602401602060405180830381865afa1580156105e1573d6000803e3d6000fd5b505050506040513d601f19601f8201168201806040525081019061060591906113d6565b101561064f5760405162461bcd60e51b81526020600482015260146024820152731b595d1a1bd908191bd95cdb89dd08195e1a5cdd60621b60448201526064015b60405180910390fd5b6000816001600160a01b03166318160ddd6040518163ffffffff1660e01b8152600401602060405180830381865afa15801561068f573d6000803e3d6000fd5b505050506040513d601f19601f820116820180604052508101906106b391906113d6565b116106ee5760405162461bcd60e51b815260206004820152600b60248201526a0537570706c7920697320360ac1b6044820152606401610646565b6000816001600160a01b03166306fdde036040518163ffffffff1660e01b8152600401600060405180830381865afa15801561072e573d6000803e3d6000fd5b505050506040513d6000823e601f3d908101601f1916820160405261075691908101906113ef565b511515949350505050565b610769611102565b600854156108045760085481600954610782919061147c565b11156108045760405162461bcd60e51b815260206004820152604560248201527f54686973207472616e73616374696f6e2077696c6c20636175736520746f746160448201527f6c52657175657374416d6f756e7420746f2065786365656420726169736564416064820152641b5bdd5b9d60da1b608482015260a401610646565b600a80546000818152600b602052604081209192839161082383611495565b909155508190506108348682611537565b506001810180546001600160a01b0319166001600160a01b0386161790556002810183905560038101805460ff191690556000600482018190556009805485929061088090849061147c565b90915550506040517f6fbbe1619a744707cabdefa8c81690a643c946e64fd595a1126aa6d4bc27bba1906108bd90849033908990899089906115f7565b60405180910390a15050505050565b600480546108d9906114ae565b80601f0160208091040260200160405190810160405280929190818152602001828054610905906114ae565b80156109525780601f1061092757610100808354040283529160200191610952565b820191906000526020600020905b81548152906001019060200180831161093557829003601f168201915b505050505081565b80600a5410156109ac5760405162461bcd60e51b815260206004820152601760248201527f5265717565737420646f6573206e6f742065786973742e0000000000000000006044820152606401610646565b6000546001600160a01b03163303610a215760405162461bcd60e51b815260206004820152603260248201527f417320746865206f776e65722c206e6f7420616c6c6f77656420746f20766f746044820152711948199bdc881d1a1a5cc81c995c5d595cdd60721b6064820152608401610646565b336000908152600c6020526040902054610a885760405162461bcd60e51b815260206004820152602260248201527f596f75206d757374206265206120636f6e7472696275746f7220746f20766f74604482015261652160f01b6064820152608401610646565b6000818152600b60209081526040808320338452600681019092529091205460ff1615610af05760405162461bcd60e51b8152602060048201526016602482015275165bdd481a185d9948185b1c9958591e481d9bdd195960521b6044820152606401610646565b60018101546001600160a01b0316610b4a5760405162461bcd60e51b815260206004820152601e60248201527f5265717565737420686173206e6f74206265656e20696e6974696174656400006044820152606401610646565b336000908152600c602052604081205460058301805491928392610b6f90849061147c565b9091555050600482018054906000610b8683611495565b9091555050336000818152600684016020908152604091829020805460ff191660011790558151928352820185905281018290527fcd200ea5ac0e92a5a67c5c682507511ae3086a331d103afb7eea291ae430d5999060600160405180910390a1505050565b6000818152600b60205260409020805460609190610c09906114ae565b80601f0160208091040260200160405190810160405280929190818152602001828054610c35906114ae565b8015610c825780601f10610c5757610100808354040283529160200191610c82565b820191906000526020600020905b815481529060010190602001808311610c6557829003601f168201915b50505050509050919050565b610c96611102565b610ca0600061115c565b565b600b60205260009081526040902080548190610cbd906114ae565b80601f0160208091040260200160405190810160405280929190818152602001828054610ce9906114ae565b8015610d365780601f10610d0b57610100808354040283529160200191610d36565b820191906000526020600020905b815481529060010190602001808311610d1957829003601f168201915b505050600184015460028501546003860154600487015460059097015495966001600160a01b039093169591945060ff16925086565b336000818152600c6020526040808220805490839055600354915163095ea7b360e01b815260048101949094526024840181905291926001600160a01b039091169063095ea7b3906044016020604051808303816000875af1158015610dd6573d6000803e3d6000fd5b505050506040513d601f19601f82011682018060405250810190610dfa91906113b4565b5060035460405163a9059cbb60e01b8152336004820152602481018390526001600160a01b039091169063a9059cbb906044016020604051808303816000875af1158015610e4c573d6000803e3d6000fd5b505050506040513d601f19601f82011682018060405250810190610e7091906113b4565b50600354604080513381526001600160a01b03909216602083015281018290527ff7f394ee65e37c78e595ee4c8675e3832dff9a6cfc6a2c7405e3689f2a714c539060600160405180910390a1919050565b600354604051636eb1769f60e11b815233600482015230602482015282916001600160a01b03169063dd62ed3e90604401602060405180830381865afa158015610f10573d6000803e3d6000fd5b505050506040513d601f19601f82011682018060405250810190610f3491906113d6565b1015610f825760405162461bcd60e51b815260206004820152601860248201527f746f6b656e207370656e64206e6f7420617070726f76656400000000000000006044820152606401610646565b336000908152600c60205260408120549003610fa2576005805460010190555b6003546040516323b872dd60e01b8152336004820152306024820152604481018390526001600160a01b03909116906323b872dd906064016020604051808303816000875af1158015610ff9573d6000803e3d6000fd5b505050506040513d601f19601f8201168201806040525081019061101d91906113b4565b50336000818152600c6020908152604091829020805485019055600880548501905560025482519384526001600160a01b03169083015281018290527f630c9eb89085cfe993245c555e78df45b0b8e8f31f411ddc400727738d9648349060600160405180910390a150565b611091611102565b6001600160a01b0381166110f65760405162461bcd60e51b815260206004820152602660248201527f4f776e61626c653a206e6577206f776e657220697320746865207a65726f206160448201526564647265737360d01b6064820152608401610646565b6110ff8161115c565b50565b6000546001600160a01b03163314610ca05760405162461bcd60e51b815260206004820181905260248201527f4f776e61626c653a2063616c6c6572206973206e6f7420746865206f776e65726044820152606401610646565b600080546001600160a01b038381166001600160a01b0319831681178455604051919092169283917f8be0079c531659141344cd1fd0a4f28419497f9722a3daafe3b4186f6b6457e09190a35050565b80356001600160a01b03811681146111c357600080fd5b919050565b6000602082840312156111da57600080fd5b6111e3826111ac565b9392505050565b6000602082840312156111fc57600080fd5b5035919050565b634e487b7160e01b600052604160045260246000fd5b604051601f8201601f1916810167ffffffffffffffff8111828210171561124257611242611203565b604052919050565b600067ffffffffffffffff82111561126457611264611203565b50601f01601f191660200190565b60008060006060848603121561128757600080fd5b833567ffffffffffffffff81111561129e57600080fd5b8401601f810186136112af57600080fd5b80356112c26112bd8261124a565b611219565b8181528760208385010111156112d757600080fd5b816020840160208301376000602083830101528095505050506112fc602085016111ac565b9150604084013590509250925092565b60005b8381101561132757818101518382015260200161130f565b50506000910152565b6000815180845261134881602086016020860161130c565b601f01601f19169290920160200192915050565b6020815260006111e36020830184611330565b60c08152600061138260c0830189611330565b6001600160a01b039790971660208301525060408101949094529115156060840152608083015260a090910152919050565b6000602082840312156113c657600080fd5b815180151581146111e357600080fd5b6000602082840312156113e857600080fd5b5051919050565b60006020828403121561140157600080fd5b815167ffffffffffffffff81111561141857600080fd5b8201601f8101841361142957600080fd5b80516114376112bd8261124a565b81815285602083850101111561144c57600080fd5b61145d82602083016020860161130c565b95945050505050565b634e487b7160e01b600052601160045260246000fd5b8082018082111561148f5761148f611466565b92915050565b6000600182016114a7576114a7611466565b5060010190565b600181811c908216806114c257607f821691505b6020821081036114e257634e487b7160e01b600052602260045260246000fd5b50919050565b601f82111561153257600081815260208120601f850160051c8101602086101561150f5750805b601f850160051c820191505b8181101561152e5782815560010161151b565b5050505b505050565b815167ffffffffffffffff81111561155157611551611203565b6115658161155f84546114ae565b846114e8565b602080601f83116001811461159a57600084156115825750858301515b600019600386901b1c1916600185901b17855561152e565b600085815260208120601f198616915b828110156115c9578886015182559484019460019091019084016115aa565b50858210156115e75787850151600019600388901b60f8161c191681555b5050505050600190811b01905550565b858152600060018060a01b03808716602084015260a0604084015261161f60a0840187611330565b941660608301525060800152939250505056fea26469706673582212209ae23bd1971beec7b25b0fcab92bc612d48ca4e4be6a70b300a6a45905f55ee964736f6c63430008130033",
  "immutableReferences": {},
  "source": "//SPDX-License-Identifier: GPL-3.0\r\n\r\npragma solidity ^0.8.0;\r\n\r\nimport \"@openzeppelin/contracts/token/ERC20/ERC20.sol\";\r\nimport \"@openzeppelin/contracts/token/ERC20/IERC20.sol\";\r\nimport \"@openzeppelin/contracts/access/Ownable.sol\";\r\n\r\ncontract Crowdfunding is Ownable {\r\n    address public admin;\r\n    address public tokenAddress;\r\n\r\n    IERC20 public token;\r\n    string public title;\r\n    uint public noOfContributors;\r\n    uint public deadline;\r\n    uint public goal;\r\n    uint public raisedAmount;\r\n    uint public totalRequestAmount;\r\n\r\n    struct Request {\r\n        string title;\r\n        address recipient;\r\n        uint amount;\r\n        bool completed;\r\n        uint noOfVoters;\r\n        uint valueOfVotes;\r\n        mapping(address => bool) voters;\r\n    }\r\n\r\n    event ContributeEvent(\r\n        // address _projectAddress,\r\n        address _contributor,\r\n        address _tokenAddress,\r\n        uint _amount\r\n    );\r\n    event GetRefundEvent(\r\n        // address _projectAddress,\r\n        address _contributor,\r\n        address _RefundToken,\r\n        uint _RefundAmount\r\n    );\r\n    event CreateRequestEvent(\r\n        uint requestNum,\r\n        // address _projectAddress,\r\n        address _projectCreator,\r\n        string _title,\r\n        address _recipient,\r\n        uint _amount\r\n    );\r\n    event ReceiveContributionEvent(\r\n        // address _projectAddress,\r\n        address _projectCreator,\r\n        address _recipient,\r\n        uint _amount,\r\n        uint _requestNo\r\n    );\r\n    event voteRequestEvent(\r\n        // address _projectAddress,\r\n        address _voter,\r\n        uint _requestNo,\r\n        uint _valueOfVote\r\n    );\r\n\r\n    // cannot store Request in array as it contains mapping\r\n    // therefore use mapping\r\n    uint public numRequests;\r\n    mapping(uint => Request) public requests;\r\n    mapping(address => uint) public contributors;\r\n\r\n    // // allows factory to call the functions here\r\n    // modifier sharedOwner() {\r\n    //     require(\r\n    //         msg.sender == owner() || msg.sender == crowdfundingFactory,\r\n    //         \"You are neither the owner nor the factory\"\r\n    //     );\r\n    //     _;\r\n    // }\r\n\r\n    constructor(\r\n        uint _goal,\r\n        uint _deadline,\r\n        address _acceptingThisToken,\r\n        string memory _title\r\n    ) {\r\n        require(_deadline > block.timestamp, \"Deadline must be in the future\");\r\n        require(isToken(_acceptingThisToken), \"Address provided is not token\");\r\n        require(\r\n            isContract(_acceptingThisToken),\r\n            \"Address provided is not a contract\"\r\n        );\r\n\r\n        title = _title;\r\n        goal = _goal;\r\n        deadline = _deadline;\r\n        admin = msg.sender;\r\n\r\n        token = IERC20(_acceptingThisToken);\r\n        tokenAddress = _acceptingThisToken;\r\n    }\r\n\r\n    function contribute(uint _amount) public {\r\n        require(\r\n            token.allowance(msg.sender, address(this)) >= _amount,\r\n            \"token spend not approved\"\r\n        );\r\n\r\n        if (contributors[msg.sender] == 0) {\r\n            unchecked {\r\n                noOfContributors++;\r\n            }\r\n        }\r\n        token.transferFrom(msg.sender, address(this), _amount);\r\n        unchecked {\r\n            contributors[msg.sender] += _amount;\r\n            raisedAmount += _amount;\r\n        }\r\n\r\n        emit ContributeEvent(msg.sender, tokenAddress, _amount);\r\n    }\r\n\r\n    function getRefund() public returns (uint) {\r\n        // require(block.timestamp >= deadline, \"Deadline has not passed\");\r\n        // require(raisedAmount < goal, \"Raised amount is more than goal\");\r\n        // require(contributors[msg.sender] > 0, \"You need to be a contributor\");\r\n\r\n        uint _amount = contributors[msg.sender];\r\n        contributors[msg.sender] = 0;\r\n        token.approve(msg.sender, _amount);\r\n        token.transfer(msg.sender, _amount);\r\n        emit GetRefundEvent(msg.sender, address(token), _amount);\r\n        return _amount;\r\n    }\r\n\r\n    function createRequest(\r\n        string memory _title,\r\n        address _recipient,\r\n        uint _amount\r\n    ) public onlyOwner {\r\n        if (raisedAmount > 0) {\r\n            require(\r\n                (totalRequestAmount + _amount) <= raisedAmount,\r\n                \"This transaction will cause totalRequestAmount to exceed raisedAmount\"\r\n            );\r\n        }\r\n\r\n        uint _requestNo = numRequests;\r\n        Request storage newRequest = requests[numRequests];\r\n        numRequests++;\r\n\r\n        newRequest.title = _title;\r\n        newRequest.recipient = _recipient;\r\n        newRequest.amount = _amount;\r\n        newRequest.completed = false;\r\n        newRequest.noOfVoters = 0;\r\n\r\n        totalRequestAmount += _amount;\r\n\r\n        emit CreateRequestEvent(\r\n            _requestNo,\r\n            msg.sender,\r\n            _title,\r\n            _recipient,\r\n            _amount\r\n        );\r\n    }\r\n\r\n    function voteRequest(uint _requestNo) public {\r\n        require(numRequests >= _requestNo, \"Request does not exist.\");\r\n        require(\r\n            msg.sender != owner(),\r\n            \"As the owner, not allowed to vote for this request\"\r\n        );\r\n\r\n        // must have contributed before voting\r\n        require(\r\n            contributors[msg.sender] > 0,\r\n            \"You must be a contributor to vote!\"\r\n        );\r\n\r\n        Request storage thisRequest = requests[_requestNo];\r\n        require(\r\n            thisRequest.voters[msg.sender] == false,\r\n            \"You have already voted\"\r\n        );\r\n        require(\r\n            thisRequest.recipient != address(0),\r\n            \"Request has not been initiated\"\r\n        );\r\n\r\n        uint _valueOfVote = contributors[msg.sender];\r\n        thisRequest.valueOfVotes += _valueOfVote;\r\n        thisRequest.noOfVoters++;\r\n        thisRequest.voters[msg.sender] = true;\r\n        emit voteRequestEvent(msg.sender, _requestNo, _valueOfVote);\r\n    }\r\n\r\n    function receiveContribution(\r\n        uint _requestNo\r\n    ) public onlyOwner returns (address, uint) {\r\n        // require(\r\n        //     raisedAmount >= goal,\r\n        //     \"raisedAmount must be more than or equal to goal\"\r\n        // );\r\n\r\n        Request storage thisRequest = requests[_requestNo];\r\n        // require(\r\n        //     thisRequest.completed == false,\r\n        //     \"The request has been completed.\"\r\n        // );\r\n        // uint ratio = goal / thisRequest.valueOfVotes;\r\n        // require(ratio < 2, \"value of votes fail to meet requirement\");\r\n\r\n        address _recipient = thisRequest.recipient;\r\n        uint _amount = thisRequest.amount;\r\n        token.transfer(_recipient, _amount);\r\n        thisRequest.completed = true;\r\n        emit ReceiveContributionEvent(\r\n            msg.sender,\r\n            _recipient,\r\n            _amount,\r\n            _requestNo\r\n        );\r\n        return (thisRequest.recipient, thisRequest.amount);\r\n    }\r\n\r\n    function getRequestTitle(\r\n        uint _requestNo\r\n    ) external view returns (string memory) {\r\n        return requests[_requestNo].title;\r\n    }\r\n\r\n    function getRequestRecipient(\r\n        uint _requestNo\r\n    ) external view returns (address) {\r\n        return requests[_requestNo].recipient;\r\n    }\r\n\r\n    function getRequestAmount(uint _requestNo) external view returns (uint) {\r\n        return requests[_requestNo].amount;\r\n    }\r\n\r\n    function getRequestCompleted(uint _requestNo) external view returns (bool) {\r\n        return requests[_requestNo].completed;\r\n    }\r\n\r\n    function getRequestNumOfVoters(\r\n        uint _requestNo\r\n    ) external view returns (uint) {\r\n        return requests[_requestNo].noOfVoters;\r\n    }\r\n\r\n    function getRequestValueOfVotes(\r\n        uint _requestNo\r\n    ) external view returns (uint) {\r\n        return requests[_requestNo].valueOfVotes;\r\n    }\r\n\r\n    function currBlockTimestamp() public view returns (uint) {\r\n        return block.timestamp;\r\n    }\r\n\r\n    // this function will run at constructor\r\n    function isContract(address _address) public view returns (bool) {\r\n        uint size;\r\n        assembly {\r\n            size := extcodesize(_address)\r\n        }\r\n        return size > 0;\r\n    }\r\n\r\n    // this function will run at constructor\r\n    function isToken(address _address) public view returns (bool) {\r\n        ERC20 testAddress = ERC20(_address);\r\n        require(testAddress.balanceOf(msg.sender) >= 0, \"method doesn't exist\");\r\n        require(testAddress.totalSupply() > 0, \"Supply is 0\");\r\n        bytes memory _testString = bytes(testAddress.name());\r\n\r\n        return _testString.length > 0;\r\n    }\r\n}\r\n",
  "sourcePath": "C:\\Users\\kimwu\\Desktop\\TFIP-NUS\\proj\\truffle\\contracts\\Crowdfunding.sol",
  "compiler": {
    "name": "solc",
    "version": "0.8.19+commit.7dd6d404.Emscripten.clang"
  },
  "schemaVersion": "3.4.13",
  "updatedAt": "2023-05-21T02:04:07.083Z",
  "networkType": "ethereum",
  "devdoc": {
    "kind": "dev",
    "methods": {
      "owner()": {
        "details": "Returns the address of the current owner."
      },
      "renounceOwnership()": {
        "details": "Leaves the contract without owner. It will not be possible to call `onlyOwner` functions anymore. Can only be called by the current owner. NOTE: Renouncing ownership will leave the contract without an owner, thereby removing any functionality that is only available to the owner."
      },
      "transferOwnership(address)": {
        "details": "Transfers ownership of the contract to a new account (`newOwner`). Can only be called by the current owner."
      }
    },
    "version": 1
  },
  "userdoc": {
    "kind": "user",
    "methods": {},
    "version": 1
  }
}