{
  "contractName": "CrowdfundingFactory",
  "abi": [
    {
      "inputs": [],
      "stateMutability": "nonpayable",
      "type": "constructor"
    },
    {
      "anonymous": false,
      "inputs": [
        {
          "indexed": false,
          "internalType": "address",
          "name": "_projectAddress",
          "type": "address"
        },
        {
          "indexed": false,
          "internalType": "address",
          "name": "_projectCreator",
          "type": "address"
        },
        {
          "indexed": false,
          "internalType": "string",
          "name": "_title",
          "type": "string"
        },
        {
          "indexed": false,
          "internalType": "uint256",
          "name": "_goal",
          "type": "uint256"
        },
        {
          "indexed": false,
          "internalType": "uint256",
          "name": "_deadline",
          "type": "uint256"
        },
        {
          "indexed": false,
          "internalType": "address",
          "name": "_tokenUsed",
          "type": "address"
        },
        {
          "indexed": false,
          "internalType": "string",
          "name": "tokenName",
          "type": "string"
        },
        {
          "indexed": false,
          "internalType": "string",
          "name": "tokenSymbol",
          "type": "string"
        }
      ],
      "name": "CreateNewProjectEvent",
      "type": "event"
    },
    {
      "anonymous": false,
      "inputs": [
        {
          "indexed": true,
          "internalType": "address",
          "name": "previousOwner",
          "type": "address"
        },
        {
          "indexed": true,
          "internalType": "address",
          "name": "newOwner",
          "type": "address"
        }
      ],
      "name": "OwnershipTransferred",
      "type": "event"
    },
    {
      "inputs": [
        {
          "internalType": "address",
          "name": "",
          "type": "address"
        }
      ],
      "name": "allowedAddresses",
      "outputs": [
        {
          "internalType": "bool",
          "name": "",
          "type": "bool"
        }
      ],
      "stateMutability": "view",
      "type": "function",
      "constant": true
    },
    {
      "inputs": [],
      "name": "isFreeForAll",
      "outputs": [
        {
          "internalType": "bool",
          "name": "",
          "type": "bool"
        }
      ],
      "stateMutability": "view",
      "type": "function",
      "constant": true
    },
    {
      "inputs": [],
      "name": "owner",
      "outputs": [
        {
          "internalType": "address",
          "name": "",
          "type": "address"
        }
      ],
      "stateMutability": "view",
      "type": "function",
      "constant": true
    },
    {
      "inputs": [
        {
          "internalType": "uint256",
          "name": "",
          "type": "uint256"
        }
      ],
      "name": "projectAddresses",
      "outputs": [
        {
          "internalType": "address",
          "name": "",
          "type": "address"
        }
      ],
      "stateMutability": "view",
      "type": "function",
      "constant": true
    },
    {
      "inputs": [],
      "name": "projectAddressesCount",
      "outputs": [
        {
          "internalType": "uint256",
          "name": "",
          "type": "uint256"
        }
      ],
      "stateMutability": "view",
      "type": "function",
      "constant": true
    },
    {
      "inputs": [
        {
          "internalType": "address",
          "name": "",
          "type": "address"
        }
      ],
      "name": "projects",
      "outputs": [
        {
          "internalType": "string",
          "name": "title",
          "type": "string"
        },
        {
          "internalType": "contract Crowdfunding",
          "name": "project",
          "type": "address"
        }
      ],
      "stateMutability": "view",
      "type": "function",
      "constant": true
    },
    {
      "inputs": [],
      "name": "renounceOwnership",
      "outputs": [],
      "stateMutability": "nonpayable",
      "type": "function"
    },
    {
      "inputs": [
        {
          "internalType": "address",
          "name": "newOwner",
          "type": "address"
        }
      ],
      "name": "transferOwnership",
      "outputs": [],
      "stateMutability": "nonpayable",
      "type": "function"
    },
    {
      "inputs": [
        {
          "internalType": "uint256",
          "name": "_goal",
          "type": "uint256"
        },
        {
          "internalType": "uint256",
          "name": "_deadline",
          "type": "uint256"
        },
        {
          "internalType": "address",
          "name": "_acceptingThisToken",
          "type": "address"
        },
        {
          "internalType": "string",
          "name": "_title",
          "type": "string"
        }
      ],
      "name": "createNewProject",
      "outputs": [],
      "stateMutability": "nonpayable",
      "type": "function"
    },
    {
      "inputs": [
        {
          "internalType": "address",
          "name": "_allowThisAddress",
          "type": "address"
        }
      ],
      "name": "allowAddress",
      "outputs": [],
      "stateMutability": "nonpayable",
      "type": "function"
    },
    {
      "inputs": [
        {
          "internalType": "address",
          "name": "_disallowThisAddress",
          "type": "address"
        }
      ],
      "name": "disallowAddress",
      "outputs": [],
      "stateMutability": "nonpayable",
      "type": "function"
    },
    {
      "inputs": [],
      "name": "toggleFreeForAll",
      "outputs": [],
      "stateMutability": "nonpayable",
      "type": "function"
    },
    {
      "inputs": [
        {
          "internalType": "address",
          "name": "_address",
          "type": "address"
        }
      ],
      "name": "isContract",
      "outputs": [
        {
          "internalType": "bool",
          "name": "",
          "type": "bool"
        }
      ],
      "stateMutability": "view",
      "type": "function",
      "constant": true
    },
    {
      "inputs": [
        {
          "internalType": "address",
          "name": "_address",
          "type": "address"
        }
      ],
      "name": "isToken",
      "outputs": [
        {
          "internalType": "bool",
          "name": "",
          "type": "bool"
        }
      ],
      "stateMutability": "view",
      "type": "function",
      "constant": true
    }
  ],
  "bytecode": "0x608060405234801561001057600080fd5b5061001a3361002c565b6005805460ff1916600117905561007c565b600080546001600160a01b038381166001600160a01b0319831681178455604051919092169283917f8be0079c531659141344cd1fd0a4f28419497f9722a3daafe3b4186f6b6457e09190a35050565b612d168061008b6000396000f3fe60806040523480156200001157600080fd5b5060043610620000fd5760003560e01c8063840e78fd1162000097578063b7c58d7a116200006e578063b7c58d7a1462000219578063b8da41f91462000230578063cc13fd3b1462000248578063f2fde38b146200027457600080fd5b8063840e78fd14620001be5780638da5cb5b14620001e5578063adf07fa8146200020b57600080fd5b8063224b06bd11620000d8578063224b06bd146200015e578063254695d714620001755780634120657a146200018e578063715018a614620001b457600080fd5b806308af4d88146200010257806316279055146200011b57806319f373611462000147575b600080fd5b620001196200011336600462000a3c565b6200028b565b005b620001326200012c36600462000a3c565b3b151590565b60405190151581526020015b60405180910390f35b620001326200015836600462000a3c565b620002e0565b620001196200016f36600462000ad6565b620004b7565b6200017f60045481565b6040519081526020016200013e565b620001326200019f36600462000a3c565b60026020526000908152604090205460ff1681565b62000119620007c3565b620001d5620001cf36600462000a3c565b620007db565b6040516200013e92919062000bd8565b6000546001600160a01b03165b6040516001600160a01b0390911681526020016200013e565b600554620001329060ff1681565b620001196200022a36600462000a3c565b62000890565b620001196005805460ff19811660ff90911615179055565b620001f26200025936600462000c04565b6003602052600090815260409020546001600160a01b031681565b620001196200028536600462000a3c565b620008e6565b6200029562000965565b6001600160a01b03811660009081526002602052604090205460ff1615620002bc57600080fd5b6001600160a01b03166000908152600260205260409020805460ff19166001179055565b6040516370a0823160e01b8152336004820152600090829082906001600160a01b038316906370a0823190602401602060405180830381865afa1580156200032c573d6000803e3d6000fd5b505050506040513d601f19601f8201168201806040525081019062000352919062000c1e565b10156200039d5760405162461bcd60e51b81526020600482015260146024820152731b595d1a1bd908191bd95cdb89dd08195e1a5cdd60621b60448201526064015b60405180910390fd5b6000816001600160a01b03166318160ddd6040518163ffffffff1660e01b8152600401602060405180830381865afa158015620003de573d6000803e3d6000fd5b505050506040513d601f19601f8201168201806040525081019062000404919062000c1e565b11620004415760405162461bcd60e51b815260206004820152600b60248201526a0537570706c7920697320360ac1b604482015260640162000394565b6000816001600160a01b03166306fdde036040518163ffffffff1660e01b8152600401600060405180830381865afa15801562000482573d6000803e3d6000fd5b505050506040513d6000823e601f3d908101601f19168201604052620004ac919081019062000c38565b511515949350505050565b60055460ff1662000521573360009081526002602052604090205460ff161515600114620005215760405162461bcd60e51b81526020600482015260166024820152751059191c995cdcc81a5cc81b9bdd08185b1b1bddd95960521b604482015260640162000394565b600084848484604051620005359062000a11565b62000544949392919062000cb8565b604051809103906000f08015801562000561573d6000803e3d6000fd5b5090506001600160a01b038116620005b45760405162461bcd60e51b81526020600482015260156024820152740616464726573732063616e6e6f742062652030783605c1b604482015260640162000394565b60405163f2fde38b60e01b81523360048201526001600160a01b0382169063f2fde38b90602401600060405180830381600087803b158015620005f657600080fd5b505af11580156200060b573d6000803e3d6000fd5b505050506001600160a01b0381166000908152600160205260408120600480549192620006388362000cf1565b9091555050600454600090815260036020526040902080546001600160a01b0319166001600160a01b0384161790558062000674848262000da8565b50818160010160006101000a8154816001600160a01b0302191690836001600160a01b0316021790555060008490507f9bf072edfb6b558ebf0f6c8f312ffea6af006bdceb5ca2da5cf73d2b858777638333868a8a8a876001600160a01b03166306fdde036040518163ffffffff1660e01b8152600401600060405180830381865afa15801562000709573d6000803e3d6000fd5b505050506040513d6000823e601f3d908101601f1916820160405262000733919081019062000c38565b886001600160a01b03166395d89b416040518163ffffffff1660e01b8152600401600060405180830381865afa15801562000772573d6000803e3d6000fd5b505050506040513d6000823e601f3d908101601f191682016040526200079c919081019062000c38565b604051620007b298979695949392919062000e75565b60405180910390a150505050505050565b620007cd62000965565b620007d96000620009c1565b565b600160205260009081526040902080548190620007f89062000d19565b80601f0160208091040260200160405190810160405280929190818152602001828054620008269062000d19565b8015620008775780601f106200084b5761010080835404028352916020019162000877565b820191906000526020600020905b8154815290600101906020018083116200085957829003601f168201915b505050600190930154919250506001600160a01b031682565b6200089a62000965565b6001600160a01b03811660009081526002602052604090205460ff161515600114620008c557600080fd5b6001600160a01b03166000908152600260205260409020805460ff19169055565b620008f062000965565b6001600160a01b038116620009575760405162461bcd60e51b815260206004820152602660248201527f4f776e61626c653a206e6577206f776e657220697320746865207a65726f206160448201526564647265737360d01b606482015260840162000394565b6200096281620009c1565b50565b6000546001600160a01b03163314620007d95760405162461bcd60e51b815260206004820181905260248201527f4f776e61626c653a2063616c6c6572206973206e6f7420746865206f776e6572604482015260640162000394565b600080546001600160a01b038381166001600160a01b0319831681178455604051919092169283917f8be0079c531659141344cd1fd0a4f28419497f9722a3daafe3b4186f6b6457e09190a35050565b611deb8062000ef683390190565b80356001600160a01b038116811462000a3757600080fd5b919050565b60006020828403121562000a4f57600080fd5b62000a5a8262000a1f565b9392505050565b634e487b7160e01b600052604160045260246000fd5b604051601f8201601f1916810167ffffffffffffffff8111828210171562000aa35762000aa362000a61565b604052919050565b600067ffffffffffffffff82111562000ac85762000ac862000a61565b50601f01601f191660200190565b6000806000806080858703121562000aed57600080fd5b843593506020850135925062000b066040860162000a1f565b9150606085013567ffffffffffffffff81111562000b2357600080fd5b8501601f8101871362000b3557600080fd5b803562000b4c62000b468262000aab565b62000a77565b81815288602083850101111562000b6257600080fd5b8160208401602083013760006020838301015280935050505092959194509250565b60005b8381101562000ba157818101518382015260200162000b87565b50506000910152565b6000815180845262000bc481602086016020860162000b84565b601f01601f19169290920160200192915050565b60408152600062000bed604083018562000baa565b905060018060a01b03831660208301529392505050565b60006020828403121562000c1757600080fd5b5035919050565b60006020828403121562000c3157600080fd5b5051919050565b60006020828403121562000c4b57600080fd5b815167ffffffffffffffff81111562000c6357600080fd5b8201601f8101841362000c7557600080fd5b805162000c8662000b468262000aab565b81815285602083850101111562000c9c57600080fd5b62000caf82602083016020860162000b84565b95945050505050565b84815283602082015260018060a01b038316604082015260806060820152600062000ce7608083018462000baa565b9695505050505050565b60006001820162000d1257634e487b7160e01b600052601160045260246000fd5b5060010190565b600181811c9082168062000d2e57607f821691505b60208210810362000d4f57634e487b7160e01b600052602260045260246000fd5b50919050565b601f82111562000da357600081815260208120601f850160051c8101602086101562000d7e5750805b601f850160051c820191505b8181101562000d9f5782815560010162000d8a565b5050505b505050565b815167ffffffffffffffff81111562000dc55762000dc562000a61565b62000ddd8162000dd6845462000d19565b8462000d55565b602080601f83116001811462000e15576000841562000dfc5750858301515b600019600386901b1c1916600185901b17855562000d9f565b600085815260208120601f198616915b8281101562000e465788860151825594840194600190910190840162000e25565b508582101562000e655787850151600019600388901b60f8161c191681555b5050505050600190811b01905550565b6001600160a01b03898116825288811660208301526101006040830181905260009162000ea58483018b62000baa565b915088606085015287608085015280871660a08501525082810360c084015262000ed0818662000baa565b905082810360e084015262000ee6818562000baa565b9b9a505050505050505050505056fe60806040523480156200001157600080fd5b5060405162001deb38038062001deb83398101604081905262000034916200048f565b6200003f336200019e565b428311620000945760405162461bcd60e51b815260206004820152601e60248201527f446561646c696e65206d75737420626520696e2074686520667574757265000060448201526064015b60405180910390fd5b6200009f82620001ee565b620000ed5760405162461bcd60e51b815260206004820152601d60248201527f416464726573732070726f7669646564206973206e6f7420746f6b656e00000060448201526064016200008b565b813b620001485760405162461bcd60e51b815260206004820152602260248201527f416464726573732070726f7669646564206973206e6f74206120636f6e74726160448201526118dd60f21b60648201526084016200008b565b600462000156828262000593565b505060079290925560065560018054336001600160a01b0319918216179091556003805482166001600160a01b039093169283179055600280549091169091179055620006b9565b600080546001600160a01b038381166001600160a01b0319831681178455604051919092169283917f8be0079c531659141344cd1fd0a4f28419497f9722a3daafe3b4186f6b6457e09190a35050565b6040516370a0823160e01b8152336004820152600090829082906001600160a01b038316906370a0823190602401602060405180830381865afa1580156200023a573d6000803e3d6000fd5b505050506040513d601f19601f820116820180604052508101906200026091906200065f565b1015620002b05760405162461bcd60e51b815260206004820152601460248201527f6d6574686f6420646f65736e277420657869737400000000000000000000000060448201526064016200008b565b6000816001600160a01b03166318160ddd6040518163ffffffff1660e01b8152600401602060405180830381865afa158015620002f1573d6000803e3d6000fd5b505050506040513d601f19601f820116820180604052508101906200031791906200065f565b11620003545760405162461bcd60e51b815260206004820152600b60248201526a0537570706c7920697320360ac1b60448201526064016200008b565b6000816001600160a01b03166306fdde036040518163ffffffff1660e01b8152600401600060405180830381865afa15801562000395573d6000803e3d6000fd5b505050506040513d6000823e601f3d908101601f19168201604052620003bf919081019062000679565b511515949350505050565b634e487b7160e01b600052604160045260246000fd5b600082601f830112620003f257600080fd5b81516001600160401b03808211156200040f576200040f620003ca565b604051601f8301601f19908116603f011681019082821181831017156200043a576200043a620003ca565b816040528381526020925086838588010111156200045757600080fd5b600091505b838210156200047b57858201830151818301840152908201906200045c565b600093810190920192909252949350505050565b60008060008060808587031215620004a657600080fd5b84516020860151604087015191955093506001600160a01b0381168114620004cd57600080fd5b60608601519092506001600160401b03811115620004ea57600080fd5b620004f887828801620003e0565b91505092959194509250565b600181811c908216806200051957607f821691505b6020821081036200053a57634e487b7160e01b600052602260045260246000fd5b50919050565b601f8211156200058e57600081815260208120601f850160051c81016020861015620005695750805b601f850160051c820191505b818110156200058a5782815560010162000575565b5050505b505050565b81516001600160401b03811115620005af57620005af620003ca565b620005c781620005c0845462000504565b8462000540565b602080601f831160018114620005ff5760008415620005e65750858301515b600019600386901b1c1916600185901b1785556200058a565b600085815260208120601f198616915b8281101562000630578886015182559484019460019091019084016200060f565b50858210156200064f5787850151600019600388901b60f8161c191681555b5050505050600190811b01905550565b6000602082840312156200067257600080fd5b5051919050565b6000602082840312156200068c57600080fd5b81516001600160401b03811115620006a357600080fd5b620006b184828501620003e0565b949350505050565b61172280620006c96000396000f3fe608060405234801561001057600080fd5b50600436106101425760003560e01c806381d12c58116100b8578063c1cbbca71161007c578063c1cbbca7146102b1578063c59ee1dc146102c4578063f2fde38b146102cd578063f851a440146102e0578063f8b3a2c4146102f3578063fc0c546a146102fc57600080fd5b806381d12c58146102435780638da5cb5b146102685780639d76ea581461028d5780639fb42b1f146102a0578063b2d5ae44146102a957600080fd5b806329dcb0cf1161010a57806329dcb0cf146101f857806340193883146102015780634a79d50c1461020a5780634cb6f4a51461021f5780634e260f6f14610232578063715018a61461023b57600080fd5b80631627905514610147578063180b71381461017057806319f37361146101a25780631b16bb5c146101b55780631f6d4942146101ca575b600080fd5b61015b610155366004611260565b3b151590565b60405190151581526020015b60405180910390f35b61018361017e366004611282565b61030f565b604080516001600160a01b039093168352602083019190915201610167565b61015b6101b0366004611260565b61056a565b6101c86101c336600461130a565b610730565b005b6101ea6101d8366004611260565b600c6020526000908152604090205481565b604051908152602001610167565b6101ea60065481565b6101ea60075481565b610212610904565b60405161016791906113f4565b6101c861022d366004611282565b610992565b6101ea60055481565b6101c8610c24565b610256610251366004611282565b610c38565b60405161016796959493929190611407565b6000546001600160a01b03165b6040516001600160a01b039091168152602001610167565b600254610275906001600160a01b031681565b6101ea600a5481565b6101ea610d02565b6101c86102bf366004611282565b610f5a565b6101ea60085481565b6101c86102db366004611260565b611121565b600154610275906001600160a01b031681565b6101ea60095481565b600354610275906001600160a01b031681565b60008061031a61119a565b600754600854101561038b5760405162461bcd60e51b815260206004820152602f60248201527f726169736564416d6f756e74206d757374206265206d6f7265207468616e206f60448201526e1c88195c5d585b081d1bc819dbd85b608a1b60648201526084015b60405180910390fd5b6000838152600b60205260409020600381015460ff16156103ee5760405162461bcd60e51b815260206004820152601f60248201527f546865207265717565737420686173206265656e20636f6d706c657465642e006044820152606401610382565b600081600501546007546104029190611462565b9050600281106104645760405162461bcd60e51b815260206004820152602760248201527f76616c7565206f6620766f746573206661696c20746f206d65657420726571756044820152661a5c995b595b9d60ca1b6064820152608401610382565b6001820154600283015460035460405163a9059cbb60e01b81526001600160a01b039384166004820181905260248201849052939091169063a9059cbb906044016020604051808303816000875af11580156104c4573d6000803e3d6000fd5b505050506040513d601f19601f820116820180604052508101906104e89190611484565b5060038401805460ff19166001179055604080513381526001600160a01b0384166020820152908101829052606081018890527fe8865f6295f774cc1f85678223321412003260525398a1d46e5e884a0f694a739060800160405180910390a150505060018101546002909101546001600160a01b0390911692509050915091565b6040516370a0823160e01b8152336004820152600090829082906001600160a01b038316906370a0823190602401602060405180830381865afa1580156105b5573d6000803e3d6000fd5b505050506040513d601f19601f820116820180604052508101906105d991906114a6565b101561061e5760405162461bcd60e51b81526020600482015260146024820152731b595d1a1bd908191bd95cdb89dd08195e1a5cdd60621b6044820152606401610382565b6000816001600160a01b03166318160ddd6040518163ffffffff1660e01b8152600401602060405180830381865afa15801561065e573d6000803e3d6000fd5b505050506040513d601f19601f8201168201806040525081019061068291906114a6565b116106bd5760405162461bcd60e51b815260206004820152600b60248201526a0537570706c7920697320360ac1b6044820152606401610382565b6000816001600160a01b03166306fdde036040518163ffffffff1660e01b8152600401600060405180830381865afa1580156106fd573d6000803e3d6000fd5b505050506040513d6000823e601f3d908101601f1916820160405261072591908101906114bf565b511515949350505050565b61073861119a565b6000600854116107a95760405162461bcd60e51b815260206004820152603660248201527f556e61626c6520746f20637265617465207265717565737420617320746865726044820152756520617265206e6f20636f6e747269627574696f6e7360501b6064820152608401610382565b600854816009546107ba9190611536565b111561083c5760405162461bcd60e51b815260206004820152604560248201527f54686973207472616e73616374696f6e2077696c6c20636175736520746f746160448201527f6c52657175657374416d6f756e7420746f2065786365656420726169736564416064820152641b5bdd5b9d60da1b608482015260a401610382565b600a80546000818152600b602052604081209192839161085b8361154f565b9091555081905061086c86826115f1565b506001810180546001600160a01b0319166001600160a01b0386161790556002810183905560038101805460ff19169055600060048201819055600980548592906108b8908490611536565b90915550506040517f6fbbe1619a744707cabdefa8c81690a643c946e64fd595a1126aa6d4bc27bba1906108f590849033908990899089906116b1565b60405180910390a15050505050565b6004805461091190611568565b80601f016020809104026020016040519081016040528092919081815260200182805461093d90611568565b801561098a5780601f1061095f5761010080835404028352916020019161098a565b820191906000526020600020905b81548152906001019060200180831161096d57829003601f168201915b505050505081565b80600a5410156109e45760405162461bcd60e51b815260206004820152601760248201527f5265717565737420646f6573206e6f742065786973742e0000000000000000006044820152606401610382565b6000546001600160a01b03163303610a595760405162461bcd60e51b815260206004820152603260248201527f417320746865206f776e65722c206e6f7420616c6c6f77656420746f20766f746044820152711948199bdc881d1a1a5cc81c995c5d595cdd60721b6064820152608401610382565b336000908152600c6020526040902054610ac05760405162461bcd60e51b815260206004820152602260248201527f596f75206d757374206265206120636f6e7472696275746f7220746f20766f74604482015261652160f01b6064820152608401610382565b6000818152600b60209081526040808320338452600681019092529091205460ff1615610b285760405162461bcd60e51b8152602060048201526016602482015275165bdd481a185d9948185b1c9958591e481d9bdd195960521b6044820152606401610382565b60018101546001600160a01b0316610b825760405162461bcd60e51b815260206004820152601e60248201527f5265717565737420686173206e6f74206265656e20696e6974696174656400006044820152606401610382565b336000908152600c602052604081205460058301805491928392610ba7908490611536565b9091555050600482018054906000610bbe8361154f565b9091555050336000818152600684016020908152604091829020805460ff191660011790558151928352820185905281018290527fcd200ea5ac0e92a5a67c5c682507511ae3086a331d103afb7eea291ae430d5999060600160405180910390a1505050565b610c2c61119a565b610c3660006111f4565b565b600b60205260009081526040902080548190610c5390611568565b80601f0160208091040260200160405190810160405280929190818152602001828054610c7f90611568565b8015610ccc5780601f10610ca157610100808354040283529160200191610ccc565b820191906000526020600020905b815481529060010190602001808311610caf57829003601f168201915b505050600184015460028501546003860154600487015460059097015495966001600160a01b039093169591945060ff16925086565b6000600654421015610d565760405162461bcd60e51b815260206004820152601760248201527f446561646c696e6520686173206e6f74207061737365640000000000000000006044820152606401610382565b60075460085410610da95760405162461bcd60e51b815260206004820152601f60248201527f52616973656420616d6f756e74206973206d6f7265207468616e20676f616c006044820152606401610382565b336000908152600c6020526040902054610e055760405162461bcd60e51b815260206004820152601c60248201527f596f75206e65656420746f206265206120636f6e7472696275746f72000000006044820152606401610382565b336000818152600c60205260408082208054929055600354905163095ea7b360e01b815260048101939093526024830182905290916001600160a01b039091169063095ea7b3906044016020604051808303816000875af1158015610e6e573d6000803e3d6000fd5b505050506040513d601f19601f82011682018060405250810190610e929190611484565b5060035460405163a9059cbb60e01b8152336004820152602481018390526001600160a01b039091169063a9059cbb906044016020604051808303816000875af1158015610ee4573d6000803e3d6000fd5b505050506040513d601f19601f82011682018060405250810190610f089190611484565b50600354604080513381526001600160a01b03909216602083015281018290527ff7f394ee65e37c78e595ee4c8675e3832dff9a6cfc6a2c7405e3689f2a714c539060600160405180910390a1919050565b600354604051636eb1769f60e11b815233600482015230602482015282916001600160a01b03169063dd62ed3e90604401602060405180830381865afa158015610fa8573d6000803e3d6000fd5b505050506040513d601f19601f82011682018060405250810190610fcc91906114a6565b101561101a5760405162461bcd60e51b815260206004820152601860248201527f746f6b656e207370656e64206e6f7420617070726f76656400000000000000006044820152606401610382565b336000908152600c6020526040812054900361103a576005805460010190555b6003546040516323b872dd60e01b8152336004820152306024820152604481018390526001600160a01b03909116906323b872dd906064016020604051808303816000875af1158015611091573d6000803e3d6000fd5b505050506040513d601f19601f820116820180604052508101906110b59190611484565b50336000818152600c6020908152604091829020805485019055600880548501905560025482519384526001600160a01b03169083015281018290527f630c9eb89085cfe993245c555e78df45b0b8e8f31f411ddc400727738d9648349060600160405180910390a150565b61112961119a565b6001600160a01b03811661118e5760405162461bcd60e51b815260206004820152602660248201527f4f776e61626c653a206e6577206f776e657220697320746865207a65726f206160448201526564647265737360d01b6064820152608401610382565b611197816111f4565b50565b6000546001600160a01b03163314610c365760405162461bcd60e51b815260206004820181905260248201527f4f776e61626c653a2063616c6c6572206973206e6f7420746865206f776e65726044820152606401610382565b600080546001600160a01b038381166001600160a01b0319831681178455604051919092169283917f8be0079c531659141344cd1fd0a4f28419497f9722a3daafe3b4186f6b6457e09190a35050565b80356001600160a01b038116811461125b57600080fd5b919050565b60006020828403121561127257600080fd5b61127b82611244565b9392505050565b60006020828403121561129457600080fd5b5035919050565b634e487b7160e01b600052604160045260246000fd5b604051601f8201601f1916810167ffffffffffffffff811182821017156112da576112da61129b565b604052919050565b600067ffffffffffffffff8211156112fc576112fc61129b565b50601f01601f191660200190565b60008060006060848603121561131f57600080fd5b833567ffffffffffffffff81111561133657600080fd5b8401601f8101861361134757600080fd5b803561135a611355826112e2565b6112b1565b81815287602083850101111561136f57600080fd5b8160208401602083013760006020838301015280955050505061139460208501611244565b9150604084013590509250925092565b60005b838110156113bf5781810151838201526020016113a7565b50506000910152565b600081518084526113e08160208601602086016113a4565b601f01601f19169290920160200192915050565b60208152600061127b60208301846113c8565b60c08152600061141a60c08301896113c8565b6001600160a01b039790971660208301525060408101949094529115156060840152608083015260a090910152919050565b634e487b7160e01b600052601160045260246000fd5b60008261147f57634e487b7160e01b600052601260045260246000fd5b500490565b60006020828403121561149657600080fd5b8151801515811461127b57600080fd5b6000602082840312156114b857600080fd5b5051919050565b6000602082840312156114d157600080fd5b815167ffffffffffffffff8111156114e857600080fd5b8201601f810184136114f957600080fd5b8051611507611355826112e2565b81815285602083850101111561151c57600080fd5b61152d8260208301602086016113a4565b95945050505050565b808201808211156115495761154961144c565b92915050565b6000600182016115615761156161144c565b5060010190565b600181811c9082168061157c57607f821691505b60208210810361159c57634e487b7160e01b600052602260045260246000fd5b50919050565b601f8211156115ec57600081815260208120601f850160051c810160208610156115c95750805b601f850160051c820191505b818110156115e8578281556001016115d5565b5050505b505050565b815167ffffffffffffffff81111561160b5761160b61129b565b61161f816116198454611568565b846115a2565b602080601f831160018114611654576000841561163c5750858301515b600019600386901b1c1916600185901b1785556115e8565b600085815260208120601f198616915b8281101561168357888601518255948401946001909101908401611664565b50858210156116a15787850151600019600388901b60f8161c191681555b5050505050600190811b01905550565b858152600060018060a01b03808716602084015260a060408401526116d960a08401876113c8565b941660608301525060800152939250505056fea26469706673582212208a5a3e697168c1677d8fb7c46972cca03a72f28ca5b1082e48614ae5d53870b364736f6c63430008130033a264697066735822122002d6807198a85ff1746df8467bee65ec6c348acffd3ee6cf2279b732b4d4bf8164736f6c63430008130033",
  "immutableReferences": {},
  "source": "//SPDX-License-Identifier: GPL-3.0\r\n\r\npragma solidity ^0.8.0;\r\n\r\nimport \"./Crowdfunding.sol\";\r\n\r\ncontract CrowdfundingFactory is Ownable {\r\n    mapping(address => ProjectDetails) public projects;\r\n    mapping(address => bool) public allowedAddresses;\r\n    mapping(uint => address) public projectAddresses;\r\n    uint public projectAddressesCount;\r\n    bool public isFreeForAll;\r\n\r\n    struct ProjectDetails {\r\n        string title;\r\n        Crowdfunding project;\r\n    }\r\n\r\n    event CreateNewProjectEvent(\r\n        address _projectAddress,\r\n        address _projectCreator,\r\n        string _title,\r\n        uint _goal,\r\n        uint _deadline,\r\n        address _tokenUsed,\r\n        string tokenName,\r\n        string tokenSymbol\r\n    );\r\n\r\n    constructor() {\r\n        isFreeForAll = true;\r\n    }\r\n\r\n    function createNewProject(\r\n        uint _goal,\r\n        uint _deadline,\r\n        address _acceptingThisToken,\r\n        string memory _title\r\n    ) public {\r\n        if (!isFreeForAll) {\r\n            require(\r\n                allowedAddresses[msg.sender] == true,\r\n                \"Address is not allowed\"\r\n            );\r\n        }\r\n\r\n        Crowdfunding crowdfunding = new Crowdfunding(\r\n            _goal,\r\n            _deadline,\r\n            _acceptingThisToken,\r\n            _title\r\n        );\r\n\r\n        require(address(crowdfunding) != address(0), \"address cannot be 0x0\");\r\n        crowdfunding.transferOwnership(msg.sender);\r\n\r\n        ProjectDetails storage newProject = projects[address(crowdfunding)];\r\n\r\n        projectAddressesCount++;\r\n        projectAddresses[projectAddressesCount] = address(crowdfunding);\r\n        newProject.title = _title;\r\n        newProject.project = crowdfunding;\r\n        IERC20Metadata token = IERC20Metadata(_acceptingThisToken);\r\n\r\n        emit CreateNewProjectEvent(\r\n            address(crowdfunding),\r\n            msg.sender,\r\n            _title,\r\n            _goal,\r\n            _deadline,\r\n            _acceptingThisToken,\r\n            token.name(),\r\n            token.symbol()\r\n        );\r\n    }\r\n\r\n    function allowAddress(address _allowThisAddress) public onlyOwner {\r\n        require(allowedAddresses[_allowThisAddress] == false);\r\n        allowedAddresses[_allowThisAddress] = true;\r\n    }\r\n\r\n    function disallowAddress(address _disallowThisAddress) public onlyOwner {\r\n        require(allowedAddresses[_disallowThisAddress] == true);\r\n        allowedAddresses[_disallowThisAddress] = false;\r\n    }\r\n\r\n    function toggleFreeForAll() public {\r\n        isFreeForAll = !isFreeForAll;\r\n    }\r\n\r\n    function isContract(address _address) public view returns (bool) {\r\n        uint size;\r\n        assembly {\r\n            size := extcodesize(_address)\r\n        }\r\n        return size > 0;\r\n    }\r\n\r\n    function isToken(address _address) public view returns (bool) {\r\n        ERC20 testAddress = ERC20(_address);\r\n        require(testAddress.balanceOf(msg.sender) >= 0, \"method doesn't exist\");\r\n        require(testAddress.totalSupply() > 0, \"Supply is 0\");\r\n        bytes memory _testString = bytes(testAddress.name());\r\n\r\n        return _testString.length > 0;\r\n    }\r\n}\r\n",
  "sourcePath": "C:\\Users\\kimwu\\Desktop\\TFIP-NUS\\proj\\truffle\\contracts\\CrowdfundingFactory.sol",
  "compiler": {
    "name": "solc",
    "version": "0.8.19+commit.7dd6d404.Emscripten.clang"
  },
  "schemaVersion": "3.4.13",
  "updatedAt": "2023-05-25T09:31:26.991Z",
  "networkType": "ethereum",
  "devdoc": {
    "kind": "dev",
    "methods": {
      "owner()": {
        "details": "Returns the address of the current owner."
      },
      "renounceOwnership()": {
        "details": "Leaves the contract without owner. It will not be possible to call `onlyOwner` functions. Can only be called by the current owner. NOTE: Renouncing ownership will leave the contract without an owner, thereby disabling any functionality that is only available to the owner."
      },
      "transferOwnership(address)": {
        "details": "Transfers ownership of the contract to a new account (`newOwner`). Can only be called by the current owner."
      }
    },
    "version": 1
  },
  "userdoc": {
    "kind": "user",
    "methods": {},
    "version": 1
  }
}