{
  "contractName": "CrowdfundingFactory",
  "abi": [
    {
      "inputs": [],
      "stateMutability": "nonpayable",
      "type": "constructor"
    },
    {
      "anonymous": false,
      "inputs": [
        {
          "indexed": false,
          "internalType": "address",
          "name": "_projectAddress",
          "type": "address"
        },
        {
          "indexed": false,
          "internalType": "address",
          "name": "_projectCreator",
          "type": "address"
        },
        {
          "indexed": false,
          "internalType": "string",
          "name": "_title",
          "type": "string"
        },
        {
          "indexed": false,
          "internalType": "uint256",
          "name": "_goal",
          "type": "uint256"
        },
        {
          "indexed": false,
          "internalType": "uint256",
          "name": "_deadline",
          "type": "uint256"
        },
        {
          "indexed": false,
          "internalType": "address",
          "name": "_tokenUsed",
          "type": "address"
        },
        {
          "indexed": false,
          "internalType": "string",
          "name": "tokenName",
          "type": "string"
        },
        {
          "indexed": false,
          "internalType": "string",
          "name": "tokenSymbol",
          "type": "string"
        }
      ],
      "name": "CreateNewProjectEvent",
      "type": "event"
    },
    {
      "anonymous": false,
      "inputs": [
        {
          "indexed": true,
          "internalType": "address",
          "name": "previousOwner",
          "type": "address"
        },
        {
          "indexed": true,
          "internalType": "address",
          "name": "newOwner",
          "type": "address"
        }
      ],
      "name": "OwnershipTransferred",
      "type": "event"
    },
    {
      "inputs": [
        {
          "internalType": "address",
          "name": "",
          "type": "address"
        }
      ],
      "name": "allowedAddresses",
      "outputs": [
        {
          "internalType": "bool",
          "name": "",
          "type": "bool"
        }
      ],
      "stateMutability": "view",
      "type": "function",
      "constant": true
    },
    {
      "inputs": [],
      "name": "isFreeForAll",
      "outputs": [
        {
          "internalType": "bool",
          "name": "",
          "type": "bool"
        }
      ],
      "stateMutability": "view",
      "type": "function",
      "constant": true
    },
    {
      "inputs": [],
      "name": "owner",
      "outputs": [
        {
          "internalType": "address",
          "name": "",
          "type": "address"
        }
      ],
      "stateMutability": "view",
      "type": "function",
      "constant": true
    },
    {
      "inputs": [
        {
          "internalType": "address",
          "name": "",
          "type": "address"
        }
      ],
      "name": "projects",
      "outputs": [
        {
          "internalType": "string",
          "name": "title",
          "type": "string"
        },
        {
          "internalType": "contract Crowdfunding",
          "name": "project",
          "type": "address"
        }
      ],
      "stateMutability": "view",
      "type": "function",
      "constant": true
    },
    {
      "inputs": [],
      "name": "renounceOwnership",
      "outputs": [],
      "stateMutability": "nonpayable",
      "type": "function"
    },
    {
      "inputs": [
        {
          "internalType": "address",
          "name": "newOwner",
          "type": "address"
        }
      ],
      "name": "transferOwnership",
      "outputs": [],
      "stateMutability": "nonpayable",
      "type": "function"
    },
    {
      "inputs": [
        {
          "internalType": "uint256",
          "name": "_goal",
          "type": "uint256"
        },
        {
          "internalType": "uint256",
          "name": "_deadline",
          "type": "uint256"
        },
        {
          "internalType": "address",
          "name": "_acceptingThisToken",
          "type": "address"
        },
        {
          "internalType": "string",
          "name": "_title",
          "type": "string"
        }
      ],
      "name": "createNewProject",
      "outputs": [],
      "stateMutability": "nonpayable",
      "type": "function"
    },
    {
      "inputs": [
        {
          "internalType": "address",
          "name": "_allowThisAddress",
          "type": "address"
        }
      ],
      "name": "allowAddress",
      "outputs": [],
      "stateMutability": "nonpayable",
      "type": "function"
    },
    {
      "inputs": [
        {
          "internalType": "address",
          "name": "_disallowThisAddress",
          "type": "address"
        }
      ],
      "name": "disallowAddress",
      "outputs": [],
      "stateMutability": "nonpayable",
      "type": "function"
    },
    {
      "inputs": [],
      "name": "toggleFreeForAll",
      "outputs": [],
      "stateMutability": "nonpayable",
      "type": "function"
    },
    {
      "inputs": [
        {
          "internalType": "address",
          "name": "_address",
          "type": "address"
        }
      ],
      "name": "isContract",
      "outputs": [
        {
          "internalType": "bool",
          "name": "",
          "type": "bool"
        }
      ],
      "stateMutability": "view",
      "type": "function",
      "constant": true
    },
    {
      "inputs": [
        {
          "internalType": "address",
          "name": "_address",
          "type": "address"
        }
      ],
      "name": "isToken",
      "outputs": [
        {
          "internalType": "bool",
          "name": "",
          "type": "bool"
        }
      ],
      "stateMutability": "view",
      "type": "function",
      "constant": true
    }
  ],
  "bytecode": "0x608060405234801561001057600080fd5b5061001a3361002c565b6003805460ff1916600117905561007c565b600080546001600160a01b038381166001600160a01b0319831681178455604051919092169283917f8be0079c531659141344cd1fd0a4f28419497f9722a3daafe3b4186f6b6457e09190a35050565b612d338061008b6000396000f3fe60806040523480156200001157600080fd5b5060043610620000c35760003560e01c8063840e78fd116200007a578063840e78fd146200016b5780638da5cb5b1462000192578063adf07fa814620001ae578063b7c58d7a14620001bc578063b8da41f914620001d3578063f2fde38b14620001eb57600080fd5b806308af4d8814620000c85780631627905514620000e157806319f37361146200010d578063224b06bd14620001245780634120657a146200013b578063715018a61462000161575b600080fd5b620000df620000d936600462000973565b62000202565b005b620000f8620000f236600462000973565b3b151590565b60405190151581526020015b60405180910390f35b620000f86200011e36600462000973565b62000257565b620000df6200013536600462000a0d565b6200042e565b620000f86200014c36600462000973565b60026020526000908152604090205460ff1681565b620000df620006fa565b620001826200017c36600462000973565b62000712565b6040516200010492919062000b0f565b6000546040516001600160a01b03909116815260200162000104565b600354620000f89060ff1681565b620000df620001cd36600462000973565b620007c7565b620000df6003805460ff19811660ff90911615179055565b620000df620001fc36600462000973565b6200081d565b6200020c6200089c565b6001600160a01b03811660009081526002602052604090205460ff16156200023357600080fd5b6001600160a01b03166000908152600260205260409020805460ff19166001179055565b6040516370a0823160e01b8152336004820152600090829082906001600160a01b038316906370a0823190602401602060405180830381865afa158015620002a3573d6000803e3d6000fd5b505050506040513d601f19601f82011682018060405250810190620002c9919062000b3b565b1015620003145760405162461bcd60e51b81526020600482015260146024820152731b595d1a1bd908191bd95cdb89dd08195e1a5cdd60621b60448201526064015b60405180910390fd5b6000816001600160a01b03166318160ddd6040518163ffffffff1660e01b8152600401602060405180830381865afa15801562000355573d6000803e3d6000fd5b505050506040513d601f19601f820116820180604052508101906200037b919062000b3b565b11620003b85760405162461bcd60e51b815260206004820152600b60248201526a0537570706c7920697320360ac1b60448201526064016200030b565b6000816001600160a01b03166306fdde036040518163ffffffff1660e01b8152600401600060405180830381865afa158015620003f9573d6000803e3d6000fd5b505050506040513d6000823e601f3d908101601f1916820160405262000423919081019062000b55565b511515949350505050565b60035460ff1662000498573360009081526002602052604090205460ff161515600114620004985760405162461bcd60e51b81526020600482015260166024820152751059191c995cdcc81a5cc81b9bdd08185b1b1bddd95960521b60448201526064016200030b565b600084848484604051620004ac9062000948565b620004bb949392919062000bd5565b604051809103906000f080158015620004d8573d6000803e3d6000fd5b5090506001600160a01b0381166200052b5760405162461bcd60e51b81526020600482015260156024820152740616464726573732063616e6e6f742062652030783605c1b60448201526064016200030b565b60405163f2fde38b60e01b81523360048201526001600160a01b0382169063f2fde38b90602401600060405180830381600087803b1580156200056d57600080fd5b505af115801562000582573d6000803e3d6000fd5b505050506001600160a01b038116600090815260016020526040902080620005ab848262000c9d565b50818160010160006101000a8154816001600160a01b0302191690836001600160a01b0316021790555060008490507f9bf072edfb6b558ebf0f6c8f312ffea6af006bdceb5ca2da5cf73d2b858777638333868a8a8a876001600160a01b03166306fdde036040518163ffffffff1660e01b8152600401600060405180830381865afa15801562000640573d6000803e3d6000fd5b505050506040513d6000823e601f3d908101601f191682016040526200066a919081019062000b55565b886001600160a01b03166395d89b416040518163ffffffff1660e01b8152600401600060405180830381865afa158015620006a9573d6000803e3d6000fd5b505050506040513d6000823e601f3d908101601f19168201604052620006d3919081019062000b55565b604051620006e998979695949392919062000d6a565b60405180910390a150505050505050565b620007046200089c565b620007106000620008f8565b565b6001602052600090815260409020805481906200072f9062000c0e565b80601f01602080910402602001604051908101604052809291908181526020018280546200075d9062000c0e565b8015620007ae5780601f106200078257610100808354040283529160200191620007ae565b820191906000526020600020905b8154815290600101906020018083116200079057829003601f168201915b505050600190930154919250506001600160a01b031682565b620007d16200089c565b6001600160a01b03811660009081526002602052604090205460ff161515600114620007fc57600080fd5b6001600160a01b03166000908152600260205260409020805460ff19169055565b620008276200089c565b6001600160a01b0381166200088e5760405162461bcd60e51b815260206004820152602660248201527f4f776e61626c653a206e6577206f776e657220697320746865207a65726f206160448201526564647265737360d01b60648201526084016200030b565b6200089981620008f8565b50565b6000546001600160a01b03163314620007105760405162461bcd60e51b815260206004820181905260248201527f4f776e61626c653a2063616c6c6572206973206e6f7420746865206f776e657260448201526064016200030b565b600080546001600160a01b038381166001600160a01b0319831681178455604051919092169283917f8be0079c531659141344cd1fd0a4f28419497f9722a3daafe3b4186f6b6457e09190a35050565b611f138062000deb83390190565b80356001600160a01b03811681146200096e57600080fd5b919050565b6000602082840312156200098657600080fd5b620009918262000956565b9392505050565b634e487b7160e01b600052604160045260246000fd5b604051601f8201601f1916810167ffffffffffffffff81118282101715620009da57620009da62000998565b604052919050565b600067ffffffffffffffff821115620009ff57620009ff62000998565b50601f01601f191660200190565b6000806000806080858703121562000a2457600080fd5b843593506020850135925062000a3d6040860162000956565b9150606085013567ffffffffffffffff81111562000a5a57600080fd5b8501601f8101871362000a6c57600080fd5b803562000a8362000a7d82620009e2565b620009ae565b81815288602083850101111562000a9957600080fd5b8160208401602083013760006020838301015280935050505092959194509250565b60005b8381101562000ad857818101518382015260200162000abe565b50506000910152565b6000815180845262000afb81602086016020860162000abb565b601f01601f19169290920160200192915050565b60408152600062000b24604083018562000ae1565b905060018060a01b03831660208301529392505050565b60006020828403121562000b4e57600080fd5b5051919050565b60006020828403121562000b6857600080fd5b815167ffffffffffffffff81111562000b8057600080fd5b8201601f8101841362000b9257600080fd5b805162000ba362000a7d82620009e2565b81815285602083850101111562000bb957600080fd5b62000bcc82602083016020860162000abb565b95945050505050565b84815283602082015260018060a01b038316604082015260806060820152600062000c04608083018462000ae1565b9695505050505050565b600181811c9082168062000c2357607f821691505b60208210810362000c4457634e487b7160e01b600052602260045260246000fd5b50919050565b601f82111562000c9857600081815260208120601f850160051c8101602086101562000c735750805b601f850160051c820191505b8181101562000c945782815560010162000c7f565b5050505b505050565b815167ffffffffffffffff81111562000cba5762000cba62000998565b62000cd28162000ccb845462000c0e565b8462000c4a565b602080601f83116001811462000d0a576000841562000cf15750858301515b600019600386901b1c1916600185901b17855562000c94565b600085815260208120601f198616915b8281101562000d3b5788860151825594840194600190910190840162000d1a565b508582101562000d5a5787850151600019600388901b60f8161c191681555b5050505050600190811b01905550565b6001600160a01b03898116825288811660208301526101006040830181905260009162000d9a8483018b62000ae1565b915088606085015287608085015280871660a08501525082810360c084015262000dc5818662000ae1565b905082810360e084015262000ddb818562000ae1565b9b9a505050505050505050505056fe60806040523480156200001157600080fd5b5060405162001f1338038062001f1383398101604081905262000034916200048f565b6200003f336200019e565b428311620000945760405162461bcd60e51b815260206004820152601e60248201527f446561646c696e65206d75737420626520696e2074686520667574757265000060448201526064015b60405180910390fd5b6200009f82620001ee565b620000ed5760405162461bcd60e51b815260206004820152601d60248201527f416464726573732070726f7669646564206973206e6f7420746f6b656e00000060448201526064016200008b565b813b620001485760405162461bcd60e51b815260206004820152602260248201527f416464726573732070726f7669646564206973206e6f74206120636f6e74726160448201526118dd60f21b60648201526084016200008b565b600462000156828262000593565b505060079290925560065560018054336001600160a01b0319918216179091556003805482166001600160a01b039093169283179055600280549091169091179055620006b9565b600080546001600160a01b038381166001600160a01b0319831681178455604051919092169283917f8be0079c531659141344cd1fd0a4f28419497f9722a3daafe3b4186f6b6457e09190a35050565b6040516370a0823160e01b8152336004820152600090829082906001600160a01b038316906370a0823190602401602060405180830381865afa1580156200023a573d6000803e3d6000fd5b505050506040513d601f19601f820116820180604052508101906200026091906200065f565b1015620002b05760405162461bcd60e51b815260206004820152601460248201527f6d6574686f6420646f65736e277420657869737400000000000000000000000060448201526064016200008b565b6000816001600160a01b03166318160ddd6040518163ffffffff1660e01b8152600401602060405180830381865afa158015620002f1573d6000803e3d6000fd5b505050506040513d601f19601f820116820180604052508101906200031791906200065f565b11620003545760405162461bcd60e51b815260206004820152600b60248201526a0537570706c7920697320360ac1b60448201526064016200008b565b6000816001600160a01b03166306fdde036040518163ffffffff1660e01b8152600401600060405180830381865afa15801562000395573d6000803e3d6000fd5b505050506040513d6000823e601f3d908101601f19168201604052620003bf919081019062000679565b511515949350505050565b634e487b7160e01b600052604160045260246000fd5b600082601f830112620003f257600080fd5b81516001600160401b03808211156200040f576200040f620003ca565b604051601f8301601f19908116603f011681019082821181831017156200043a576200043a620003ca565b816040528381526020925086838588010111156200045757600080fd5b600091505b838210156200047b57858201830151818301840152908201906200045c565b600093810190920192909252949350505050565b60008060008060808587031215620004a657600080fd5b84516020860151604087015191955093506001600160a01b0381168114620004cd57600080fd5b60608601519092506001600160401b03811115620004ea57600080fd5b620004f887828801620003e0565b91505092959194509250565b600181811c908216806200051957607f821691505b6020821081036200053a57634e487b7160e01b600052602260045260246000fd5b50919050565b601f8211156200058e57600081815260208120601f850160051c81016020861015620005695750805b601f850160051c820191505b818110156200058a5782815560010162000575565b5050505b505050565b81516001600160401b03811115620005af57620005af620003ca565b620005c781620005c0845462000504565b8462000540565b602080601f831160018114620005ff5760008415620005e65750858301515b600019600386901b1c1916600185901b1785556200058a565b600085815260208120601f198616915b8281101562000630578886015182559484019460019091019084016200060f565b50858210156200064f5787850151600019600388901b60f8161c191681555b5050505050600190811b01905550565b6000602082840312156200067257600080fd5b5051919050565b6000602082840312156200068c57600080fd5b81516001600160401b03811115620006a357600080fd5b620006b184828501620003e0565b949350505050565b61184a80620006c96000396000f3fe608060405234801561001057600080fd5b50600436106101cf5760003560e01c8063715018a611610104578063c1cbbca7116100a2578063f2fde38b11610071578063f2fde38b14610432578063f851a44014610445578063f8b3a2c414610458578063fc0c546a1461046157600080fd5b8063c1cbbca7146103ea578063c59ee1dc146103fd578063d42c48d114610406578063ee6f5afc1461042c57600080fd5b80639d76ea58116100de5780639d76ea58146103a35780639fb42b1f146103b6578063a43b6fff146103bf578063b2d5ae44146103e257600080fd5b8063715018a61461036557806381d12c581461036d5780638da5cb5b1461039257600080fd5b8063379248e2116101715780634cb6f4a51161014b5780634cb6f4a5146102f25780634e260f6f1461030557806355e1dedf1461030e5780635b8575a91461032157600080fd5b8063379248e2146102b157806340193883146102d45780634a79d50c146102dd57600080fd5b80631b16bb5c116101ad5780631b16bb5c146102425780631f6d49421461025757806329dcb0cf146102855780632f0829f71461028e57600080fd5b806316279055146101d4578063180b7138146101fd57806319f373611461022f575b600080fd5b6101e86101e2366004611388565b3b151590565b60405190151581526020015b60405180910390f35b61021061020b3660046113aa565b610474565b604080516001600160a01b0390931683526020830191909152016101f4565b6101e861023d366004611388565b6106cf565b610255610250366004611432565b610895565b005b610277610265366004611388565b600c6020526000908152604090205481565b6040519081526020016101f4565b61027760065481565b61027761029c3660046113aa565b6000908152600b602052604090206002015490565b6102776102bf3660046113aa565b6000908152600b602052604090206005015490565b61027760075481565b6102e5610a00565b6040516101f4919061151c565b6102556103003660046113aa565b610a8e565b61027760055481565b6102e561031c3660046113aa565b610d20565b61034d61032f3660046113aa565b6000908152600b60205260409020600101546001600160a01b031690565b6040516001600160a01b0390911681526020016101f4565b610255610dc2565b61038061037b3660046113aa565b610dd6565b6040516101f49695949392919061152f565b6000546001600160a01b031661034d565b60025461034d906001600160a01b031681565b610277600a5481565b6102776103cd3660046113aa565b6000908152600b602052604090206004015490565b610277610ea0565b6102556103f83660046113aa565b611082565b61027760085481565b6101e86104143660046113aa565b6000908152600b602052604090206003015460ff1690565b42610277565b610255610440366004611388565b611249565b60015461034d906001600160a01b031681565b61027760095481565b60035461034d906001600160a01b031681565b60008061047f6112c2565b60075460085410156104f05760405162461bcd60e51b815260206004820152602f60248201527f726169736564416d6f756e74206d757374206265206d6f7265207468616e206f60448201526e1c88195c5d585b081d1bc819dbd85b608a1b60648201526084015b60405180910390fd5b6000838152600b60205260409020600381015460ff16156105535760405162461bcd60e51b815260206004820152601f60248201527f546865207265717565737420686173206265656e20636f6d706c657465642e0060448201526064016104e7565b60008160050154600754610567919061158a565b9050600281106105c95760405162461bcd60e51b815260206004820152602760248201527f76616c7565206f6620766f746573206661696c20746f206d65657420726571756044820152661a5c995b595b9d60ca1b60648201526084016104e7565b6001820154600283015460035460405163a9059cbb60e01b81526001600160a01b039384166004820181905260248201849052939091169063a9059cbb906044016020604051808303816000875af1158015610629573d6000803e3d6000fd5b505050506040513d601f19601f8201168201806040525081019061064d91906115ac565b5060038401805460ff19166001179055604080513381526001600160a01b0384166020820152908101829052606081018890527fe8865f6295f774cc1f85678223321412003260525398a1d46e5e884a0f694a739060800160405180910390a150505060018101546002909101546001600160a01b0390911692509050915091565b6040516370a0823160e01b8152336004820152600090829082906001600160a01b038316906370a0823190602401602060405180830381865afa15801561071a573d6000803e3d6000fd5b505050506040513d601f19601f8201168201806040525081019061073e91906115ce565b10156107835760405162461bcd60e51b81526020600482015260146024820152731b595d1a1bd908191bd95cdb89dd08195e1a5cdd60621b60448201526064016104e7565b6000816001600160a01b03166318160ddd6040518163ffffffff1660e01b8152600401602060405180830381865afa1580156107c3573d6000803e3d6000fd5b505050506040513d601f19601f820116820180604052508101906107e791906115ce565b116108225760405162461bcd60e51b815260206004820152600b60248201526a0537570706c7920697320360ac1b60448201526064016104e7565b6000816001600160a01b03166306fdde036040518163ffffffff1660e01b8152600401600060405180830381865afa158015610862573d6000803e3d6000fd5b505050506040513d6000823e601f3d908101601f1916820160405261088a91908101906115e7565b511515949350505050565b61089d6112c2565b6008541561093857600854816009546108b6919061165e565b11156109385760405162461bcd60e51b815260206004820152604560248201527f54686973207472616e73616374696f6e2077696c6c20636175736520746f746160448201527f6c52657175657374416d6f756e7420746f2065786365656420726169736564416064820152641b5bdd5b9d60da1b608482015260a4016104e7565b600a80546000818152600b602052604081209192839161095783611677565b909155508190506109688682611719565b506001810180546001600160a01b0319166001600160a01b0386161790556002810183905560038101805460ff19169055600060048201819055600980548592906109b490849061165e565b90915550506040517f6fbbe1619a744707cabdefa8c81690a643c946e64fd595a1126aa6d4bc27bba1906109f190849033908990899089906117d9565b60405180910390a15050505050565b60048054610a0d90611690565b80601f0160208091040260200160405190810160405280929190818152602001828054610a3990611690565b8015610a865780601f10610a5b57610100808354040283529160200191610a86565b820191906000526020600020905b815481529060010190602001808311610a6957829003601f168201915b505050505081565b80600a541015610ae05760405162461bcd60e51b815260206004820152601760248201527f5265717565737420646f6573206e6f742065786973742e00000000000000000060448201526064016104e7565b6000546001600160a01b03163303610b555760405162461bcd60e51b815260206004820152603260248201527f417320746865206f776e65722c206e6f7420616c6c6f77656420746f20766f746044820152711948199bdc881d1a1a5cc81c995c5d595cdd60721b60648201526084016104e7565b336000908152600c6020526040902054610bbc5760405162461bcd60e51b815260206004820152602260248201527f596f75206d757374206265206120636f6e7472696275746f7220746f20766f74604482015261652160f01b60648201526084016104e7565b6000818152600b60209081526040808320338452600681019092529091205460ff1615610c245760405162461bcd60e51b8152602060048201526016602482015275165bdd481a185d9948185b1c9958591e481d9bdd195960521b60448201526064016104e7565b60018101546001600160a01b0316610c7e5760405162461bcd60e51b815260206004820152601e60248201527f5265717565737420686173206e6f74206265656e20696e69746961746564000060448201526064016104e7565b336000908152600c602052604081205460058301805491928392610ca390849061165e565b9091555050600482018054906000610cba83611677565b9091555050336000818152600684016020908152604091829020805460ff191660011790558151928352820185905281018290527fcd200ea5ac0e92a5a67c5c682507511ae3086a331d103afb7eea291ae430d5999060600160405180910390a1505050565b6000818152600b60205260409020805460609190610d3d90611690565b80601f0160208091040260200160405190810160405280929190818152602001828054610d6990611690565b8015610db65780601f10610d8b57610100808354040283529160200191610db6565b820191906000526020600020905b815481529060010190602001808311610d9957829003601f168201915b50505050509050919050565b610dca6112c2565b610dd4600061131c565b565b600b60205260009081526040902080548190610df190611690565b80601f0160208091040260200160405190810160405280929190818152602001828054610e1d90611690565b8015610e6a5780601f10610e3f57610100808354040283529160200191610e6a565b820191906000526020600020905b815481529060010190602001808311610e4d57829003601f168201915b505050600184015460028501546003860154600487015460059097015495966001600160a01b039093169591945060ff16925086565b6000600654421015610ef45760405162461bcd60e51b815260206004820152601760248201527f446561646c696e6520686173206e6f742070617373656400000000000000000060448201526064016104e7565b60075460085410610f475760405162461bcd60e51b815260206004820152601f60248201527f52616973656420616d6f756e74206973206d6f7265207468616e20676f616c0060448201526064016104e7565b336000908152600c6020526040902054610fa35760405162461bcd60e51b815260206004820152601c60248201527f596f75206e65656420746f206265206120636f6e7472696275746f720000000060448201526064016104e7565b336000818152600c60205260408082208054929055600354905163a9059cbb60e01b815260048101939093526024830182905290916001600160a01b039091169063a9059cbb906044016020604051808303816000875af115801561100c573d6000803e3d6000fd5b505050506040513d601f19601f8201168201806040525081019061103091906115ac565b50600354604080513381526001600160a01b03909216602083015281018290527ff7f394ee65e37c78e595ee4c8675e3832dff9a6cfc6a2c7405e3689f2a714c539060600160405180910390a1919050565b600354604051636eb1769f60e11b815233600482015230602482015282916001600160a01b03169063dd62ed3e90604401602060405180830381865afa1580156110d0573d6000803e3d6000fd5b505050506040513d601f19601f820116820180604052508101906110f491906115ce565b10156111425760405162461bcd60e51b815260206004820152601860248201527f746f6b656e207370656e64206e6f7420617070726f766564000000000000000060448201526064016104e7565b336000908152600c60205260408120549003611162576005805460010190555b6003546040516323b872dd60e01b8152336004820152306024820152604481018390526001600160a01b03909116906323b872dd906064016020604051808303816000875af11580156111b9573d6000803e3d6000fd5b505050506040513d601f19601f820116820180604052508101906111dd91906115ac565b50336000818152600c6020908152604091829020805485019055600880548501905560025482519384526001600160a01b03169083015281018290527f630c9eb89085cfe993245c555e78df45b0b8e8f31f411ddc400727738d9648349060600160405180910390a150565b6112516112c2565b6001600160a01b0381166112b65760405162461bcd60e51b815260206004820152602660248201527f4f776e61626c653a206e6577206f776e657220697320746865207a65726f206160448201526564647265737360d01b60648201526084016104e7565b6112bf8161131c565b50565b6000546001600160a01b03163314610dd45760405162461bcd60e51b815260206004820181905260248201527f4f776e61626c653a2063616c6c6572206973206e6f7420746865206f776e657260448201526064016104e7565b600080546001600160a01b038381166001600160a01b0319831681178455604051919092169283917f8be0079c531659141344cd1fd0a4f28419497f9722a3daafe3b4186f6b6457e09190a35050565b80356001600160a01b038116811461138357600080fd5b919050565b60006020828403121561139a57600080fd5b6113a38261136c565b9392505050565b6000602082840312156113bc57600080fd5b5035919050565b634e487b7160e01b600052604160045260246000fd5b604051601f8201601f1916810167ffffffffffffffff81118282101715611402576114026113c3565b604052919050565b600067ffffffffffffffff821115611424576114246113c3565b50601f01601f191660200190565b60008060006060848603121561144757600080fd5b833567ffffffffffffffff81111561145e57600080fd5b8401601f8101861361146f57600080fd5b803561148261147d8261140a565b6113d9565b81815287602083850101111561149757600080fd5b816020840160208301376000602083830101528095505050506114bc6020850161136c565b9150604084013590509250925092565b60005b838110156114e75781810151838201526020016114cf565b50506000910152565b600081518084526115088160208601602086016114cc565b601f01601f19169290920160200192915050565b6020815260006113a360208301846114f0565b60c08152600061154260c08301896114f0565b6001600160a01b039790971660208301525060408101949094529115156060840152608083015260a090910152919050565b634e487b7160e01b600052601160045260246000fd5b6000826115a757634e487b7160e01b600052601260045260246000fd5b500490565b6000602082840312156115be57600080fd5b815180151581146113a357600080fd5b6000602082840312156115e057600080fd5b5051919050565b6000602082840312156115f957600080fd5b815167ffffffffffffffff81111561161057600080fd5b8201601f8101841361162157600080fd5b805161162f61147d8261140a565b81815285602083850101111561164457600080fd5b6116558260208301602086016114cc565b95945050505050565b8082018082111561167157611671611574565b92915050565b60006001820161168957611689611574565b5060010190565b600181811c908216806116a457607f821691505b6020821081036116c457634e487b7160e01b600052602260045260246000fd5b50919050565b601f82111561171457600081815260208120601f850160051c810160208610156116f15750805b601f850160051c820191505b81811015611710578281556001016116fd565b5050505b505050565b815167ffffffffffffffff811115611733576117336113c3565b611747816117418454611690565b846116ca565b602080601f83116001811461177c57600084156117645750858301515b600019600386901b1c1916600185901b178555611710565b600085815260208120601f198616915b828110156117ab5788860151825594840194600190910190840161178c565b50858210156117c95787850151600019600388901b60f8161c191681555b5050505050600190811b01905550565b858152600060018060a01b03808716602084015260a0604084015261180160a08401876114f0565b941660608301525060800152939250505056fea264697066735822122025fabc53a3b8b63f746495e126130763dd34834d423e7019dec7b87136a4454e64736f6c63430008130033a26469706673582212207827520d9d77b80dca5ca370d761d29a5fe538cb8540ed489341b5a9d3bb7ffb64736f6c63430008130033",
  "immutableReferences": {},
  "source": "//SPDX-License-Identifier: GPL-3.0\r\n\r\npragma solidity ^0.8.0;\r\n\r\nimport \"./Crowdfunding.sol\";\r\n\r\ncontract CrowdfundingFactory is Ownable {\r\n    mapping(address => ProjectDetails) public projects;\r\n    mapping(address => bool) public allowedAddresses;\r\n    bool public isFreeForAll;\r\n\r\n    struct ProjectDetails {\r\n        string title;\r\n        Crowdfunding project;\r\n    }\r\n\r\n    event CreateNewProjectEvent(\r\n        address _projectAddress,\r\n        address _projectCreator,\r\n        string _title,\r\n        uint _goal,\r\n        uint _deadline,\r\n        address _tokenUsed,\r\n        string tokenName,\r\n        string tokenSymbol\r\n    );\r\n\r\n    constructor() {\r\n        isFreeForAll = true;\r\n    }\r\n\r\n    function createNewProject(\r\n        uint _goal,\r\n        uint _deadline,\r\n        address _acceptingThisToken,\r\n        string memory _title\r\n    ) public {\r\n        if (!isFreeForAll) {\r\n            require(\r\n                allowedAddresses[msg.sender] == true,\r\n                \"Address is not allowed\"\r\n            );\r\n        }\r\n\r\n        Crowdfunding crowdfunding = new Crowdfunding(\r\n            _goal,\r\n            _deadline,\r\n            _acceptingThisToken,\r\n            _title\r\n        );\r\n\r\n        require(address(crowdfunding) != address(0), \"address cannot be 0x0\");\r\n        crowdfunding.transferOwnership(msg.sender);\r\n\r\n        ProjectDetails storage newProject = projects[address(crowdfunding)];\r\n\r\n        newProject.title = _title;\r\n        newProject.project = crowdfunding;\r\n        IERC20Metadata token = IERC20Metadata(_acceptingThisToken);\r\n\r\n        emit CreateNewProjectEvent(\r\n            address(crowdfunding),\r\n            msg.sender,\r\n            _title,\r\n            _goal,\r\n            _deadline,\r\n            _acceptingThisToken,\r\n            token.name(),\r\n            token.symbol()\r\n        );\r\n    }\r\n\r\n    function allowAddress(address _allowThisAddress) public onlyOwner {\r\n        require(allowedAddresses[_allowThisAddress] == false);\r\n        allowedAddresses[_allowThisAddress] = true;\r\n    }\r\n\r\n    function disallowAddress(address _disallowThisAddress) public onlyOwner {\r\n        require(allowedAddresses[_disallowThisAddress] == true);\r\n        allowedAddresses[_disallowThisAddress] = false;\r\n    }\r\n\r\n    function toggleFreeForAll() public {\r\n        isFreeForAll = !isFreeForAll;\r\n    }\r\n\r\n    function isContract(address _address) public view returns (bool) {\r\n        uint size;\r\n        assembly {\r\n            size := extcodesize(_address)\r\n        }\r\n        return size > 0;\r\n    }\r\n\r\n    function isToken(address _address) public view returns (bool) {\r\n        ERC20 testAddress = ERC20(_address);\r\n        require(testAddress.balanceOf(msg.sender) >= 0, \"method doesn't exist\");\r\n        require(testAddress.totalSupply() > 0, \"Supply is 0\");\r\n        bytes memory _testString = bytes(testAddress.name());\r\n\r\n        return _testString.length > 0;\r\n    }\r\n}\r\n",
  "sourcePath": "C:\\Users\\kimwu\\Desktop\\TFIP-NUS\\proj\\truffle\\contracts\\CrowdfundingFactory.sol",
  "compiler": {
    "name": "solc",
    "version": "0.8.19+commit.7dd6d404.Emscripten.clang"
  },
  "schemaVersion": "3.4.13",
  "updatedAt": "2023-05-20T04:31:26.822Z",
  "networkType": "ethereum",
  "devdoc": {
    "kind": "dev",
    "methods": {
      "owner()": {
        "details": "Returns the address of the current owner."
      },
      "renounceOwnership()": {
        "details": "Leaves the contract without owner. It will not be possible to call `onlyOwner` functions anymore. Can only be called by the current owner. NOTE: Renouncing ownership will leave the contract without an owner, thereby removing any functionality that is only available to the owner."
      },
      "transferOwnership(address)": {
        "details": "Transfers ownership of the contract to a new account (`newOwner`). Can only be called by the current owner."
      }
    },
    "version": 1
  },
  "userdoc": {
    "kind": "user",
    "methods": {},
    "version": 1
  }
}