{
  "contractName": "Crowdfunding",
  "abi": [
    {
      "inputs": [
        {
          "internalType": "address",
          "name": "_crowdfundingFactory",
          "type": "address"
        },
        {
          "internalType": "uint256",
          "name": "_goal",
          "type": "uint256"
        },
        {
          "internalType": "uint256",
          "name": "_deadline",
          "type": "uint256"
        },
        {
          "internalType": "address",
          "name": "_acceptingThisToken",
          "type": "address"
        }
      ],
      "stateMutability": "nonpayable",
      "type": "constructor"
    },
    {
      "anonymous": false,
      "inputs": [
        {
          "indexed": true,
          "internalType": "address",
          "name": "previousOwner",
          "type": "address"
        },
        {
          "indexed": true,
          "internalType": "address",
          "name": "newOwner",
          "type": "address"
        }
      ],
      "name": "OwnershipTransferred",
      "type": "event"
    },
    {
      "inputs": [],
      "name": "admin",
      "outputs": [
        {
          "internalType": "address",
          "name": "",
          "type": "address"
        }
      ],
      "stateMutability": "view",
      "type": "function"
    },
    {
      "inputs": [
        {
          "internalType": "address",
          "name": "",
          "type": "address"
        }
      ],
      "name": "contributers",
      "outputs": [
        {
          "internalType": "uint256",
          "name": "",
          "type": "uint256"
        }
      ],
      "stateMutability": "view",
      "type": "function"
    },
    {
      "inputs": [],
      "name": "crowdfundingFactory",
      "outputs": [
        {
          "internalType": "address",
          "name": "",
          "type": "address"
        }
      ],
      "stateMutability": "view",
      "type": "function"
    },
    {
      "inputs": [],
      "name": "deadline",
      "outputs": [
        {
          "internalType": "uint256",
          "name": "",
          "type": "uint256"
        }
      ],
      "stateMutability": "view",
      "type": "function"
    },
    {
      "inputs": [],
      "name": "goal",
      "outputs": [
        {
          "internalType": "uint256",
          "name": "",
          "type": "uint256"
        }
      ],
      "stateMutability": "view",
      "type": "function"
    },
    {
      "inputs": [],
      "name": "minimumContribution",
      "outputs": [
        {
          "internalType": "uint256",
          "name": "",
          "type": "uint256"
        }
      ],
      "stateMutability": "view",
      "type": "function"
    },
    {
      "inputs": [],
      "name": "noOfContributors",
      "outputs": [
        {
          "internalType": "uint256",
          "name": "",
          "type": "uint256"
        }
      ],
      "stateMutability": "view",
      "type": "function"
    },
    {
      "inputs": [],
      "name": "numRequests",
      "outputs": [
        {
          "internalType": "uint256",
          "name": "",
          "type": "uint256"
        }
      ],
      "stateMutability": "view",
      "type": "function"
    },
    {
      "inputs": [],
      "name": "owner",
      "outputs": [
        {
          "internalType": "address",
          "name": "",
          "type": "address"
        }
      ],
      "stateMutability": "view",
      "type": "function"
    },
    {
      "inputs": [],
      "name": "raisedAmount",
      "outputs": [
        {
          "internalType": "uint256",
          "name": "",
          "type": "uint256"
        }
      ],
      "stateMutability": "view",
      "type": "function"
    },
    {
      "inputs": [],
      "name": "renounceOwnership",
      "outputs": [],
      "stateMutability": "nonpayable",
      "type": "function"
    },
    {
      "inputs": [
        {
          "internalType": "uint256",
          "name": "",
          "type": "uint256"
        }
      ],
      "name": "requests",
      "outputs": [
        {
          "internalType": "string",
          "name": "title",
          "type": "string"
        },
        {
          "internalType": "address",
          "name": "recipient",
          "type": "address"
        },
        {
          "internalType": "uint256",
          "name": "amount",
          "type": "uint256"
        },
        {
          "internalType": "bool",
          "name": "completed",
          "type": "bool"
        },
        {
          "internalType": "uint256",
          "name": "noOfVoters",
          "type": "uint256"
        },
        {
          "internalType": "uint256",
          "name": "valueOfVotes",
          "type": "uint256"
        }
      ],
      "stateMutability": "view",
      "type": "function"
    },
    {
      "inputs": [],
      "name": "token",
      "outputs": [
        {
          "internalType": "contract IERC20",
          "name": "",
          "type": "address"
        }
      ],
      "stateMutability": "view",
      "type": "function"
    },
    {
      "inputs": [],
      "name": "tokenAddress",
      "outputs": [
        {
          "internalType": "address",
          "name": "",
          "type": "address"
        }
      ],
      "stateMutability": "view",
      "type": "function"
    },
    {
      "inputs": [
        {
          "internalType": "address",
          "name": "newOwner",
          "type": "address"
        }
      ],
      "name": "transferOwnership",
      "outputs": [],
      "stateMutability": "nonpayable",
      "type": "function"
    },
    {
      "inputs": [
        {
          "internalType": "uint256",
          "name": "amount",
          "type": "uint256"
        },
        {
          "internalType": "address",
          "name": "caller",
          "type": "address"
        }
      ],
      "name": "contribute",
      "outputs": [
        {
          "internalType": "address",
          "name": "",
          "type": "address"
        }
      ],
      "stateMutability": "nonpayable",
      "type": "function"
    },
    {
      "inputs": [],
      "name": "getBalance",
      "outputs": [
        {
          "internalType": "uint256",
          "name": "",
          "type": "uint256"
        }
      ],
      "stateMutability": "view",
      "type": "function"
    },
    {
      "inputs": [
        {
          "internalType": "address",
          "name": "caller",
          "type": "address"
        }
      ],
      "name": "getRefund",
      "outputs": [
        {
          "internalType": "uint256",
          "name": "",
          "type": "uint256"
        }
      ],
      "stateMutability": "nonpayable",
      "type": "function"
    },
    {
      "inputs": [
        {
          "internalType": "string",
          "name": "_title",
          "type": "string"
        },
        {
          "internalType": "address",
          "name": "_recipient",
          "type": "address"
        },
        {
          "internalType": "uint256",
          "name": "_amount",
          "type": "uint256"
        }
      ],
      "name": "createRequest",
      "outputs": [
        {
          "internalType": "uint256",
          "name": "",
          "type": "uint256"
        }
      ],
      "stateMutability": "nonpayable",
      "type": "function"
    },
    {
      "inputs": [
        {
          "internalType": "uint256",
          "name": "_requestNo",
          "type": "uint256"
        },
        {
          "internalType": "address",
          "name": "caller",
          "type": "address"
        }
      ],
      "name": "voteRequest",
      "outputs": [
        {
          "internalType": "uint256",
          "name": "",
          "type": "uint256"
        }
      ],
      "stateMutability": "nonpayable",
      "type": "function"
    },
    {
      "inputs": [
        {
          "internalType": "uint256",
          "name": "_requestNo",
          "type": "uint256"
        }
      ],
      "name": "receiveContribution",
      "outputs": [
        {
          "internalType": "address",
          "name": "",
          "type": "address"
        },
        {
          "internalType": "uint256",
          "name": "",
          "type": "uint256"
        }
      ],
      "stateMutability": "nonpayable",
      "type": "function"
    },
    {
      "inputs": [
        {
          "internalType": "uint256",
          "name": "_requestNo",
          "type": "uint256"
        }
      ],
      "name": "getRequestTitle",
      "outputs": [
        {
          "internalType": "string",
          "name": "",
          "type": "string"
        }
      ],
      "stateMutability": "view",
      "type": "function"
    },
    {
      "inputs": [
        {
          "internalType": "uint256",
          "name": "_requestNo",
          "type": "uint256"
        }
      ],
      "name": "getRequestRecipient",
      "outputs": [
        {
          "internalType": "address",
          "name": "",
          "type": "address"
        }
      ],
      "stateMutability": "view",
      "type": "function"
    },
    {
      "inputs": [
        {
          "internalType": "uint256",
          "name": "_requestNo",
          "type": "uint256"
        }
      ],
      "name": "getRequestAmount",
      "outputs": [
        {
          "internalType": "uint256",
          "name": "",
          "type": "uint256"
        }
      ],
      "stateMutability": "view",
      "type": "function"
    },
    {
      "inputs": [
        {
          "internalType": "uint256",
          "name": "_requestNo",
          "type": "uint256"
        }
      ],
      "name": "getRequestCompleted",
      "outputs": [
        {
          "internalType": "bool",
          "name": "",
          "type": "bool"
        }
      ],
      "stateMutability": "view",
      "type": "function"
    },
    {
      "inputs": [
        {
          "internalType": "uint256",
          "name": "_requestNo",
          "type": "uint256"
        }
      ],
      "name": "getRequestNumOfVoters",
      "outputs": [
        {
          "internalType": "uint256",
          "name": "",
          "type": "uint256"
        }
      ],
      "stateMutability": "view",
      "type": "function"
    },
    {
      "inputs": [
        {
          "internalType": "uint256",
          "name": "_requestNo",
          "type": "uint256"
        }
      ],
      "name": "getRequestValueOfVotes",
      "outputs": [
        {
          "internalType": "uint256",
          "name": "",
          "type": "uint256"
        }
      ],
      "stateMutability": "view",
      "type": "function"
    }
  ],
  "bytecode": "0x6080604052620f4240600a553480156200001857600080fd5b506040516200196d3803806200196d8339810160408190526200003b91620003c4565b620000463362000167565b4282116200005357600080fd5b6200005e81620001b7565b620000b05760405162461bcd60e51b815260206004820152601d60248201527f416464726573732070726f7669646564206973206e6f7420746f6b656e00000060448201526064015b60405180910390fd5b803b6200010b5760405162461bcd60e51b815260206004820152602260248201527f416464726573732070726f7669646564206973206e6f74206120636f6e74726160448201526118dd60f21b6064820152608401620000a7565b600380546001600160a01b039586166001600160a01b0319918216179091556008939093556007919091556064600655600180548316331790556004805491909316908216811790925560028054909116909117905562000514565b600080546001600160a01b038381166001600160a01b0319831681178455604051919092169283917f8be0079c531659141344cd1fd0a4f28419497f9722a3daafe3b4186f6b6457e09190a35050565b6040516370a0823160e01b8152336004820152600090829082906001600160a01b038316906370a0823190602401602060405180830381865afa15801562000203573d6000803e3d6000fd5b505050506040513d601f19601f820116820180604052508101906200022991906200040f565b1015620002795760405162461bcd60e51b815260206004820152601460248201527f6d6574686f6420646f65736e27742065786973740000000000000000000000006044820152606401620000a7565b6000816001600160a01b03166318160ddd6040518163ffffffff1660e01b8152600401602060405180830381865afa158015620002ba573d6000803e3d6000fd5b505050506040513d601f19601f82011682018060405250810190620002e091906200040f565b116200031d5760405162461bcd60e51b815260206004820152600b60248201526a0537570706c7920697320360ac1b6044820152606401620000a7565b6000816001600160a01b03166306fdde036040518163ffffffff1660e01b8152600401600060405180830381865afa1580156200035e573d6000803e3d6000fd5b505050506040513d6000823e601f3d908101601f191682016040526200038891908101906200043f565b8051909150156200039d575060019392505050565b5060009392505050565b80516001600160a01b0381168114620003bf57600080fd5b919050565b60008060008060808587031215620003db57600080fd5b620003e685620003a7565b935060208501519250604085015191506200040460608601620003a7565b905092959194509250565b6000602082840312156200042257600080fd5b5051919050565b634e487b7160e01b600052604160045260246000fd5b600060208083850312156200045357600080fd5b82516001600160401b03808211156200046b57600080fd5b818501915085601f8301126200048057600080fd5b81518181111562000495576200049562000429565b604051601f8201601f19908116603f01168101908382118183101715620004c057620004c062000429565b816040528281528886848701011115620004d957600080fd5b600093505b82841015620004fd5784840186015181850187015292850192620004de565b600086848301015280965050505050505092915050565b61144980620005246000396000f3fe608060405234801561001057600080fd5b50600436106101a95760003560e01c806360b0b0f0116100f95780639fb42b1f11610097578063d42c48d111610071578063d42c48d1146103d0578063f2fde38b14610406578063f851a44014610419578063fc0c546a1461042c57600080fd5b80639fb42b1f1461039b578063a43b6fff146103a4578063c59ee1dc146103c757600080fd5b806381d12c58116100d357806381d12c58146103495780638da5cb5b1461036e578063937e09b11461037f5780639d76ea581461038857600080fd5b806360b0b0f014610319578063696c58c41461032c578063715018a61461033f57600080fd5b806334b66460116101665780634e260f6f116101405780634e260f6f146102b1578063537ec8ec146102ba57806355e1dedf146102cd5780635b8575a9146102ed57600080fd5b806334b6646014610265578063379248e21461028557806340193883146102a857600080fd5b806312065fe0146101ae578063180b7138146101c95780631b16bb5c146101fb578063232af2551461020e57806329dcb0cf146102395780632f0829f714610242575b600080fd5b6101b661043f565b6040519081526020015b60405180910390f35b6101dc6101d7366004610fc9565b6104b6565b604080516001600160a01b0390931683526020830191909152016101c0565b6101b6610209366004611014565b61071a565b600354610221906001600160a01b031681565b6040516001600160a01b0390911681526020016101c0565b6101b660075481565b6101b6610250366004610fc9565b6000908152600c602052604090206002015490565b6101b66102733660046110df565b600d6020526000908152604090205481565b6101b6610293366004610fc9565b6000908152600c602052604090206005015490565b6101b660085481565b6101b660055481565b6101b66102c8366004611101565b6107ce565b6102e06102db366004610fc9565b610a60565b6040516101c09190611173565b6102216102fb366004610fc9565b6000908152600c60205260409020600101546001600160a01b031690565b610221610327366004611101565b610b02565b6101b661033a3660046110df565b610cf2565b610347610dc8565b005b61035c610357366004610fc9565b610ddc565b6040516101c096959493929190611186565b6000546001600160a01b0316610221565b6101b660065481565b600254610221906001600160a01b031681565b6101b6600b5481565b6101b66103b2366004610fc9565b6000908152600c602052604090206004015490565b6101b660095481565b6103f66103de366004610fc9565b6000908152600c602052604090206003015460ff1690565b60405190151581526020016101c0565b6103476104143660046110df565b610ea6565b600154610221906001600160a01b031681565b600454610221906001600160a01b031681565b600480546040516370a0823160e01b815230928101929092526000916001600160a01b03909116906370a0823190602401602060405180830381865afa15801561048d573d6000803e3d6000fd5b505050506040513d601f19601f820116820180604052508101906104b191906111cb565b905090565b6000806104cb6000546001600160a01b031690565b6001600160a01b0316336001600160a01b031614806104f457506003546001600160a01b031633145b6105195760405162461bcd60e51b8152600401610510906111e4565b60405180910390fd5b60085460095410156105855760405162461bcd60e51b815260206004820152602f60248201527f726169736564416d6f756e74206d757374206265206d6f7265207468616e206f60448201526e1c88195c5d585b081d1bc819dbd85b608a1b6064820152608401610510565b6000838152600c60205260409020600381015460ff16156105e85760405162461bcd60e51b815260206004820152601f60248201527f546865207265717565737420686173206265656e20636f6d706c657465642e006044820152606401610510565b600a80546005919081906105fc9084611243565b610606919061125a565b8360050154116106685760405162461bcd60e51b815260206004820152602760248201527f76616c7565206f6620766f746573206661696c20746f206d65657420726571756044820152661a5c995b595b9d60ca1b6064820152608401610510565b600480546001850154600286015460405163a9059cbb60e01b81526001600160a01b03928316948101949094526024840152169063a9059cbb906044016020604051808303816000875af11580156106c4573d6000803e3d6000fd5b505050506040513d601f19601f820116820180604052508101906106e8919061127c565b50505060038101805460ff191660019081179091558101546002909101546001600160a01b0390911692509050915091565b600080546001600160a01b031633148061073e57506003546001600160a01b031633145b61075a5760405162461bcd60e51b8152600401610510906111e4565b600b80546000818152600c60205260408120919283916107798361129e565b9091555081905061078a8782611340565b506001810180546001600160a01b0387166001600160a01b03199091161790556002810184905560038101805460ff19169055600060049091015590509392505050565b600082600b5410156108225760405162461bcd60e51b815260206004820152601760248201527f5265717565737420646f6573206e6f742065786973742e0000000000000000006044820152606401610510565b6000546001600160a01b03166001600160a01b0316826001600160a01b03160361088e5760405162461bcd60e51b815260206004820181905260248201527f596f75277265206e6f7420616c6c6f77656420746f20636f6e747269627574656044820152606401610510565b6001600160a01b0382166000908152600d60205260409020546108fe5760405162461bcd60e51b815260206004820152602260248201527f596f75206d757374206265206120636f6e7472696275746f7220746f20766f74604482015261652160f01b6064820152608401610510565b6000838152600c602090815260408083206001600160a01b0386168452600681019092529091205460ff161561096f5760405162461bcd60e51b8152602060048201526016602482015275165bdd481a185d9948185b1c9958591e481d9bdd195960521b6044820152606401610510565b60018101546001600160a01b03166109c95760405162461bcd60e51b815260206004820152601e60248201527f5265717565737420686173206e6f74206265656e20696e6974696174656400006044820152606401610510565b600854600a546001600160a01b0385166000908152600d60205260408120549092916109f491611243565b6109fe919061125a565b905080826005016000828254610a149190611400565b9091555050600482018054906000610a2b8361129e565b90915550506001600160a01b038416600090815260069092016020526040909120805460ff1916600117905590505b92915050565b6000818152600c60205260409020805460609190610a7d906112b7565b80601f0160208091040260200160405190810160405280929190818152602001828054610aa9906112b7565b8015610af65780601f10610acb57610100808354040283529160200191610af6565b820191906000526020600020905b815481529060010190602001808311610ad957829003601f168201915b50505050509050919050565b6000600654831015610b565760405162461bcd60e51b815260206004820152601c60248201527f6d696e696d756d20636f6e747269627574696f6e206e6f74206d6574000000006044820152606401610510565b60048054604051636eb1769f60e11b81526001600160a01b038581169382019390935230602482015285929091169063dd62ed3e90604401602060405180830381865afa158015610bab573d6000803e3d6000fd5b505050506040513d601f19601f82011682018060405250810190610bcf91906111cb565b1015610c1d5760405162461bcd60e51b815260206004820152601860248201527f746f6b656e207370656e64206e6f7420617070726f76656400000000000000006044820152606401610510565b6001600160a01b0382166000908152600d60205260408120549003610c46576005805460010190555b600480546040516323b872dd60e01b81526001600160a01b0385811693820193909352306024820152604481018690529116906323b872dd906064016020604051808303816000875af1158015610ca1573d6000803e3d6000fd5b505050506040513d601f19601f82011682018060405250810190610cc5919061127c565b50506001600160a01b0381166000908152600d602052604090208054830190556009805490920190915590565b60006007544210158015610d095750600854600954105b610d1257600080fd5b6001600160a01b0382166000908152600d6020526040902054610d3457600080fd5b6001600160a01b038281166000818152600d6020526040808220805492905560048054915163a9059cbb60e01b815290810193909352602483018290529092169063a9059cbb906044016020604051808303816000875af1158015610d9d573d6000803e3d6000fd5b505050506040513d601f19601f82011682018060405250810190610dc1919061127c565b5092915050565b610dd0610f1f565b610dda6000610f79565b565b600c60205260009081526040902080548190610df7906112b7565b80601f0160208091040260200160405190810160405280929190818152602001828054610e23906112b7565b8015610e705780601f10610e4557610100808354040283529160200191610e70565b820191906000526020600020905b815481529060010190602001808311610e5357829003601f168201915b505050600184015460028501546003860154600487015460059097015495966001600160a01b039093169591945060ff16925086565b610eae610f1f565b6001600160a01b038116610f135760405162461bcd60e51b815260206004820152602660248201527f4f776e61626c653a206e6577206f776e657220697320746865207a65726f206160448201526564647265737360d01b6064820152608401610510565b610f1c81610f79565b50565b6000546001600160a01b03163314610dda5760405162461bcd60e51b815260206004820181905260248201527f4f776e61626c653a2063616c6c6572206973206e6f7420746865206f776e65726044820152606401610510565b600080546001600160a01b038381166001600160a01b0319831681178455604051919092169283917f8be0079c531659141344cd1fd0a4f28419497f9722a3daafe3b4186f6b6457e09190a35050565b600060208284031215610fdb57600080fd5b5035919050565b634e487b7160e01b600052604160045260246000fd5b80356001600160a01b038116811461100f57600080fd5b919050565b60008060006060848603121561102957600080fd5b833567ffffffffffffffff8082111561104157600080fd5b818601915086601f83011261105557600080fd5b81358181111561106757611067610fe2565b604051601f8201601f19908116603f0116810190838211818310171561108f5761108f610fe2565b816040528281528960208487010111156110a857600080fd5b8260208601602083013760006020848301015280975050505050506110cf60208501610ff8565b9150604084013590509250925092565b6000602082840312156110f157600080fd5b6110fa82610ff8565b9392505050565b6000806040838503121561111457600080fd5b8235915061112460208401610ff8565b90509250929050565b6000815180845260005b8181101561115357602081850181015186830182015201611137565b506000602082860101526020601f19601f83011685010191505092915050565b6020815260006110fa602083018461112d565b60c08152600061119960c083018961112d565b6001600160a01b039790971660208301525060408101949094529115156060840152608083015260a090910152919050565b6000602082840312156111dd57600080fd5b5051919050565b60208082526029908201527f596f7520617265206e65697468657220746865206f776e6572206e6f722074686040820152686520666163746f727960b81b606082015260800190565b634e487b7160e01b600052601160045260246000fd5b8082028115828204841417610a5a57610a5a61122d565b60008261127757634e487b7160e01b600052601260045260246000fd5b500490565b60006020828403121561128e57600080fd5b815180151581146110fa57600080fd5b6000600182016112b0576112b061122d565b5060010190565b600181811c908216806112cb57607f821691505b6020821081036112eb57634e487b7160e01b600052602260045260246000fd5b50919050565b601f82111561133b57600081815260208120601f850160051c810160208610156113185750805b601f850160051c820191505b8181101561133757828155600101611324565b5050505b505050565b815167ffffffffffffffff81111561135a5761135a610fe2565b61136e8161136884546112b7565b846112f1565b602080601f8311600181146113a3576000841561138b5750858301515b600019600386901b1c1916600185901b178555611337565b600085815260208120601f198616915b828110156113d2578886015182559484019460019091019084016113b3565b50858210156113f05787850151600019600388901b60f8161c191681555b5050505050600190811b01905550565b80820180821115610a5a57610a5a61122d56fea2646970667358221220c42c006814cd825b24044ce837b34b7cdd0dc9bf396e658d87ddaf35a20bf1bd64736f6c63430008130033",
  "immutableReferences": {},
  "source": "//SPDX-License-Identifier: GPL-3.0\r\n\r\npragma solidity ^0.8.0;\r\n\r\nimport \"@openzeppelin/contracts/token/ERC20/ERC20.sol\";\r\nimport \"@openzeppelin/contracts/token/ERC20/IERC20.sol\";\r\nimport \"@openzeppelin/contracts/access/Ownable.sol\";\r\n\r\ncontract Crowdfunding is Ownable {\r\n    address public admin;\r\n    address public tokenAddress;\r\n    address public crowdfundingFactory;\r\n\r\n    IERC20 public token;\r\n\r\n    uint public noOfContributors;\r\n    uint public minimumContribution;\r\n    uint public deadline;\r\n    uint public goal;\r\n    uint public raisedAmount;\r\n    uint decimals = 10 ** 6;\r\n\r\n    struct Request {\r\n        string title;\r\n        address recipient;\r\n        uint amount;\r\n        bool completed;\r\n        uint noOfVoters;\r\n        uint valueOfVotes;\r\n        mapping(address => bool) voters;\r\n    }\r\n    // cannot store Request in array as it contains mapping\r\n    // therefore use mapping\r\n    uint public numRequests;\r\n    mapping(uint => Request) public requests;\r\n    mapping(address => uint) public contributers;\r\n\r\n    // allows factory to call the functions here\r\n    modifier sharedOwner() {\r\n        require(\r\n            msg.sender == owner() || msg.sender == crowdfundingFactory,\r\n            \"You are neither the owner nor the factory\"\r\n        );\r\n        _;\r\n    }\r\n\r\n    constructor(\r\n        address _crowdfundingFactory,\r\n        uint _goal,\r\n        uint _deadline,\r\n        address _acceptingThisToken\r\n    ) {\r\n        require(_deadline > block.timestamp);\r\n        require(isToken(_acceptingThisToken), \"Address provided is not token\");\r\n        require(\r\n            isContract(_acceptingThisToken),\r\n            \"Address provided is not a contract\"\r\n        );\r\n        crowdfundingFactory = _crowdfundingFactory;\r\n        goal = _goal;\r\n        deadline = _deadline;\r\n        minimumContribution = 100;\r\n        admin = msg.sender;\r\n\r\n        token = IERC20(_acceptingThisToken);\r\n        tokenAddress = _acceptingThisToken;\r\n    }\r\n\r\n    function contribute(uint amount, address caller) public returns (address) {\r\n        // require(block.timestamp < deadline, \"Deadline has passed\");\r\n        require(amount >= minimumContribution, \"minimum contribution not met\");\r\n\r\n        require(\r\n            token.allowance(caller, address(this)) >= amount,\r\n            \"token spend not approved\"\r\n        );\r\n\r\n        if (contributers[caller] == 0) {\r\n            unchecked {\r\n                noOfContributors++;\r\n            }\r\n        }\r\n        token.transferFrom(caller, address(this), amount);\r\n        unchecked {\r\n            contributers[caller] += amount;\r\n            raisedAmount += amount;\r\n        }\r\n\r\n        return (caller);\r\n        // emit ContributeEvent(msg.sender, amount);\r\n    }\r\n\r\n    function getBalance() public view returns (uint) {\r\n        return token.balanceOf(address(this));\r\n    }\r\n\r\n    function getRefund(address caller) public returns (uint) {\r\n        require(block.timestamp >= deadline && raisedAmount < goal);\r\n        require(contributers[caller] > 0);\r\n\r\n        uint amount = contributers[caller];\r\n        contributers[caller] = 0;\r\n        token.transfer(caller, amount);\r\n        return amount;\r\n    }\r\n\r\n    function createRequest(\r\n        string memory _title,\r\n        address _recipient,\r\n        uint _amount\r\n    ) public sharedOwner returns (uint) {\r\n        uint requestNum = numRequests;\r\n        Request storage newRequest = requests[numRequests];\r\n        numRequests++;\r\n\r\n        newRequest.title = _title;\r\n        newRequest.recipient = _recipient;\r\n        newRequest.amount = _amount;\r\n        newRequest.completed = false;\r\n        newRequest.noOfVoters = 0;\r\n\r\n        return requestNum;\r\n    }\r\n\r\n    function voteRequest(\r\n        uint _requestNo,\r\n        address caller\r\n    ) public returns (uint) {\r\n        require(numRequests >= _requestNo, \"Request does not exist.\");\r\n\r\n        // owner of crowdfunding project cannot vote for their own requests\r\n        require(caller != owner(), \"You're not allowed to contribute\");\r\n\r\n        // must have contributed before voting\r\n        require(contributers[caller] > 0, \"You must be a contributor to vote!\");\r\n\r\n        Request storage thisRequest = requests[_requestNo];\r\n        require(thisRequest.voters[caller] == false, \"You have already voted\");\r\n        require(\r\n            thisRequest.recipient != address(0),\r\n            \"Request has not been initiated\"\r\n        );\r\n\r\n        // Ratio of the value of contribution by one user to the goal.\r\n        // The higher the contribution the more the proportion in comparison to the goal.\r\n        // Solidity has no float or double, therefore valueOfVotes is represents the ratio.\r\n        uint valueOfVote = (contributers[caller] * decimals) / goal;\r\n        thisRequest.valueOfVotes += valueOfVote;\r\n        thisRequest.noOfVoters++;\r\n        thisRequest.voters[caller] = true;\r\n        return valueOfVote;\r\n    }\r\n\r\n    function receiveContribution(\r\n        uint _requestNo\r\n    ) public sharedOwner returns (address, uint) {\r\n        require(\r\n            raisedAmount >= goal,\r\n            \"raisedAmount must be more than or equal to goal\"\r\n        );\r\n\r\n        Request storage thisRequest = requests[_requestNo];\r\n        require(\r\n            thisRequest.completed == false,\r\n            \"The request has been completed.\"\r\n        );\r\n\r\n        uint8 numerator = 5;\r\n        uint8 denominator = 10;\r\n        // value of votes more than 0.5 to pass\r\n        require(\r\n            thisRequest.valueOfVotes > (numerator * decimals) / denominator,\r\n            \"value of votes fail to meet requirement\"\r\n        );\r\n\r\n        token.transfer(thisRequest.recipient, uint(thisRequest.amount));\r\n        thisRequest.completed = true;\r\n        return (thisRequest.recipient, thisRequest.amount);\r\n    }\r\n\r\n    function getRequestTitle(\r\n        uint _requestNo\r\n    ) external view returns (string memory) {\r\n        return requests[_requestNo].title;\r\n    }\r\n\r\n    function getRequestRecipient(\r\n        uint _requestNo\r\n    ) external view returns (address) {\r\n        return requests[_requestNo].recipient;\r\n    }\r\n\r\n    function getRequestAmount(uint _requestNo) external view returns (uint) {\r\n        return requests[_requestNo].amount;\r\n    }\r\n\r\n    function getRequestCompleted(uint _requestNo) external view returns (bool) {\r\n        return requests[_requestNo].completed;\r\n    }\r\n\r\n    function getRequestNumOfVoters(\r\n        uint _requestNo\r\n    ) external view returns (uint) {\r\n        return requests[_requestNo].noOfVoters;\r\n    }\r\n\r\n    function getRequestValueOfVotes(\r\n        uint _requestNo\r\n    ) external view returns (uint) {\r\n        return requests[_requestNo].valueOfVotes;\r\n    }\r\n\r\n    function isContract(address _address) internal view returns (bool) {\r\n        uint size;\r\n        assembly {\r\n            size := extcodesize(_address)\r\n        }\r\n        return size > 0;\r\n    }\r\n\r\n    // this function will run at constructor\r\n    function isToken(address _address) internal view returns (bool) {\r\n        ERC20 testAddress = ERC20(_address);\r\n        require(testAddress.balanceOf(msg.sender) >= 0, \"method doesn't exist\");\r\n        require(testAddress.totalSupply() > 0, \"Supply is 0\");\r\n        bytes memory _testString = bytes(testAddress.name());\r\n\r\n        if (_testString.length > 0) return true;\r\n        return false;\r\n    }\r\n}\r\n",
  "sourcePath": "C:\\Users\\kimwu\\Desktop\\TFIP-NUS\\proj\\truffle\\contracts\\Crowdfunding.sol",
  "compiler": {
    "name": "solc",
    "version": "0.8.19+commit.7dd6d404.Emscripten.clang"
  },
  "schemaVersion": "3.4.13",
  "updatedAt": "2023-05-10T21:19:22.634Z",
  "networkType": "ethereum",
  "devdoc": {
    "kind": "dev",
    "methods": {
      "owner()": {
        "details": "Returns the address of the current owner."
      },
      "renounceOwnership()": {
        "details": "Leaves the contract without owner. It will not be possible to call `onlyOwner` functions anymore. Can only be called by the current owner. NOTE: Renouncing ownership will leave the contract without an owner, thereby removing any functionality that is only available to the owner."
      },
      "transferOwnership(address)": {
        "details": "Transfers ownership of the contract to a new account (`newOwner`). Can only be called by the current owner."
      }
    },
    "version": 1
  },
  "userdoc": {
    "kind": "user",
    "methods": {},
    "version": 1
  }
}