{
  "contractName": "CrowdfundingFactory",
  "abi": [
    {
      "inputs": [],
      "stateMutability": "nonpayable",
      "type": "constructor"
    },
    {
      "anonymous": false,
      "inputs": [
        {
          "indexed": false,
          "internalType": "address",
          "name": "_projectAddress",
          "type": "address"
        },
        {
          "indexed": false,
          "internalType": "address",
          "name": "_projectCreator",
          "type": "address"
        },
        {
          "indexed": false,
          "internalType": "string",
          "name": "_title",
          "type": "string"
        },
        {
          "indexed": false,
          "internalType": "uint256",
          "name": "_goal",
          "type": "uint256"
        },
        {
          "indexed": false,
          "internalType": "uint256",
          "name": "_deadline",
          "type": "uint256"
        },
        {
          "indexed": false,
          "internalType": "address",
          "name": "_tokenUsed",
          "type": "address"
        },
        {
          "indexed": false,
          "internalType": "string",
          "name": "tokenName",
          "type": "string"
        },
        {
          "indexed": false,
          "internalType": "string",
          "name": "tokenSymbol",
          "type": "string"
        }
      ],
      "name": "CreateNewProjectEvent",
      "type": "event"
    },
    {
      "anonymous": false,
      "inputs": [
        {
          "indexed": true,
          "internalType": "address",
          "name": "previousOwner",
          "type": "address"
        },
        {
          "indexed": true,
          "internalType": "address",
          "name": "newOwner",
          "type": "address"
        }
      ],
      "name": "OwnershipTransferred",
      "type": "event"
    },
    {
      "inputs": [
        {
          "internalType": "address",
          "name": "",
          "type": "address"
        }
      ],
      "name": "allowedAddresses",
      "outputs": [
        {
          "internalType": "bool",
          "name": "",
          "type": "bool"
        }
      ],
      "stateMutability": "view",
      "type": "function"
    },
    {
      "inputs": [],
      "name": "isFreeForAll",
      "outputs": [
        {
          "internalType": "bool",
          "name": "",
          "type": "bool"
        }
      ],
      "stateMutability": "view",
      "type": "function"
    },
    {
      "inputs": [],
      "name": "owner",
      "outputs": [
        {
          "internalType": "address",
          "name": "",
          "type": "address"
        }
      ],
      "stateMutability": "view",
      "type": "function"
    },
    {
      "inputs": [
        {
          "internalType": "address",
          "name": "",
          "type": "address"
        }
      ],
      "name": "projects",
      "outputs": [
        {
          "internalType": "string",
          "name": "title",
          "type": "string"
        },
        {
          "internalType": "contract Crowdfunding",
          "name": "project",
          "type": "address"
        }
      ],
      "stateMutability": "view",
      "type": "function"
    },
    {
      "inputs": [],
      "name": "renounceOwnership",
      "outputs": [],
      "stateMutability": "nonpayable",
      "type": "function"
    },
    {
      "inputs": [
        {
          "internalType": "address",
          "name": "newOwner",
          "type": "address"
        }
      ],
      "name": "transferOwnership",
      "outputs": [],
      "stateMutability": "nonpayable",
      "type": "function"
    },
    {
      "inputs": [
        {
          "internalType": "uint256",
          "name": "_goal",
          "type": "uint256"
        },
        {
          "internalType": "uint256",
          "name": "_deadline",
          "type": "uint256"
        },
        {
          "internalType": "address",
          "name": "_acceptingThisToken",
          "type": "address"
        },
        {
          "internalType": "string",
          "name": "_title",
          "type": "string"
        }
      ],
      "name": "createNewProject",
      "outputs": [],
      "stateMutability": "nonpayable",
      "type": "function"
    },
    {
      "inputs": [
        {
          "internalType": "address",
          "name": "_allowThisAddress",
          "type": "address"
        }
      ],
      "name": "allowAddress",
      "outputs": [],
      "stateMutability": "nonpayable",
      "type": "function"
    },
    {
      "inputs": [
        {
          "internalType": "address",
          "name": "_disallowThisAddress",
          "type": "address"
        }
      ],
      "name": "disallowAddress",
      "outputs": [],
      "stateMutability": "nonpayable",
      "type": "function"
    },
    {
      "inputs": [],
      "name": "toggleFreeForAll",
      "outputs": [],
      "stateMutability": "nonpayable",
      "type": "function"
    }
  ],
  "bytecode": "0x608060405234801561001057600080fd5b5061001a3361002c565b6003805460ff1916600117905561007c565b600080546001600160a01b038381166001600160a01b0319831681178455604051919092169283917f8be0079c531659141344cd1fd0a4f28419497f9722a3daafe3b4186f6b6457e09190a35050565b6128ae8061008b6000396000f3fe60806040523480156200001157600080fd5b5060043610620000ab5760003560e01c80638da5cb5b116200006e5780638da5cb5b146200014c578063adf07fa81462000168578063b7c58d7a1462000176578063b8da41f9146200018d578063f2fde38b14620001a557600080fd5b806308af4d8814620000b0578063224b06bd14620000c95780634120657a14620000e0578063715018a6146200011b578063840e78fd1462000125575b600080fd5b620000c7620000c136600462000720565b620001bc565b005b620000c7620000da366004620007ba565b62000211565b62000106620000f136600462000720565b60026020526000908152604090205460ff1681565b60405190151581526020015b60405180910390f35b620000c7620004a7565b6200013c6200013636600462000720565b620004bf565b60405162000112929190620008bc565b6000546040516001600160a01b03909116815260200162000112565b600354620001069060ff1681565b620000c76200018736600462000720565b62000574565b620000c76003805460ff19811660ff90911615179055565b620000c7620001b636600462000720565b620005ca565b620001c662000649565b6001600160a01b03811660009081526002602052604090205460ff1615620001ed57600080fd5b6001600160a01b03166000908152600260205260409020805460ff19166001179055565b60035460ff166200027f573360009081526002602052604090205460ff1615156001146200027f5760405162461bcd60e51b81526020600482015260166024820152751059191c995cdcc81a5cc81b9bdd08185b1b1bddd95960521b60448201526064015b60405180910390fd5b600030858585856040516200029490620006f5565b620002a4959493929190620008e8565b604051809103906000f080158015620002c1573d6000803e3d6000fd5b5090506001600160a01b038116620002d857600080fd5b60405163f2fde38b60e01b81523360048201526001600160a01b0382169063f2fde38b90602401600060405180830381600087803b1580156200031a57600080fd5b505af11580156200032f573d6000803e3d6000fd5b505050506001600160a01b038116600090815260016020526040902080620003588482620009be565b50818160010160006101000a8154816001600160a01b0302191690836001600160a01b0316021790555060008490507f9bf072edfb6b558ebf0f6c8f312ffea6af006bdceb5ca2da5cf73d2b858777638333868a8a8a876001600160a01b03166306fdde036040518163ffffffff1660e01b8152600401600060405180830381865afa158015620003ed573d6000803e3d6000fd5b505050506040513d6000823e601f3d908101601f1916820160405262000417919081019062000a8b565b886001600160a01b03166395d89b416040518163ffffffff1660e01b8152600401600060405180830381865afa15801562000456573d6000803e3d6000fd5b505050506040513d6000823e601f3d908101601f1916820160405262000480919081019062000a8b565b6040516200049698979695949392919062000b0b565b60405180910390a150505050505050565b620004b162000649565b620004bd6000620006a5565b565b600160205260009081526040902080548190620004dc906200092f565b80601f01602080910402602001604051908101604052809291908181526020018280546200050a906200092f565b80156200055b5780601f106200052f576101008083540402835291602001916200055b565b820191906000526020600020905b8154815290600101906020018083116200053d57829003601f168201915b505050600190930154919250506001600160a01b031682565b6200057e62000649565b6001600160a01b03811660009081526002602052604090205460ff161515600114620005a957600080fd5b6001600160a01b03166000908152600260205260409020805460ff19169055565b620005d462000649565b6001600160a01b0381166200063b5760405162461bcd60e51b815260206004820152602660248201527f4f776e61626c653a206e6577206f776e657220697320746865207a65726f206160448201526564647265737360d01b606482015260840162000276565b6200064681620006a5565b50565b6000546001600160a01b03163314620004bd5760405162461bcd60e51b815260206004820181905260248201527f4f776e61626c653a2063616c6c6572206973206e6f7420746865206f776e6572604482015260640162000276565b600080546001600160a01b038381166001600160a01b0319831681178455604051919092169283917f8be0079c531659141344cd1fd0a4f28419497f9722a3daafe3b4186f6b6457e09190a35050565b611ced8062000b8c83390190565b80356001600160a01b03811681146200071b57600080fd5b919050565b6000602082840312156200073357600080fd5b6200073e8262000703565b9392505050565b634e487b7160e01b600052604160045260246000fd5b604051601f8201601f1916810167ffffffffffffffff8111828210171562000787576200078762000745565b604052919050565b600067ffffffffffffffff821115620007ac57620007ac62000745565b50601f01601f191660200190565b60008060008060808587031215620007d157600080fd5b8435935060208501359250620007ea6040860162000703565b9150606085013567ffffffffffffffff8111156200080757600080fd5b8501601f810187136200081957600080fd5b8035620008306200082a826200078f565b6200075b565b8181528860208385010111156200084657600080fd5b8160208401602083013760006020838301015280935050505092959194509250565b60005b83811015620008855781810151838201526020016200086b565b50506000910152565b60008151808452620008a881602086016020860162000868565b601f01601f19169290920160200192915050565b604081526000620008d160408301856200088e565b905060018060a01b03831660208301529392505050565b6001600160a01b03868116825260208201869052604082018590528316606082015260a06080820181905260009062000924908301846200088e565b979650505050505050565b600181811c908216806200094457607f821691505b6020821081036200096557634e487b7160e01b600052602260045260246000fd5b50919050565b601f821115620009b957600081815260208120601f850160051c81016020861015620009945750805b601f850160051c820191505b81811015620009b557828155600101620009a0565b5050505b505050565b815167ffffffffffffffff811115620009db57620009db62000745565b620009f381620009ec84546200092f565b846200096b565b602080601f83116001811462000a2b576000841562000a125750858301515b600019600386901b1c1916600185901b178555620009b5565b600085815260208120601f198616915b8281101562000a5c5788860151825594840194600190910190840162000a3b565b508582101562000a7b5787850151600019600388901b60f8161c191681555b5050505050600190811b01905550565b60006020828403121562000a9e57600080fd5b815167ffffffffffffffff81111562000ab657600080fd5b8201601f8101841362000ac857600080fd5b805162000ad96200082a826200078f565b81815285602083850101111562000aef57600080fd5b62000b0282602083016020860162000868565b95945050505050565b6001600160a01b03898116825288811660208301526101006040830181905260009162000b3b8483018b6200088e565b915088606085015287608085015280871660a08501525082810360c084015262000b6681866200088e565b905082810360e084015262000b7c81856200088e565b9b9a505050505050505050505056fe6080604052620f4240600b553480156200001857600080fd5b5060405162001ced38038062001ced8339810160408190526200003b9162000499565b620000463362000177565b4283116200005357600080fd5b6200005e82620001c7565b620000b05760405162461bcd60e51b815260206004820152601d60248201527f416464726573732070726f7669646564206973206e6f7420746f6b656e00000060448201526064015b60405180910390fd5b813b6200010b5760405162461bcd60e51b815260206004820152602260248201527f416464726573732070726f7669646564206973206e6f74206120636f6e74726160448201526118dd60f21b6064820152608401620000a7565b6005620001198282620005a2565b5050600380546001600160a01b039586166001600160a01b03199182161790915560099390935560089190915560646007556001805483163317905560048054919093169082168117909255600280549091169091179055620006c8565b600080546001600160a01b038381166001600160a01b0319831681178455604051919092169283917f8be0079c531659141344cd1fd0a4f28419497f9722a3daafe3b4186f6b6457e09190a35050565b6040516370a0823160e01b8152336004820152600090829082906001600160a01b038316906370a0823190602401602060405180830381865afa15801562000213573d6000803e3d6000fd5b505050506040513d601f19601f820116820180604052508101906200023991906200066e565b1015620002895760405162461bcd60e51b815260206004820152601460248201527f6d6574686f6420646f65736e27742065786973740000000000000000000000006044820152606401620000a7565b6000816001600160a01b03166318160ddd6040518163ffffffff1660e01b8152600401602060405180830381865afa158015620002ca573d6000803e3d6000fd5b505050506040513d601f19601f82011682018060405250810190620002f091906200066e565b116200032d5760405162461bcd60e51b815260206004820152600b60248201526a0537570706c7920697320360ac1b6044820152606401620000a7565b6000816001600160a01b03166306fdde036040518163ffffffff1660e01b8152600401600060405180830381865afa1580156200036e573d6000803e3d6000fd5b505050506040513d6000823e601f3d908101601f1916820160405262000398919081019062000688565b805190915015620003ad575060019392505050565b5060009392505050565b80516001600160a01b0381168114620003cf57600080fd5b919050565b634e487b7160e01b600052604160045260246000fd5b600082601f830112620003fc57600080fd5b81516001600160401b0380821115620004195762000419620003d4565b604051601f8301601f19908116603f01168101908282118183101715620004445762000444620003d4565b816040528381526020925086838588010111156200046157600080fd5b600091505b8382101562000485578582018301518183018401529082019062000466565b600093810190920192909252949350505050565b600080600080600060a08688031215620004b257600080fd5b620004bd86620003b7565b94506020860151935060408601519250620004db60608701620003b7565b60808701519092506001600160401b03811115620004f857600080fd5b6200050688828901620003ea565b9150509295509295909350565b600181811c908216806200052857607f821691505b6020821081036200054957634e487b7160e01b600052602260045260246000fd5b50919050565b601f8211156200059d57600081815260208120601f850160051c81016020861015620005785750805b601f850160051c820191505b81811015620005995782815560010162000584565b5050505b505050565b81516001600160401b03811115620005be57620005be620003d4565b620005d681620005cf845462000513565b846200054f565b602080601f8311600181146200060e5760008415620005f55750858301515b600019600386901b1c1916600185901b17855562000599565b600085815260208120601f198616915b828110156200063f578886015182559484019460019091019084016200061e565b50858210156200065e5787850151600019600388901b60f8161c191681555b5050505050600190811b01905550565b6000602082840312156200068157600080fd5b5051919050565b6000602082840312156200069b57600080fd5b81516001600160401b03811115620006b257600080fd5b620006c084828501620003ea565b949350505050565b61161580620006d86000396000f3fe608060405234801561001057600080fd5b50600436106101c45760003560e01c8063715018a6116100f9578063b2d5ae4411610097578063d42c48d111610071578063d42c48d1146103e8578063f2fde38b1461041e578063f851a44014610431578063fc0c546a1461044457600080fd5b8063b2d5ae44146103c4578063c1cbbca7146103cc578063c59ee1dc146103df57600080fd5b8063937e09b1116100d3578063937e09b11461037c5780639d76ea58146103855780639fb42b1f14610398578063a43b6fff146103a157600080fd5b8063715018a61461033e57806381d12c58146103465780638da5cb5b1461036b57600080fd5b8063379248e2116101665780634cb6f4a5116101405780634cb6f4a5146102e35780634e260f6f146102f657806355e1dedf146102ff5780635b8575a91461031257600080fd5b8063379248e2146102a257806340193883146102c55780634a79d50c146102ce57600080fd5b8063232af255116101a2578063232af2551461022b57806329dcb0cf146102565780632f0829f71461025f57806334b664601461028257600080fd5b806312065fe0146101c9578063180b7138146101e45780631b16bb5c14610216575b600080fd5b6101d1610457565b6040519081526020015b60405180910390f35b6101f76101f23660046111c9565b6104ce565b604080516001600160a01b0390931683526020830191909152016101db565b610229610224366004611214565b610734565b005b60035461023e906001600160a01b031681565b6040516001600160a01b0390911681526020016101db565b6101d160085481565b6101d161026d3660046111c9565b6000908152600d602052604090206002015490565b6101d16102903660046112df565b600e6020526000908152604090205481565b6101d16102b03660046111c9565b6000908152600d602052604090206005015490565b6101d160095481565b6102d66107eb565b6040516101db9190611347565b6101d16102f13660046111c9565b610879565b6101d160065481565b6102d661030d3660046111c9565b610b25565b61023e6103203660046111c9565b6000908152600d60205260409020600101546001600160a01b031690565b610229610bc7565b6103596103543660046111c9565b610bdb565b6040516101db9695949392919061135a565b6000546001600160a01b031661023e565b6101d160075481565b60025461023e906001600160a01b031681565b6101d1600c5481565b6101d16103af3660046111c9565b6000908152600d602052604090206004015490565b6101d1610ca5565b6102296103da3660046111c9565b610e87565b6101d1600a5481565b61040e6103f63660046111c9565b6000908152600d602052604090206003015460ff1690565b60405190151581526020016101db565b61022961042c3660046112df565b6110a6565b60015461023e906001600160a01b031681565b60045461023e906001600160a01b031681565b600480546040516370a0823160e01b815230928101929092526000916001600160a01b03909116906370a0823190602401602060405180830381865afa1580156104a5573d6000803e3d6000fd5b505050506040513d601f19601f820116820180604052508101906104c9919061139f565b905090565b6000806104d961111f565b600954600a54101561054a5760405162461bcd60e51b815260206004820152602f60248201527f726169736564416d6f756e74206d757374206265206d6f7265207468616e206f60448201526e1c88195c5d585b081d1bc819dbd85b608a1b60648201526084015b60405180910390fd5b6000838152600d60205260409020600381015460ff16156105ad5760405162461bcd60e51b815260206004820152601f60248201527f546865207265717565737420686173206265656e20636f6d706c657465642e006044820152606401610541565b600b54600590600a9081906105c290846113ce565b6105cc91906113eb565b83600501541161062e5760405162461bcd60e51b815260206004820152602760248201527f76616c7565206f6620766f746573206661696c20746f206d65657420726571756044820152661a5c995b595b9d60ca1b6064820152608401610541565b600183015460028401546004805460405163a9059cbb60e01b81526001600160a01b03948516928101839052602481018490529193169063a9059cbb906044016020604051808303816000875af115801561068d573d6000803e3d6000fd5b505050506040513d601f19601f820116820180604052508101906106b1919061140d565b5060038501805460ff19166001179055604080513381526001600160a01b0384166020820152908101829052606081018990527fe8865f6295f774cc1f85678223321412003260525398a1d46e5e884a0f694a739060800160405180910390a15050505060018101546002909101546001600160a01b0390911694909350915050565b61073c61111f565b600c80546000818152600d602052604081209192839161075b8361142f565b9091555081905061076c86826114d1565b506001810180546001600160a01b0319166001600160a01b0386161790556002810183905560038101805460ff19169055600060048201556040517f6fbbe1619a744707cabdefa8c81690a643c946e64fd595a1126aa6d4bc27bba1906107dc9084903390899089908990611591565b60405180910390a15050505050565b600580546107f890611448565b80601f016020809104026020016040519081016040528092919081815260200182805461082490611448565b80156108715780601f1061084657610100808354040283529160200191610871565b820191906000526020600020905b81548152906001019060200180831161085457829003601f168201915b505050505081565b600081600c5410156108cd5760405162461bcd60e51b815260206004820152601760248201527f5265717565737420646f6573206e6f742065786973742e0000000000000000006044820152606401610541565b6000546001600160a01b0316330361093b5760405162461bcd60e51b815260206004820152602b60248201527f596f75277265206e6f7420616c6c6f77656420746f20766f746520666f72207460448201526a1a1a5cc81c995c5d595cdd60aa1b6064820152608401610541565b336000908152600e60205260409020546109a25760405162461bcd60e51b815260206004820152602260248201527f596f75206d757374206265206120636f6e7472696275746f7220746f20766f74604482015261652160f01b6064820152608401610541565b6000828152600d60209081526040808320338452600681019092529091205460ff1615610a0a5760405162461bcd60e51b8152602060048201526016602482015275165bdd481a185d9948185b1c9958591e481d9bdd195960521b6044820152606401610541565b60018101546001600160a01b0316610a645760405162461bcd60e51b815260206004820152601e60248201527f5265717565737420686173206e6f74206265656e20696e6974696174656400006044820152606401610541565b600954600b54336000908152600e6020526040812054909291610a86916113ce565b610a9091906113eb565b905080826005016000828254610aa691906115cc565b9091555050600482018054906000610abd8361142f565b9091555050336000818152600684016020908152604091829020805460ff191660011790558151928352820186905281018290527fcd200ea5ac0e92a5a67c5c682507511ae3086a331d103afb7eea291ae430d5999060600160405180910390a19392505050565b6000818152600d60205260409020805460609190610b4290611448565b80601f0160208091040260200160405190810160405280929190818152602001828054610b6e90611448565b8015610bbb5780601f10610b9057610100808354040283529160200191610bbb565b820191906000526020600020905b815481529060010190602001808311610b9e57829003601f168201915b50505050509050919050565b610bcf61111f565b610bd96000611179565b565b600d60205260009081526040902080548190610bf690611448565b80601f0160208091040260200160405190810160405280929190818152602001828054610c2290611448565b8015610c6f5780601f10610c4457610100808354040283529160200191610c6f565b820191906000526020600020905b815481529060010190602001808311610c5257829003601f168201915b505050600184015460028501546003860154600487015460059097015495966001600160a01b039093169591945060ff16925086565b6000600854421015610cf95760405162461bcd60e51b815260206004820152601760248201527f446561646c696e6520686173206e6f74207061737365640000000000000000006044820152606401610541565b600954600a5410610d4c5760405162461bcd60e51b815260206004820152601f60248201527f52616973656420616d6f756e74206973206d6f7265207468616e20676f616c006044820152606401610541565b336000908152600e6020526040902054610da85760405162461bcd60e51b815260206004820152601c60248201527f596f75206e65656420746f206265206120636f6e7472696275746572000000006044820152606401610541565b336000818152600e6020526040808220805492905560048054915163a9059cbb60e01b8152908101939093526024830182905290916001600160a01b039091169063a9059cbb906044016020604051808303816000875af1158015610e11573d6000803e3d6000fd5b505050506040513d601f19601f82011682018060405250810190610e35919061140d565b50600454604080513381526001600160a01b03909216602083015281018290527ff7f394ee65e37c78e595ee4c8675e3832dff9a6cfc6a2c7405e3689f2a714c539060600160405180910390a1919050565b600754811015610ed95760405162461bcd60e51b815260206004820152601c60248201527f6d696e696d756d20636f6e747269627574696f6e206e6f74206d6574000000006044820152606401610541565b60048054604051636eb1769f60e11b8152339281019290925230602483015282916001600160a01b039091169063dd62ed3e90604401602060405180830381865afa158015610f2c573d6000803e3d6000fd5b505050506040513d601f19601f82011682018060405250810190610f50919061139f565b1015610f9e5760405162461bcd60e51b815260206004820152601860248201527f746f6b656e207370656e64206e6f7420617070726f76656400000000000000006044820152606401610541565b336000908152600e60205260408120549003610fbe576006805460010190555b600480546040516323b872dd60e01b81523392810192909252306024830152604482018390526001600160a01b0316906323b872dd906064016020604051808303816000875af1158015611016573d6000803e3d6000fd5b505050506040513d601f19601f8201168201806040525081019061103a919061140d565b50336000818152600e6020908152604091829020805485019055600a80548501905560025482519384526001600160a01b03169083015281018290527f630c9eb89085cfe993245c555e78df45b0b8e8f31f411ddc400727738d9648349060600160405180910390a150565b6110ae61111f565b6001600160a01b0381166111135760405162461bcd60e51b815260206004820152602660248201527f4f776e61626c653a206e6577206f776e657220697320746865207a65726f206160448201526564647265737360d01b6064820152608401610541565b61111c81611179565b50565b6000546001600160a01b03163314610bd95760405162461bcd60e51b815260206004820181905260248201527f4f776e61626c653a2063616c6c6572206973206e6f7420746865206f776e65726044820152606401610541565b600080546001600160a01b038381166001600160a01b0319831681178455604051919092169283917f8be0079c531659141344cd1fd0a4f28419497f9722a3daafe3b4186f6b6457e09190a35050565b6000602082840312156111db57600080fd5b5035919050565b634e487b7160e01b600052604160045260246000fd5b80356001600160a01b038116811461120f57600080fd5b919050565b60008060006060848603121561122957600080fd5b833567ffffffffffffffff8082111561124157600080fd5b818601915086601f83011261125557600080fd5b813581811115611267576112676111e2565b604051601f8201601f19908116603f0116810190838211818310171561128f5761128f6111e2565b816040528281528960208487010111156112a857600080fd5b8260208601602083013760006020848301015280975050505050506112cf602085016111f8565b9150604084013590509250925092565b6000602082840312156112f157600080fd5b6112fa826111f8565b9392505050565b6000815180845260005b818110156113275760208185018101518683018201520161130b565b506000602082860101526020601f19601f83011685010191505092915050565b6020815260006112fa6020830184611301565b60c08152600061136d60c0830189611301565b6001600160a01b039790971660208301525060408101949094529115156060840152608083015260a090910152919050565b6000602082840312156113b157600080fd5b5051919050565b634e487b7160e01b600052601160045260246000fd5b80820281158282048414176113e5576113e56113b8565b92915050565b60008261140857634e487b7160e01b600052601260045260246000fd5b500490565b60006020828403121561141f57600080fd5b815180151581146112fa57600080fd5b600060018201611441576114416113b8565b5060010190565b600181811c9082168061145c57607f821691505b60208210810361147c57634e487b7160e01b600052602260045260246000fd5b50919050565b601f8211156114cc57600081815260208120601f850160051c810160208610156114a95750805b601f850160051c820191505b818110156114c8578281556001016114b5565b5050505b505050565b815167ffffffffffffffff8111156114eb576114eb6111e2565b6114ff816114f98454611448565b84611482565b602080601f831160018114611534576000841561151c5750858301515b600019600386901b1c1916600185901b1785556114c8565b600085815260208120601f198616915b8281101561156357888601518255948401946001909101908401611544565b50858210156115815787850151600019600388901b60f8161c191681555b5050505050600190811b01905550565b858152600060018060a01b03808716602084015260a060408401526115b960a0840187611301565b9416606083015250608001529392505050565b808201808211156113e5576113e56113b856fea2646970667358221220524fdf843d87411aaf248ea10b5e2f8140e098d445ee48e7c692a95a0e83159064736f6c63430008130033a2646970667358221220d862dccb1ba9a405c015aabb4f882f1802c9f0ad32a6c6837fc1efb8d822bd2964736f6c63430008130033",
  "immutableReferences": {},
  "source": "//SPDX-License-Identifier: GPL-3.0\r\n\r\npragma solidity ^0.8.0;\r\n\r\nimport \"./Crowdfunding.sol\";\r\n\r\ncontract CrowdfundingFactory is Ownable {\r\n    mapping(address => ProjectDetails) public projects;\r\n    mapping(address => bool) public allowedAddresses;\r\n    bool public isFreeForAll;\r\n\r\n    struct ProjectDetails {\r\n        string title;\r\n        Crowdfunding project;\r\n    }\r\n\r\n    event CreateNewProjectEvent(\r\n        address _projectAddress,\r\n        address _projectCreator,\r\n        string _title,\r\n        uint _goal,\r\n        uint _deadline,\r\n        address _tokenUsed,\r\n        string tokenName,\r\n        string tokenSymbol\r\n    );\r\n\r\n    // event ContributeToProjectEvent(\r\n    //     address _projectAddress,\r\n    //     address _contributor,\r\n    //     address _tokenAddress,\r\n    //     uint _amount\r\n    // );\r\n    // event GetRefundFromProjectEvent(\r\n    //     address _projectAddress,\r\n    //     address _contributor,\r\n    //     address _RefundToken,\r\n    //     uint _RefundAmount\r\n    // );\r\n    // event CreateRequestForProjectEvent(\r\n    //     uint requestNum,\r\n    //     address _projectAddress,\r\n    //     address _projectCreator,\r\n    //     string _title,\r\n    //     address _recipient,\r\n    //     uint _amount\r\n    // );\r\n    // event ReceiveContributionFromProjectEvent(\r\n    //     address _projectAddress,\r\n    //     address _projectCreator,\r\n    //     address _recipient,\r\n    //     uint _amount,\r\n    //     uint _requestNo\r\n    // );\r\n    // event voteRequestForProjectEvent(\r\n    //     address _projectAddress,\r\n    //     address _voter,\r\n    //     uint _requestNo,\r\n    //     uint _valueOfVote\r\n    // );\r\n\r\n    constructor() {\r\n        isFreeForAll = true;\r\n    }\r\n\r\n    function createNewProject(\r\n        uint _goal,\r\n        uint _deadline,\r\n        address _acceptingThisToken,\r\n        string memory _title\r\n    ) public {\r\n        if (!isFreeForAll) {\r\n            require(\r\n                allowedAddresses[msg.sender] == true,\r\n                \"Address is not allowed\"\r\n            );\r\n        }\r\n\r\n        Crowdfunding crowdfunding = new Crowdfunding(\r\n            address(this),\r\n            _goal,\r\n            _deadline,\r\n            _acceptingThisToken,\r\n            _title\r\n        );\r\n\r\n        require(address(crowdfunding) != address(0));\r\n        crowdfunding.transferOwnership(msg.sender);\r\n\r\n        ProjectDetails storage newProject = projects[address(crowdfunding)];\r\n\r\n        newProject.title = _title;\r\n        newProject.project = crowdfunding;\r\n        IERC20Metadata token = IERC20Metadata(_acceptingThisToken);\r\n\r\n        emit CreateNewProjectEvent(\r\n            address(crowdfunding),\r\n            msg.sender,\r\n            _title,\r\n            _goal,\r\n            _deadline,\r\n            _acceptingThisToken,\r\n            token.name(),\r\n            token.symbol()\r\n        );\r\n    }\r\n\r\n    // function contributeToProject(address _projectAddress, uint _amount) public {\r\n    //     Crowdfunding project = Crowdfunding(_projectAddress);\r\n    //     address _contributor;\r\n    //     address _tokenAddress = project.tokenAddress();\r\n\r\n    //     (_contributor) = project.contribute(_amount, msg.sender);\r\n    //     emit ContributeToProjectEvent(\r\n    //         _projectAddress,\r\n    //         _contributor,\r\n    //         _tokenAddress,\r\n    //         _amount\r\n    //     );\r\n    // }\r\n\r\n    // function getBalanceOfProject(\r\n    //     address _projectAddress\r\n    // ) public view returns (uint) {\r\n    //     Crowdfunding project = Crowdfunding(_projectAddress);\r\n\r\n    //     return project.getBalance();\r\n    // }\r\n\r\n    // function getRefundFromProject(address _projectAddress) public {\r\n    //     Crowdfunding project = Crowdfunding(_projectAddress);\r\n    //     uint _RefundAmount = project.getRefund(msg.sender);\r\n    //     emit GetRefundFromProjectEvent(\r\n    //         _projectAddress,\r\n    //         msg.sender,\r\n    //         project.tokenAddress(),\r\n    //         _RefundAmount\r\n    //     );\r\n    // }\r\n\r\n    // function createRequestForProject(\r\n    //     address _projectAddress,\r\n    //     string memory _title,\r\n    //     address _recipient,\r\n    //     uint _amount\r\n    // ) public {\r\n    //     Crowdfunding project = Crowdfunding(_projectAddress);\r\n    //     uint requestNum = project.createRequest(_title, _recipient, _amount);\r\n\r\n    //     emit CreateRequestForProjectEvent(\r\n    //         requestNum,\r\n    //         _projectAddress,\r\n    //         msg.sender,\r\n    //         _title,\r\n    //         _recipient,\r\n    //         _amount\r\n    //     );\r\n    // }\r\n\r\n    // function voteRequestForProject(\r\n    //     address _projectAddress,\r\n    //     uint _requestNo\r\n    // ) public {\r\n    //     Crowdfunding project = Crowdfunding(_projectAddress);\r\n    //     uint valueOfVote = project.voteRequest(_requestNo, msg.sender);\r\n\r\n    //     emit voteRequestForProjectEvent(\r\n    //         _projectAddress,\r\n    //         msg.sender,\r\n    //         _requestNo,\r\n    //         valueOfVote\r\n    //     );\r\n    // }\r\n\r\n    // function receiveContributionFromProject(\r\n    //     address _projectAddress,\r\n    //     uint _requestNo\r\n    // ) public {\r\n    //     Crowdfunding project = Crowdfunding(_projectAddress);\r\n    //     address _recipient;\r\n    //     uint _amount;\r\n    //     (_recipient, _amount) = project.receiveContribution(_requestNo);\r\n\r\n    //     emit ReceiveContributionFromProjectEvent(\r\n    //         _projectAddress,\r\n    //         msg.sender,\r\n    //         _recipient,\r\n    //         _amount,\r\n    //         _requestNo\r\n    //     );\r\n    // }\r\n\r\n    function allowAddress(address _allowThisAddress) public onlyOwner {\r\n        require(allowedAddresses[_allowThisAddress] == false);\r\n        allowedAddresses[_allowThisAddress] = true;\r\n    }\r\n\r\n    function disallowAddress(address _disallowThisAddress) public onlyOwner {\r\n        require(allowedAddresses[_disallowThisAddress] == true);\r\n        allowedAddresses[_disallowThisAddress] = false;\r\n    }\r\n\r\n    // function getRequestOfProject(\r\n    //     address _projectAddress,\r\n    //     uint _requestNo\r\n    // ) public view returns (string memory, address, uint, bool, uint, uint) {\r\n    //     Crowdfunding project = Crowdfunding(_projectAddress);\r\n    //     return (\r\n    //         project.getRequestTitle(_requestNo),\r\n    //         project.getRequestRecipient(_requestNo),\r\n    //         project.getRequestAmount(_requestNo),\r\n    //         project.getRequestCompleted(_requestNo),\r\n    //         project.getRequestNumOfVoters(_requestNo),\r\n    //         project.getRequestValueOfVotes(_requestNo)\r\n    //     );\r\n    // }\r\n\r\n    // function getNumOfRequestOfProject(\r\n    //     address _projectAddress\r\n    // ) public view returns (uint) {\r\n    //     Crowdfunding project = Crowdfunding(_projectAddress);\r\n    //     return project.numRequests();\r\n    // }\r\n\r\n    // function getTitleOfProject(\r\n    //     address _projectAddress\r\n    // ) public view returns (string memory, address) {\r\n    //     string memory d = projects[_projectAddress].title;\r\n    //     Crowdfunding a = projects[_projectAddress].project;\r\n    //     return (d, address(a));\r\n    // }\r\n\r\n    function toggleFreeForAll() public {\r\n        isFreeForAll = !isFreeForAll;\r\n    }\r\n\r\n    // function approveTokenForProject(\r\n    //     address _projectAddress,\r\n    //     uint _amount\r\n    // ) public {\r\n    //     Crowdfunding project = Crowdfunding(_projectAddress);\r\n    //     IERC20 token = IERC20(project.tokenAddress());\r\n    //     token.approve(_projectAddress, _amount);\r\n    // }\r\n}\r\n",
  "sourcePath": "C:\\Users\\kimwu\\Desktop\\TFIP-NUS\\proj\\truffle\\contracts\\CrowdfundingFactory.sol",
  "compiler": {
    "name": "solc",
    "version": "0.8.19+commit.7dd6d404.Emscripten.clang"
  },
  "schemaVersion": "3.4.13",
  "updatedAt": "2023-05-11T18:28:31.514Z",
  "devdoc": {
    "kind": "dev",
    "methods": {
      "owner()": {
        "details": "Returns the address of the current owner."
      },
      "renounceOwnership()": {
        "details": "Leaves the contract without owner. It will not be possible to call `onlyOwner` functions anymore. Can only be called by the current owner. NOTE: Renouncing ownership will leave the contract without an owner, thereby removing any functionality that is only available to the owner."
      },
      "transferOwnership(address)": {
        "details": "Transfers ownership of the contract to a new account (`newOwner`). Can only be called by the current owner."
      }
    },
    "version": 1
  },
  "userdoc": {
    "kind": "user",
    "methods": {},
    "version": 1
  }
}