{
  "contractName": "Crowdfunding",
  "abi": [
    {
      "inputs": [
        {
          "internalType": "uint256",
          "name": "_goal",
          "type": "uint256"
        },
        {
          "internalType": "uint256",
          "name": "_deadline",
          "type": "uint256"
        },
        {
          "internalType": "address",
          "name": "_acceptingThisToken",
          "type": "address"
        },
        {
          "internalType": "string",
          "name": "_title",
          "type": "string"
        }
      ],
      "stateMutability": "nonpayable",
      "type": "constructor"
    },
    {
      "anonymous": false,
      "inputs": [
        {
          "indexed": false,
          "internalType": "address",
          "name": "_contributor",
          "type": "address"
        },
        {
          "indexed": false,
          "internalType": "address",
          "name": "_tokenAddress",
          "type": "address"
        },
        {
          "indexed": false,
          "internalType": "uint256",
          "name": "_amount",
          "type": "uint256"
        }
      ],
      "name": "ContributeEvent",
      "type": "event"
    },
    {
      "anonymous": false,
      "inputs": [
        {
          "indexed": false,
          "internalType": "uint256",
          "name": "requestNum",
          "type": "uint256"
        },
        {
          "indexed": false,
          "internalType": "address",
          "name": "_projectCreator",
          "type": "address"
        },
        {
          "indexed": false,
          "internalType": "string",
          "name": "_title",
          "type": "string"
        },
        {
          "indexed": false,
          "internalType": "address",
          "name": "_recipient",
          "type": "address"
        },
        {
          "indexed": false,
          "internalType": "uint256",
          "name": "_amount",
          "type": "uint256"
        }
      ],
      "name": "CreateRequestEvent",
      "type": "event"
    },
    {
      "anonymous": false,
      "inputs": [
        {
          "indexed": false,
          "internalType": "address",
          "name": "_contributor",
          "type": "address"
        },
        {
          "indexed": false,
          "internalType": "address",
          "name": "_RefundToken",
          "type": "address"
        },
        {
          "indexed": false,
          "internalType": "uint256",
          "name": "_RefundAmount",
          "type": "uint256"
        }
      ],
      "name": "GetRefundEvent",
      "type": "event"
    },
    {
      "anonymous": false,
      "inputs": [
        {
          "indexed": true,
          "internalType": "address",
          "name": "previousOwner",
          "type": "address"
        },
        {
          "indexed": true,
          "internalType": "address",
          "name": "newOwner",
          "type": "address"
        }
      ],
      "name": "OwnershipTransferred",
      "type": "event"
    },
    {
      "anonymous": false,
      "inputs": [
        {
          "indexed": false,
          "internalType": "address",
          "name": "_projectCreator",
          "type": "address"
        },
        {
          "indexed": false,
          "internalType": "address",
          "name": "_recipient",
          "type": "address"
        },
        {
          "indexed": false,
          "internalType": "uint256",
          "name": "_amount",
          "type": "uint256"
        },
        {
          "indexed": false,
          "internalType": "uint256",
          "name": "_requestNo",
          "type": "uint256"
        }
      ],
      "name": "ReceiveContributionEvent",
      "type": "event"
    },
    {
      "anonymous": false,
      "inputs": [
        {
          "indexed": false,
          "internalType": "address",
          "name": "_voter",
          "type": "address"
        },
        {
          "indexed": false,
          "internalType": "uint256",
          "name": "_requestNo",
          "type": "uint256"
        },
        {
          "indexed": false,
          "internalType": "uint256",
          "name": "_valueOfVote",
          "type": "uint256"
        }
      ],
      "name": "voteRequestEvent",
      "type": "event"
    },
    {
      "inputs": [],
      "name": "admin",
      "outputs": [
        {
          "internalType": "address",
          "name": "",
          "type": "address"
        }
      ],
      "stateMutability": "view",
      "type": "function"
    },
    {
      "inputs": [
        {
          "internalType": "address",
          "name": "",
          "type": "address"
        }
      ],
      "name": "contributors",
      "outputs": [
        {
          "internalType": "uint256",
          "name": "",
          "type": "uint256"
        }
      ],
      "stateMutability": "view",
      "type": "function"
    },
    {
      "inputs": [],
      "name": "deadline",
      "outputs": [
        {
          "internalType": "uint256",
          "name": "",
          "type": "uint256"
        }
      ],
      "stateMutability": "view",
      "type": "function"
    },
    {
      "inputs": [],
      "name": "goal",
      "outputs": [
        {
          "internalType": "uint256",
          "name": "",
          "type": "uint256"
        }
      ],
      "stateMutability": "view",
      "type": "function"
    },
    {
      "inputs": [],
      "name": "noOfContributors",
      "outputs": [
        {
          "internalType": "uint256",
          "name": "",
          "type": "uint256"
        }
      ],
      "stateMutability": "view",
      "type": "function"
    },
    {
      "inputs": [],
      "name": "numRequests",
      "outputs": [
        {
          "internalType": "uint256",
          "name": "",
          "type": "uint256"
        }
      ],
      "stateMutability": "view",
      "type": "function"
    },
    {
      "inputs": [],
      "name": "owner",
      "outputs": [
        {
          "internalType": "address",
          "name": "",
          "type": "address"
        }
      ],
      "stateMutability": "view",
      "type": "function"
    },
    {
      "inputs": [],
      "name": "raisedAmount",
      "outputs": [
        {
          "internalType": "uint256",
          "name": "",
          "type": "uint256"
        }
      ],
      "stateMutability": "view",
      "type": "function"
    },
    {
      "inputs": [],
      "name": "renounceOwnership",
      "outputs": [],
      "stateMutability": "nonpayable",
      "type": "function"
    },
    {
      "inputs": [
        {
          "internalType": "uint256",
          "name": "",
          "type": "uint256"
        }
      ],
      "name": "requests",
      "outputs": [
        {
          "internalType": "string",
          "name": "title",
          "type": "string"
        },
        {
          "internalType": "address",
          "name": "recipient",
          "type": "address"
        },
        {
          "internalType": "uint256",
          "name": "amount",
          "type": "uint256"
        },
        {
          "internalType": "bool",
          "name": "completed",
          "type": "bool"
        },
        {
          "internalType": "uint256",
          "name": "noOfVoters",
          "type": "uint256"
        },
        {
          "internalType": "uint256",
          "name": "valueOfVotes",
          "type": "uint256"
        }
      ],
      "stateMutability": "view",
      "type": "function"
    },
    {
      "inputs": [],
      "name": "title",
      "outputs": [
        {
          "internalType": "string",
          "name": "",
          "type": "string"
        }
      ],
      "stateMutability": "view",
      "type": "function"
    },
    {
      "inputs": [],
      "name": "token",
      "outputs": [
        {
          "internalType": "contract IERC20",
          "name": "",
          "type": "address"
        }
      ],
      "stateMutability": "view",
      "type": "function"
    },
    {
      "inputs": [],
      "name": "tokenAddress",
      "outputs": [
        {
          "internalType": "address",
          "name": "",
          "type": "address"
        }
      ],
      "stateMutability": "view",
      "type": "function"
    },
    {
      "inputs": [],
      "name": "totalRequestAmount",
      "outputs": [
        {
          "internalType": "uint256",
          "name": "",
          "type": "uint256"
        }
      ],
      "stateMutability": "view",
      "type": "function"
    },
    {
      "inputs": [
        {
          "internalType": "address",
          "name": "newOwner",
          "type": "address"
        }
      ],
      "name": "transferOwnership",
      "outputs": [],
      "stateMutability": "nonpayable",
      "type": "function"
    },
    {
      "inputs": [
        {
          "internalType": "uint256",
          "name": "_amount",
          "type": "uint256"
        }
      ],
      "name": "contribute",
      "outputs": [],
      "stateMutability": "nonpayable",
      "type": "function"
    },
    {
      "inputs": [],
      "name": "getRefund",
      "outputs": [
        {
          "internalType": "uint256",
          "name": "",
          "type": "uint256"
        }
      ],
      "stateMutability": "nonpayable",
      "type": "function"
    },
    {
      "inputs": [
        {
          "internalType": "string",
          "name": "_title",
          "type": "string"
        },
        {
          "internalType": "address",
          "name": "_recipient",
          "type": "address"
        },
        {
          "internalType": "uint256",
          "name": "_amount",
          "type": "uint256"
        }
      ],
      "name": "createRequest",
      "outputs": [],
      "stateMutability": "nonpayable",
      "type": "function"
    },
    {
      "inputs": [
        {
          "internalType": "uint256",
          "name": "_requestNo",
          "type": "uint256"
        }
      ],
      "name": "voteRequest",
      "outputs": [],
      "stateMutability": "nonpayable",
      "type": "function"
    },
    {
      "inputs": [
        {
          "internalType": "uint256",
          "name": "_requestNo",
          "type": "uint256"
        }
      ],
      "name": "receiveContribution",
      "outputs": [
        {
          "internalType": "address",
          "name": "",
          "type": "address"
        },
        {
          "internalType": "uint256",
          "name": "",
          "type": "uint256"
        }
      ],
      "stateMutability": "nonpayable",
      "type": "function"
    },
    {
      "inputs": [
        {
          "internalType": "address",
          "name": "_address",
          "type": "address"
        }
      ],
      "name": "isContract",
      "outputs": [
        {
          "internalType": "bool",
          "name": "",
          "type": "bool"
        }
      ],
      "stateMutability": "view",
      "type": "function"
    },
    {
      "inputs": [
        {
          "internalType": "address",
          "name": "_address",
          "type": "address"
        }
      ],
      "name": "isToken",
      "outputs": [
        {
          "internalType": "bool",
          "name": "",
          "type": "bool"
        }
      ],
      "stateMutability": "view",
      "type": "function"
    }
  ],
  "bytecode": "0x60806040523480156200001157600080fd5b5060405162001deb38038062001deb83398101604081905262000034916200048f565b6200003f336200019e565b428311620000945760405162461bcd60e51b815260206004820152601e60248201527f446561646c696e65206d75737420626520696e2074686520667574757265000060448201526064015b60405180910390fd5b6200009f82620001ee565b620000ed5760405162461bcd60e51b815260206004820152601d60248201527f416464726573732070726f7669646564206973206e6f7420746f6b656e00000060448201526064016200008b565b813b620001485760405162461bcd60e51b815260206004820152602260248201527f416464726573732070726f7669646564206973206e6f74206120636f6e74726160448201526118dd60f21b60648201526084016200008b565b600462000156828262000593565b505060079290925560065560018054336001600160a01b0319918216179091556003805482166001600160a01b039093169283179055600280549091169091179055620006b9565b600080546001600160a01b038381166001600160a01b0319831681178455604051919092169283917f8be0079c531659141344cd1fd0a4f28419497f9722a3daafe3b4186f6b6457e09190a35050565b6040516370a0823160e01b8152336004820152600090829082906001600160a01b038316906370a0823190602401602060405180830381865afa1580156200023a573d6000803e3d6000fd5b505050506040513d601f19601f820116820180604052508101906200026091906200065f565b1015620002b05760405162461bcd60e51b815260206004820152601460248201527f6d6574686f6420646f65736e277420657869737400000000000000000000000060448201526064016200008b565b6000816001600160a01b03166318160ddd6040518163ffffffff1660e01b8152600401602060405180830381865afa158015620002f1573d6000803e3d6000fd5b505050506040513d601f19601f820116820180604052508101906200031791906200065f565b11620003545760405162461bcd60e51b815260206004820152600b60248201526a0537570706c7920697320360ac1b60448201526064016200008b565b6000816001600160a01b03166306fdde036040518163ffffffff1660e01b8152600401600060405180830381865afa15801562000395573d6000803e3d6000fd5b505050506040513d6000823e601f3d908101601f19168201604052620003bf919081019062000679565b511515949350505050565b634e487b7160e01b600052604160045260246000fd5b600082601f830112620003f257600080fd5b81516001600160401b03808211156200040f576200040f620003ca565b604051601f8301601f19908116603f011681019082821181831017156200043a576200043a620003ca565b816040528381526020925086838588010111156200045757600080fd5b600091505b838210156200047b57858201830151818301840152908201906200045c565b600093810190920192909252949350505050565b60008060008060808587031215620004a657600080fd5b84516020860151604087015191955093506001600160a01b0381168114620004cd57600080fd5b60608601519092506001600160401b03811115620004ea57600080fd5b620004f887828801620003e0565b91505092959194509250565b600181811c908216806200051957607f821691505b6020821081036200053a57634e487b7160e01b600052602260045260246000fd5b50919050565b601f8211156200058e57600081815260208120601f850160051c81016020861015620005695750805b601f850160051c820191505b818110156200058a5782815560010162000575565b5050505b505050565b81516001600160401b03811115620005af57620005af620003ca565b620005c781620005c0845462000504565b8462000540565b602080601f831160018114620005ff5760008415620005e65750858301515b600019600386901b1c1916600185901b1785556200058a565b600085815260208120601f198616915b8281101562000630578886015182559484019460019091019084016200060f565b50858210156200064f5787850151600019600388901b60f8161c191681555b5050505050600190811b01905550565b6000602082840312156200067257600080fd5b5051919050565b6000602082840312156200068c57600080fd5b81516001600160401b03811115620006a357600080fd5b620006b184828501620003e0565b949350505050565b61172280620006c96000396000f3fe608060405234801561001057600080fd5b50600436106101425760003560e01c806381d12c58116100b8578063c1cbbca71161007c578063c1cbbca7146102b1578063c59ee1dc146102c4578063f2fde38b146102cd578063f851a440146102e0578063f8b3a2c4146102f3578063fc0c546a146102fc57600080fd5b806381d12c58146102435780638da5cb5b146102685780639d76ea581461028d5780639fb42b1f146102a0578063b2d5ae44146102a957600080fd5b806329dcb0cf1161010a57806329dcb0cf146101f857806340193883146102015780634a79d50c1461020a5780634cb6f4a51461021f5780634e260f6f14610232578063715018a61461023b57600080fd5b80631627905514610147578063180b71381461017057806319f37361146101a25780631b16bb5c146101b55780631f6d4942146101ca575b600080fd5b61015b610155366004611260565b3b151590565b60405190151581526020015b60405180910390f35b61018361017e366004611282565b61030f565b604080516001600160a01b039093168352602083019190915201610167565b61015b6101b0366004611260565b61056a565b6101c86101c336600461130a565b610730565b005b6101ea6101d8366004611260565b600c6020526000908152604090205481565b604051908152602001610167565b6101ea60065481565b6101ea60075481565b610212610904565b60405161016791906113f4565b6101c861022d366004611282565b610992565b6101ea60055481565b6101c8610c24565b610256610251366004611282565b610c38565b60405161016796959493929190611407565b6000546001600160a01b03165b6040516001600160a01b039091168152602001610167565b600254610275906001600160a01b031681565b6101ea600a5481565b6101ea610d02565b6101c86102bf366004611282565b610f5a565b6101ea60085481565b6101c86102db366004611260565b611121565b600154610275906001600160a01b031681565b6101ea60095481565b600354610275906001600160a01b031681565b60008061031a61119a565b600754600854101561038b5760405162461bcd60e51b815260206004820152602f60248201527f726169736564416d6f756e74206d757374206265206d6f7265207468616e206f60448201526e1c88195c5d585b081d1bc819dbd85b608a1b60648201526084015b60405180910390fd5b6000838152600b60205260409020600381015460ff16156103ee5760405162461bcd60e51b815260206004820152601f60248201527f546865207265717565737420686173206265656e20636f6d706c657465642e006044820152606401610382565b600081600501546007546104029190611462565b9050600281106104645760405162461bcd60e51b815260206004820152602760248201527f76616c7565206f6620766f746573206661696c20746f206d65657420726571756044820152661a5c995b595b9d60ca1b6064820152608401610382565b6001820154600283015460035460405163a9059cbb60e01b81526001600160a01b039384166004820181905260248201849052939091169063a9059cbb906044016020604051808303816000875af11580156104c4573d6000803e3d6000fd5b505050506040513d601f19601f820116820180604052508101906104e89190611484565b5060038401805460ff19166001179055604080513381526001600160a01b0384166020820152908101829052606081018890527fe8865f6295f774cc1f85678223321412003260525398a1d46e5e884a0f694a739060800160405180910390a150505060018101546002909101546001600160a01b0390911692509050915091565b6040516370a0823160e01b8152336004820152600090829082906001600160a01b038316906370a0823190602401602060405180830381865afa1580156105b5573d6000803e3d6000fd5b505050506040513d601f19601f820116820180604052508101906105d991906114a6565b101561061e5760405162461bcd60e51b81526020600482015260146024820152731b595d1a1bd908191bd95cdb89dd08195e1a5cdd60621b6044820152606401610382565b6000816001600160a01b03166318160ddd6040518163ffffffff1660e01b8152600401602060405180830381865afa15801561065e573d6000803e3d6000fd5b505050506040513d601f19601f8201168201806040525081019061068291906114a6565b116106bd5760405162461bcd60e51b815260206004820152600b60248201526a0537570706c7920697320360ac1b6044820152606401610382565b6000816001600160a01b03166306fdde036040518163ffffffff1660e01b8152600401600060405180830381865afa1580156106fd573d6000803e3d6000fd5b505050506040513d6000823e601f3d908101601f1916820160405261072591908101906114bf565b511515949350505050565b61073861119a565b6000600854116107a95760405162461bcd60e51b815260206004820152603660248201527f556e61626c6520746f20637265617465207265717565737420617320746865726044820152756520617265206e6f20636f6e747269627574696f6e7360501b6064820152608401610382565b600854816009546107ba9190611536565b111561083c5760405162461bcd60e51b815260206004820152604560248201527f54686973207472616e73616374696f6e2077696c6c20636175736520746f746160448201527f6c52657175657374416d6f756e7420746f2065786365656420726169736564416064820152641b5bdd5b9d60da1b608482015260a401610382565b600a80546000818152600b602052604081209192839161085b8361154f565b9091555081905061086c86826115f1565b506001810180546001600160a01b0319166001600160a01b0386161790556002810183905560038101805460ff19169055600060048201819055600980548592906108b8908490611536565b90915550506040517f6fbbe1619a744707cabdefa8c81690a643c946e64fd595a1126aa6d4bc27bba1906108f590849033908990899089906116b1565b60405180910390a15050505050565b6004805461091190611568565b80601f016020809104026020016040519081016040528092919081815260200182805461093d90611568565b801561098a5780601f1061095f5761010080835404028352916020019161098a565b820191906000526020600020905b81548152906001019060200180831161096d57829003601f168201915b505050505081565b80600a5410156109e45760405162461bcd60e51b815260206004820152601760248201527f5265717565737420646f6573206e6f742065786973742e0000000000000000006044820152606401610382565b6000546001600160a01b03163303610a595760405162461bcd60e51b815260206004820152603260248201527f417320746865206f776e65722c206e6f7420616c6c6f77656420746f20766f746044820152711948199bdc881d1a1a5cc81c995c5d595cdd60721b6064820152608401610382565b336000908152600c6020526040902054610ac05760405162461bcd60e51b815260206004820152602260248201527f596f75206d757374206265206120636f6e7472696275746f7220746f20766f74604482015261652160f01b6064820152608401610382565b6000818152600b60209081526040808320338452600681019092529091205460ff1615610b285760405162461bcd60e51b8152602060048201526016602482015275165bdd481a185d9948185b1c9958591e481d9bdd195960521b6044820152606401610382565b60018101546001600160a01b0316610b825760405162461bcd60e51b815260206004820152601e60248201527f5265717565737420686173206e6f74206265656e20696e6974696174656400006044820152606401610382565b336000908152600c602052604081205460058301805491928392610ba7908490611536565b9091555050600482018054906000610bbe8361154f565b9091555050336000818152600684016020908152604091829020805460ff191660011790558151928352820185905281018290527fcd200ea5ac0e92a5a67c5c682507511ae3086a331d103afb7eea291ae430d5999060600160405180910390a1505050565b610c2c61119a565b610c3660006111f4565b565b600b60205260009081526040902080548190610c5390611568565b80601f0160208091040260200160405190810160405280929190818152602001828054610c7f90611568565b8015610ccc5780601f10610ca157610100808354040283529160200191610ccc565b820191906000526020600020905b815481529060010190602001808311610caf57829003601f168201915b505050600184015460028501546003860154600487015460059097015495966001600160a01b039093169591945060ff16925086565b6000600654421015610d565760405162461bcd60e51b815260206004820152601760248201527f446561646c696e6520686173206e6f74207061737365640000000000000000006044820152606401610382565b60075460085410610da95760405162461bcd60e51b815260206004820152601f60248201527f52616973656420616d6f756e74206973206d6f7265207468616e20676f616c006044820152606401610382565b336000908152600c6020526040902054610e055760405162461bcd60e51b815260206004820152601c60248201527f596f75206e65656420746f206265206120636f6e7472696275746f72000000006044820152606401610382565b336000818152600c60205260408082208054929055600354905163095ea7b360e01b815260048101939093526024830182905290916001600160a01b039091169063095ea7b3906044016020604051808303816000875af1158015610e6e573d6000803e3d6000fd5b505050506040513d601f19601f82011682018060405250810190610e929190611484565b5060035460405163a9059cbb60e01b8152336004820152602481018390526001600160a01b039091169063a9059cbb906044016020604051808303816000875af1158015610ee4573d6000803e3d6000fd5b505050506040513d601f19601f82011682018060405250810190610f089190611484565b50600354604080513381526001600160a01b03909216602083015281018290527ff7f394ee65e37c78e595ee4c8675e3832dff9a6cfc6a2c7405e3689f2a714c539060600160405180910390a1919050565b600354604051636eb1769f60e11b815233600482015230602482015282916001600160a01b03169063dd62ed3e90604401602060405180830381865afa158015610fa8573d6000803e3d6000fd5b505050506040513d601f19601f82011682018060405250810190610fcc91906114a6565b101561101a5760405162461bcd60e51b815260206004820152601860248201527f746f6b656e207370656e64206e6f7420617070726f76656400000000000000006044820152606401610382565b336000908152600c6020526040812054900361103a576005805460010190555b6003546040516323b872dd60e01b8152336004820152306024820152604481018390526001600160a01b03909116906323b872dd906064016020604051808303816000875af1158015611091573d6000803e3d6000fd5b505050506040513d601f19601f820116820180604052508101906110b59190611484565b50336000818152600c6020908152604091829020805485019055600880548501905560025482519384526001600160a01b03169083015281018290527f630c9eb89085cfe993245c555e78df45b0b8e8f31f411ddc400727738d9648349060600160405180910390a150565b61112961119a565b6001600160a01b03811661118e5760405162461bcd60e51b815260206004820152602660248201527f4f776e61626c653a206e6577206f776e657220697320746865207a65726f206160448201526564647265737360d01b6064820152608401610382565b611197816111f4565b50565b6000546001600160a01b03163314610c365760405162461bcd60e51b815260206004820181905260248201527f4f776e61626c653a2063616c6c6572206973206e6f7420746865206f776e65726044820152606401610382565b600080546001600160a01b038381166001600160a01b0319831681178455604051919092169283917f8be0079c531659141344cd1fd0a4f28419497f9722a3daafe3b4186f6b6457e09190a35050565b80356001600160a01b038116811461125b57600080fd5b919050565b60006020828403121561127257600080fd5b61127b82611244565b9392505050565b60006020828403121561129457600080fd5b5035919050565b634e487b7160e01b600052604160045260246000fd5b604051601f8201601f1916810167ffffffffffffffff811182821017156112da576112da61129b565b604052919050565b600067ffffffffffffffff8211156112fc576112fc61129b565b50601f01601f191660200190565b60008060006060848603121561131f57600080fd5b833567ffffffffffffffff81111561133657600080fd5b8401601f8101861361134757600080fd5b803561135a611355826112e2565b6112b1565b81815287602083850101111561136f57600080fd5b8160208401602083013760006020838301015280955050505061139460208501611244565b9150604084013590509250925092565b60005b838110156113bf5781810151838201526020016113a7565b50506000910152565b600081518084526113e08160208601602086016113a4565b601f01601f19169290920160200192915050565b60208152600061127b60208301846113c8565b60c08152600061141a60c08301896113c8565b6001600160a01b039790971660208301525060408101949094529115156060840152608083015260a090910152919050565b634e487b7160e01b600052601160045260246000fd5b60008261147f57634e487b7160e01b600052601260045260246000fd5b500490565b60006020828403121561149657600080fd5b8151801515811461127b57600080fd5b6000602082840312156114b857600080fd5b5051919050565b6000602082840312156114d157600080fd5b815167ffffffffffffffff8111156114e857600080fd5b8201601f810184136114f957600080fd5b8051611507611355826112e2565b81815285602083850101111561151c57600080fd5b61152d8260208301602086016113a4565b95945050505050565b808201808211156115495761154961144c565b92915050565b6000600182016115615761156161144c565b5060010190565b600181811c9082168061157c57607f821691505b60208210810361159c57634e487b7160e01b600052602260045260246000fd5b50919050565b601f8211156115ec57600081815260208120601f850160051c810160208610156115c95750805b601f850160051c820191505b818110156115e8578281556001016115d5565b5050505b505050565b815167ffffffffffffffff81111561160b5761160b61129b565b61161f816116198454611568565b846115a2565b602080601f831160018114611654576000841561163c5750858301515b600019600386901b1c1916600185901b1785556115e8565b600085815260208120601f198616915b8281101561168357888601518255948401946001909101908401611664565b50858210156116a15787850151600019600388901b60f8161c191681555b5050505050600190811b01905550565b858152600060018060a01b03808716602084015260a060408401526116d960a08401876113c8565b941660608301525060800152939250505056fea26469706673582212208a5a3e697168c1677d8fb7c46972cca03a72f28ca5b1082e48614ae5d53870b364736f6c63430008130033",
  "immutableReferences": {},
  "source": "//SPDX-License-Identifier: GPL-3.0\r\n\r\npragma solidity ^0.8.0;\r\n\r\nimport \"@openzeppelin/contracts/token/ERC20/ERC20.sol\";\r\nimport \"@openzeppelin/contracts/token/ERC20/IERC20.sol\";\r\nimport \"@openzeppelin/contracts/access/Ownable.sol\";\r\n\r\ncontract Crowdfunding is Ownable {\r\n    address public admin;\r\n    address public tokenAddress;\r\n\r\n    IERC20 public token;\r\n    string public title;\r\n    uint public noOfContributors;\r\n    uint public deadline;\r\n    uint public goal;\r\n    uint public raisedAmount;\r\n    uint public totalRequestAmount;\r\n\r\n    struct Request {\r\n        string title;\r\n        address recipient;\r\n        uint amount;\r\n        bool completed;\r\n        uint noOfVoters;\r\n        uint valueOfVotes;\r\n        mapping(address => bool) voters;\r\n    }\r\n\r\n    event ContributeEvent(\r\n        address _contributor,\r\n        address _tokenAddress,\r\n        uint _amount\r\n    );\r\n    event GetRefundEvent(\r\n        address _contributor,\r\n        address _RefundToken,\r\n        uint _RefundAmount\r\n    );\r\n    event CreateRequestEvent(\r\n        uint requestNum,\r\n        address _projectCreator,\r\n        string _title,\r\n        address _recipient,\r\n        uint _amount\r\n    );\r\n    event ReceiveContributionEvent(\r\n        address _projectCreator,\r\n        address _recipient,\r\n        uint _amount,\r\n        uint _requestNo\r\n    );\r\n    event voteRequestEvent(address _voter, uint _requestNo, uint _valueOfVote);\r\n\r\n    // cannot store Request in array as it contains mapping\r\n    // therefore use mapping\r\n    uint public numRequests;\r\n    mapping(uint => Request) public requests;\r\n    mapping(address => uint) public contributors;\r\n\r\n    constructor(\r\n        uint _goal,\r\n        uint _deadline,\r\n        address _acceptingThisToken,\r\n        string memory _title\r\n    ) {\r\n        require(_deadline > block.timestamp, \"Deadline must be in the future\");\r\n        require(isToken(_acceptingThisToken), \"Address provided is not token\");\r\n        require(\r\n            isContract(_acceptingThisToken),\r\n            \"Address provided is not a contract\"\r\n        );\r\n\r\n        title = _title;\r\n        goal = _goal;\r\n        deadline = _deadline;\r\n        admin = msg.sender;\r\n\r\n        token = IERC20(_acceptingThisToken);\r\n        tokenAddress = _acceptingThisToken;\r\n    }\r\n\r\n    function contribute(uint _amount) public {\r\n        require(\r\n            token.allowance(msg.sender, address(this)) >= _amount,\r\n            \"token spend not approved\"\r\n        );\r\n\r\n        if (contributors[msg.sender] == 0) {\r\n            unchecked {\r\n                noOfContributors++;\r\n            }\r\n        }\r\n        token.transferFrom(msg.sender, address(this), _amount);\r\n        unchecked {\r\n            contributors[msg.sender] += _amount;\r\n            raisedAmount += _amount;\r\n        }\r\n\r\n        emit ContributeEvent(msg.sender, tokenAddress, _amount);\r\n    }\r\n\r\n    function getRefund() public returns (uint) {\r\n        require(block.timestamp >= deadline, \"Deadline has not passed\");\r\n        require(raisedAmount < goal, \"Raised amount is more than goal\");\r\n        require(contributors[msg.sender] > 0, \"You need to be a contributor\");\r\n\r\n        uint _amount = contributors[msg.sender];\r\n        contributors[msg.sender] = 0;\r\n        token.approve(msg.sender, _amount);\r\n        token.transfer(msg.sender, _amount);\r\n        emit GetRefundEvent(msg.sender, address(token), _amount);\r\n        return _amount;\r\n    }\r\n\r\n    function createRequest(\r\n        string memory _title,\r\n        address _recipient,\r\n        uint _amount\r\n    ) public onlyOwner {\r\n        require(\r\n            raisedAmount > 0,\r\n            \"Unable to create request as there are no contributions\"\r\n        );\r\n        require(\r\n            (totalRequestAmount + _amount) <= raisedAmount,\r\n            \"This transaction will cause totalRequestAmount to exceed raisedAmount\"\r\n        );\r\n\r\n        uint _requestNo = numRequests;\r\n        Request storage newRequest = requests[numRequests];\r\n        numRequests++;\r\n\r\n        newRequest.title = _title;\r\n        newRequest.recipient = _recipient;\r\n        newRequest.amount = _amount;\r\n        newRequest.completed = false;\r\n        newRequest.noOfVoters = 0;\r\n\r\n        totalRequestAmount += _amount;\r\n\r\n        emit CreateRequestEvent(\r\n            _requestNo,\r\n            msg.sender,\r\n            _title,\r\n            _recipient,\r\n            _amount\r\n        );\r\n    }\r\n\r\n    function voteRequest(uint _requestNo) public {\r\n        require(numRequests >= _requestNo, \"Request does not exist.\");\r\n        require(\r\n            msg.sender != owner(),\r\n            \"As the owner, not allowed to vote for this request\"\r\n        );\r\n\r\n        // must have contributed before voting\r\n        require(\r\n            contributors[msg.sender] > 0,\r\n            \"You must be a contributor to vote!\"\r\n        );\r\n\r\n        Request storage thisRequest = requests[_requestNo];\r\n        require(\r\n            thisRequest.voters[msg.sender] == false,\r\n            \"You have already voted\"\r\n        );\r\n        require(\r\n            thisRequest.recipient != address(0),\r\n            \"Request has not been initiated\"\r\n        );\r\n\r\n        uint _valueOfVote = contributors[msg.sender];\r\n        thisRequest.valueOfVotes += _valueOfVote;\r\n        thisRequest.noOfVoters++;\r\n        thisRequest.voters[msg.sender] = true;\r\n        emit voteRequestEvent(msg.sender, _requestNo, _valueOfVote);\r\n    }\r\n\r\n    function receiveContribution(\r\n        uint _requestNo\r\n    ) public onlyOwner returns (address, uint) {\r\n        require(\r\n            raisedAmount >= goal,\r\n            \"raisedAmount must be more than or equal to goal\"\r\n        );\r\n\r\n        Request storage thisRequest = requests[_requestNo];\r\n        require(\r\n            thisRequest.completed == false,\r\n            \"The request has been completed.\"\r\n        );\r\n        uint ratio = goal / thisRequest.valueOfVotes;\r\n        require(ratio < 2, \"value of votes fail to meet requirement\");\r\n\r\n        address _recipient = thisRequest.recipient;\r\n        uint _amount = thisRequest.amount;\r\n        token.transfer(_recipient, _amount);\r\n        thisRequest.completed = true;\r\n        emit ReceiveContributionEvent(\r\n            msg.sender,\r\n            _recipient,\r\n            _amount,\r\n            _requestNo\r\n        );\r\n        return (thisRequest.recipient, thisRequest.amount);\r\n    }\r\n\r\n    // this function will run at constructor\r\n    function isContract(address _address) public view returns (bool) {\r\n        uint size;\r\n        assembly {\r\n            size := extcodesize(_address)\r\n        }\r\n        return size > 0;\r\n    }\r\n\r\n    // this function will run at constructor\r\n    function isToken(address _address) public view returns (bool) {\r\n        ERC20 testAddress = ERC20(_address);\r\n        require(testAddress.balanceOf(msg.sender) >= 0, \"method doesn't exist\");\r\n        require(testAddress.totalSupply() > 0, \"Supply is 0\");\r\n        bytes memory _testString = bytes(testAddress.name());\r\n\r\n        return _testString.length > 0;\r\n    }\r\n}\r\n",
  "sourcePath": "C:\\Users\\kimwu\\Desktop\\TFIP-NUS\\proj\\truffle\\contracts\\Crowdfunding.sol",
  "compiler": {
    "name": "solc",
    "version": "0.8.19+commit.7dd6d404.Emscripten.clang"
  },
  "schemaVersion": "3.4.13",
  "updatedAt": "2023-05-25T09:31:26.955Z",
  "networkType": "ethereum",
  "devdoc": {
    "kind": "dev",
    "methods": {
      "owner()": {
        "details": "Returns the address of the current owner."
      },
      "renounceOwnership()": {
        "details": "Leaves the contract without owner. It will not be possible to call `onlyOwner` functions. Can only be called by the current owner. NOTE: Renouncing ownership will leave the contract without an owner, thereby disabling any functionality that is only available to the owner."
      },
      "transferOwnership(address)": {
        "details": "Transfers ownership of the contract to a new account (`newOwner`). Can only be called by the current owner."
      }
    },
    "version": 1
  },
  "userdoc": {
    "kind": "user",
    "methods": {},
    "version": 1
  }
}