{
  "contractName": "CrowdfundingFactory",
  "abi": [
    {
      "inputs": [],
      "stateMutability": "nonpayable",
      "type": "constructor"
    },
    {
      "anonymous": false,
      "inputs": [
        {
          "indexed": false,
          "internalType": "address",
          "name": "_projectAddress",
          "type": "address"
        },
        {
          "indexed": false,
          "internalType": "address",
          "name": "_sender",
          "type": "address"
        },
        {
          "indexed": false,
          "internalType": "address",
          "name": "_tokenAddress",
          "type": "address"
        },
        {
          "indexed": false,
          "internalType": "uint256",
          "name": "_amount",
          "type": "uint256"
        }
      ],
      "name": "ContributeEvent",
      "type": "event"
    },
    {
      "anonymous": false,
      "inputs": [
        {
          "indexed": false,
          "internalType": "address",
          "name": "_projectAddress",
          "type": "address"
        },
        {
          "indexed": false,
          "internalType": "string",
          "name": "_description",
          "type": "string"
        },
        {
          "indexed": false,
          "internalType": "address",
          "name": "_recipient",
          "type": "address"
        },
        {
          "indexed": false,
          "internalType": "uint256",
          "name": "_amount",
          "type": "uint256"
        }
      ],
      "name": "CreateRequestEvent",
      "type": "event"
    },
    {
      "anonymous": false,
      "inputs": [
        {
          "indexed": false,
          "internalType": "address",
          "name": "_projectAddress",
          "type": "address"
        },
        {
          "indexed": false,
          "internalType": "string",
          "name": "_description",
          "type": "string"
        },
        {
          "indexed": false,
          "internalType": "uint256",
          "name": "_goal",
          "type": "uint256"
        },
        {
          "indexed": false,
          "internalType": "uint256",
          "name": "_timeAhead",
          "type": "uint256"
        },
        {
          "indexed": false,
          "internalType": "address",
          "name": "_tokenUsed",
          "type": "address"
        }
      ],
      "name": "NewProjectInitiated",
      "type": "event"
    },
    {
      "anonymous": false,
      "inputs": [
        {
          "indexed": true,
          "internalType": "address",
          "name": "previousOwner",
          "type": "address"
        },
        {
          "indexed": true,
          "internalType": "address",
          "name": "newOwner",
          "type": "address"
        }
      ],
      "name": "OwnershipTransferred",
      "type": "event"
    },
    {
      "anonymous": false,
      "inputs": [
        {
          "indexed": false,
          "internalType": "address",
          "name": "_projectAddress",
          "type": "address"
        },
        {
          "indexed": false,
          "internalType": "address",
          "name": "_recipient",
          "type": "address"
        },
        {
          "indexed": false,
          "internalType": "uint256",
          "name": "_amount",
          "type": "uint256"
        }
      ],
      "name": "ReceiveContributionEvent",
      "type": "event"
    },
    {
      "anonymous": false,
      "inputs": [
        {
          "indexed": false,
          "internalType": "address",
          "name": "_projectAddress",
          "type": "address"
        },
        {
          "indexed": false,
          "internalType": "address",
          "name": "_contributer",
          "type": "address"
        },
        {
          "indexed": false,
          "internalType": "address",
          "name": "_RefundToken",
          "type": "address"
        },
        {
          "indexed": false,
          "internalType": "uint256",
          "name": "_RefundAmount",
          "type": "uint256"
        }
      ],
      "name": "RefundFromProject",
      "type": "event"
    },
    {
      "inputs": [
        {
          "internalType": "address",
          "name": "",
          "type": "address"
        }
      ],
      "name": "allowedAddresses",
      "outputs": [
        {
          "internalType": "bool",
          "name": "",
          "type": "bool"
        }
      ],
      "stateMutability": "view",
      "type": "function"
    },
    {
      "inputs": [],
      "name": "owner",
      "outputs": [
        {
          "internalType": "address",
          "name": "",
          "type": "address"
        }
      ],
      "stateMutability": "view",
      "type": "function"
    },
    {
      "inputs": [
        {
          "internalType": "address",
          "name": "",
          "type": "address"
        }
      ],
      "name": "projects",
      "outputs": [
        {
          "internalType": "string",
          "name": "description",
          "type": "string"
        },
        {
          "internalType": "contract Crowdfunding",
          "name": "project",
          "type": "address"
        }
      ],
      "stateMutability": "view",
      "type": "function"
    },
    {
      "inputs": [],
      "name": "renounceOwnership",
      "outputs": [],
      "stateMutability": "nonpayable",
      "type": "function"
    },
    {
      "inputs": [
        {
          "internalType": "address",
          "name": "newOwner",
          "type": "address"
        }
      ],
      "name": "transferOwnership",
      "outputs": [],
      "stateMutability": "nonpayable",
      "type": "function"
    },
    {
      "inputs": [
        {
          "internalType": "uint256",
          "name": "_goal",
          "type": "uint256"
        },
        {
          "internalType": "uint256",
          "name": "_timeAhead",
          "type": "uint256"
        },
        {
          "internalType": "address",
          "name": "_acceptingThisToken",
          "type": "address"
        },
        {
          "internalType": "string",
          "name": "_description",
          "type": "string"
        }
      ],
      "name": "createNewProject",
      "outputs": [
        {
          "internalType": "address",
          "name": "",
          "type": "address"
        }
      ],
      "stateMutability": "nonpayable",
      "type": "function"
    },
    {
      "inputs": [
        {
          "internalType": "address",
          "name": "_projectAddress",
          "type": "address"
        },
        {
          "internalType": "uint256",
          "name": "_amount",
          "type": "uint256"
        }
      ],
      "name": "contributeToProject",
      "outputs": [],
      "stateMutability": "nonpayable",
      "type": "function"
    },
    {
      "inputs": [
        {
          "internalType": "address",
          "name": "_projectAddress",
          "type": "address"
        }
      ],
      "name": "getBalanceOfProject",
      "outputs": [
        {
          "internalType": "uint256",
          "name": "",
          "type": "uint256"
        }
      ],
      "stateMutability": "view",
      "type": "function"
    },
    {
      "inputs": [
        {
          "internalType": "address",
          "name": "_projectAddress",
          "type": "address"
        }
      ],
      "name": "getRefundFromProject",
      "outputs": [
        {
          "internalType": "uint256",
          "name": "",
          "type": "uint256"
        }
      ],
      "stateMutability": "nonpayable",
      "type": "function"
    },
    {
      "inputs": [
        {
          "internalType": "address",
          "name": "_projectAddress",
          "type": "address"
        },
        {
          "internalType": "string",
          "name": "_description",
          "type": "string"
        },
        {
          "internalType": "address",
          "name": "_recipient",
          "type": "address"
        },
        {
          "internalType": "uint256",
          "name": "_amount",
          "type": "uint256"
        }
      ],
      "name": "createRequestForProject",
      "outputs": [],
      "stateMutability": "nonpayable",
      "type": "function"
    },
    {
      "inputs": [
        {
          "internalType": "address",
          "name": "_projectAddress",
          "type": "address"
        },
        {
          "internalType": "uint256",
          "name": "_requestNo",
          "type": "uint256"
        }
      ],
      "name": "voteRequestForProject",
      "outputs": [],
      "stateMutability": "nonpayable",
      "type": "function"
    },
    {
      "inputs": [
        {
          "internalType": "address",
          "name": "_projectAddress",
          "type": "address"
        },
        {
          "internalType": "uint256",
          "name": "_requestNo",
          "type": "uint256"
        }
      ],
      "name": "receiveContributionFromProject",
      "outputs": [],
      "stateMutability": "nonpayable",
      "type": "function"
    },
    {
      "inputs": [
        {
          "internalType": "address",
          "name": "_allowThisAddress",
          "type": "address"
        }
      ],
      "name": "allowAddress",
      "outputs": [],
      "stateMutability": "nonpayable",
      "type": "function"
    },
    {
      "inputs": [
        {
          "internalType": "address",
          "name": "_disallowThisAddress",
          "type": "address"
        }
      ],
      "name": "disallowAddress",
      "outputs": [],
      "stateMutability": "nonpayable",
      "type": "function"
    },
    {
      "inputs": [
        {
          "internalType": "address",
          "name": "_projectAddress",
          "type": "address"
        },
        {
          "internalType": "uint256",
          "name": "_requestNo",
          "type": "uint256"
        }
      ],
      "name": "getRequestOfProject",
      "outputs": [
        {
          "internalType": "string",
          "name": "",
          "type": "string"
        },
        {
          "internalType": "address",
          "name": "",
          "type": "address"
        },
        {
          "internalType": "uint256",
          "name": "",
          "type": "uint256"
        },
        {
          "internalType": "bool",
          "name": "",
          "type": "bool"
        },
        {
          "internalType": "uint256",
          "name": "",
          "type": "uint256"
        },
        {
          "internalType": "uint256",
          "name": "",
          "type": "uint256"
        }
      ],
      "stateMutability": "view",
      "type": "function"
    },
    {
      "inputs": [
        {
          "internalType": "address",
          "name": "_projectAddress",
          "type": "address"
        }
      ],
      "name": "getNumOfRequestOfProject",
      "outputs": [
        {
          "internalType": "uint256",
          "name": "",
          "type": "uint256"
        }
      ],
      "stateMutability": "view",
      "type": "function"
    },
    {
      "inputs": [
        {
          "internalType": "address",
          "name": "_projectAddress",
          "type": "address"
        }
      ],
      "name": "getDescriptionOfProject",
      "outputs": [
        {
          "internalType": "string",
          "name": "",
          "type": "string"
        },
        {
          "internalType": "address",
          "name": "",
          "type": "address"
        }
      ],
      "stateMutability": "view",
      "type": "function"
    },
    {
      "inputs": [],
      "name": "toggleFreeForAll",
      "outputs": [],
      "stateMutability": "nonpayable",
      "type": "function"
    }
  ],
  "bytecode": "0x608060405234801561001057600080fd5b5061001a3361002c565b6003805460ff1916600117905561007c565b600080546001600160a01b038381166001600160a01b0319831681178455604051919092169283917f8be0079c531659141344cd1fd0a4f28419497f9722a3daafe3b4186f6b6457e09190a35050565b612cd28061008b6000396000f3fe60806040523480156200001157600080fd5b50600436106200012d5760003560e01c80638da5cb5b11620000af578063beb80b55116200007a578063beb80b5514620002aa578063c7c1037614620002d5578063eb42cfd614620002ec578063f2fde38b1462000303578063fb8c12fd146200031a57600080fd5b80638da5cb5b14620002525780639a4c1d201462000264578063b7c58d7a146200027b578063b8da41f9146200029257600080fd5b80633f3c2acd11620000fc5780633f3c2acd14620001ad5780634120657a14620001c4578063697761f414620001fb578063715018a61462000221578063840e78fd146200022b57600080fd5b806301ae2ac6146200013257806308af4d88146200014b578063224b06bd146200016257806334fea02b1462000196575b600080fd5b620001496200014336600462001125565b62000331565b005b620001496200015c36600462001197565b620003de565b6200017962000173366004620011b7565b62000433565b6040516001600160a01b0390911681526020015b60405180910390f35b62000149620001a736600462001220565b620005fe565b62000149620001be36600462001220565b62000667565b620001ea620001d536600462001197565b60026020526000908152604090205460ff1681565b60405190151581526020016200018d565b620002126200020c36600462001197565b620007a2565b6040519081526020016200018d565b62000149620008d8565b620002426200023c36600462001197565b620008f0565b6040516200018d929190620012a3565b6000546001600160a01b031662000179565b620002126200027536600462001197565b620009a5565b620001496200028c36600462001197565b62000a17565b620001496003805460ff19811660ff90911615179055565b620002c1620002bb36600462001220565b62000a6d565b6040516200018d96959493929190620012cf565b62000242620002e636600462001197565b62000d24565b62000212620002fd36600462001197565b62000dfe565b620001496200031436600462001197565b62000e43565b620001496200032b36600462001220565b62000ec2565b6040516306c5aed760e21b815284906001600160a01b03821690631b16bb5c90620003659087908790879060040162001316565b600060405180830381600087803b1580156200038057600080fd5b505af115801562000395573d6000803e3d6000fd5b505050507e1798532b1556c67055e1d372eb9812025ce88b7c240edee91ac706474b5e8f85858585604051620003cf949392919062001346565b60405180910390a15050505050565b620003e862000f84565b6001600160a01b03811660009081526002602052604090205460ff16156200040f57600080fd5b6001600160a01b03166000908152600260205260409020805460ff19166001179055565b60035460009060ff16620004a4573360009081526002602052604090205460ff161515600114620004a45760405162461bcd60e51b81526020600482015260166024820152751059191c995cdcc81a5cc81b9bdd08185b1b1bddd95960521b60448201526064015b60405180910390fd5b600030868686604051620004b89062001030565b6001600160a01b039485168152602081019390935260408301919091529091166060820152608001604051809103906000f080158015620004fd573d6000803e3d6000fd5b5090506001600160a01b0381166200051457600080fd5b60405163f2fde38b60e01b81523360048201526001600160a01b0382169063f2fde38b90602401600060405180830381600087803b1580156200055657600080fd5b505af11580156200056b573d6000803e3d6000fd5b505050506001600160a01b0381166000908152600160205260409020806200059485826200140b565b506001810180546001600160a01b0319166001600160a01b0384161790556040517f12bcc47729479e6268d59e8586112a227ec34cc6b97ab5623e6cd3effaf2e3e790620005ec90849087908b908b908b90620014d8565b60405180910390a15095945050505050565b6040516314dfb23b60e21b81526004810182905233602482015282906001600160a01b0382169063537ec8ec90604401600060405180830381600087803b1580156200064957600080fd5b505af11580156200065e573d6000803e3d6000fd5b50505050505050565b6000829050600080826001600160a01b0316639d76ea586040518163ffffffff1660e01b8152600401602060405180830381865afa158015620006ae573d6000803e3d6000fd5b505050506040513d601f19601f82011682018060405250810190620006d491906200151b565b60405163060b0b0f60e41b8152600481018690523360248201529091506001600160a01b038416906360b0b0f0906044016020604051808303816000875af115801562000725573d6000803e3d6000fd5b505050506040513d601f19601f820116820180604052508101906200074b91906200151b565b604080516001600160a01b0380891682528084166020830152841691810191909152606081018690529092507f74f17328cd0f988acd5c92b79366ef37d01ff3f6ca268eaf57ac16e74a17a02890608001620003cf565b604051631a5b163160e21b8152336004820152600090829082906001600160a01b0383169063696c58c4906024016020604051808303816000875af1158015620007f0573d6000803e3d6000fd5b505050506040513d601f19601f820116820180604052508101906200081691906200153b565b90507fcefb186193a7570dbb84db4a81b76b05b6f55f47b99c276bf168bf1aaa5314178433846001600160a01b0316639d76ea586040518163ffffffff1660e01b8152600401602060405180830381865afa1580156200087a573d6000803e3d6000fd5b505050506040513d601f19601f82011682018060405250810190620008a091906200151b565b604080516001600160a01b03948516815292841660208401529216818301526060810184905290519081900360800190a19392505050565b620008e262000f84565b620008ee600062000fe0565b565b6001602052600090815260409020805481906200090d906200137c565b80601f01602080910402602001604051908101604052809291908181526020018280546200093b906200137c565b80156200098c5780601f1062000960576101008083540402835291602001916200098c565b820191906000526020600020905b8154815290600101906020018083116200096e57829003601f168201915b505050600190930154919250506001600160a01b031682565b600080829050806001600160a01b03166312065fe06040518163ffffffff1660e01b8152600401602060405180830381865afa158015620009ea573d6000803e3d6000fd5b505050506040513d601f19601f8201168201806040525081019062000a1091906200153b565b9392505050565b62000a2162000f84565b6001600160a01b03811660009081526002602052604090205460ff16151560011462000a4c57600080fd5b6001600160a01b03166000908152600260205260409020805460ff19169055565b6060600080600080600080889050806001600160a01b0316636ddfaed1896040518263ffffffff1660e01b815260040162000aaa91815260200190565b600060405180830381865afa15801562000ac8573d6000803e3d6000fd5b505050506040513d6000823e601f3d908101601f1916820160405262000af2919081019062001555565b604051635b8575a960e01b8152600481018a90526001600160a01b03831690635b8575a990602401602060405180830381865afa15801562000b38573d6000803e3d6000fd5b505050506040513d601f19601f8201168201806040525081019062000b5e91906200151b565b604051632f0829f760e01b8152600481018b90526001600160a01b03841690632f0829f790602401602060405180830381865afa15801562000ba4573d6000803e3d6000fd5b505050506040513d601f19601f8201168201806040525081019062000bca91906200153b565b60405163d42c48d160e01b8152600481018c90526001600160a01b0385169063d42c48d190602401602060405180830381865afa15801562000c10573d6000803e3d6000fd5b505050506040513d601f19601f8201168201806040525081019062000c369190620015d5565b60405163a43b6fff60e01b8152600481018d90526001600160a01b0386169063a43b6fff90602401602060405180830381865afa15801562000c7c573d6000803e3d6000fd5b505050506040513d601f19601f8201168201806040525081019062000ca291906200153b565b604051631bc9247160e11b8152600481018e90526001600160a01b0387169063379248e290602401602060405180830381865afa15801562000ce8573d6000803e3d6000fd5b505050506040513d601f19601f8201168201806040525081019062000d0e91906200153b565b949e939d50919b50995097509095509350505050565b6001600160a01b0381166000908152600160205260408120805460609291829162000d4f906200137c565b80601f016020809104026020016040519081016040528092919081815260200182805462000d7d906200137c565b801562000dce5780601f1062000da25761010080835404028352916020019162000dce565b820191906000526020600020905b81548152906001019060200180831162000db057829003601f168201915b505050506001600160a01b0395861660009081526001602081905260409091200154919691909516945092505050565b600080829050806001600160a01b0316639fb42b1f6040518163ffffffff1660e01b8152600401602060405180830381865afa158015620009ea573d6000803e3d6000fd5b62000e4d62000f84565b6001600160a01b03811662000eb45760405162461bcd60e51b815260206004820152602660248201527f4f776e61626c653a206e6577206f776e657220697320746865207a65726f206160448201526564647265737360d01b60648201526084016200049b565b62000ebf8162000fe0565b50565b6040516303016e2760e31b815260048101829052829060009081906001600160a01b0384169063180b71389060240160408051808303816000875af115801562000f10573d6000803e3d6000fd5b505050506040513d601f19601f8201168201806040525081019062000f369190620015f9565b604080516001600160a01b03808a1682528416602082015290810182905291935091507f90a20c11013202e8ec3b4dd5d78074690a731508775c78e454ec5e8c9921928f90606001620003cf565b6000546001600160a01b03163314620008ee5760405162461bcd60e51b815260206004820181905260248201527f4f776e61626c653a2063616c6c6572206973206e6f7420746865206f776e657260448201526064016200049b565b600080546001600160a01b038381166001600160a01b0319831681178455604051919092169283917f8be0079c531659141344cd1fd0a4f28419497f9722a3daafe3b4186f6b6457e09190a35050565b611672806200162b83390190565b6001600160a01b038116811462000ebf57600080fd5b634e487b7160e01b600052604160045260246000fd5b604051601f8201601f1916810167ffffffffffffffff8111828210171562001096576200109662001054565b604052919050565b600067ffffffffffffffff821115620010bb57620010bb62001054565b50601f01601f191660200190565b600082601f830112620010db57600080fd5b8135620010f2620010ec826200109e565b6200106a565b8181528460208386010111156200110857600080fd5b816020850160208301376000918101602001919091529392505050565b600080600080608085870312156200113c57600080fd5b843562001149816200103e565b9350602085013567ffffffffffffffff8111156200116657600080fd5b6200117487828801620010c9565b935050604085013562001187816200103e565b9396929550929360600135925050565b600060208284031215620011aa57600080fd5b813562000a10816200103e565b60008060008060808587031215620011ce57600080fd5b84359350602085013592506040850135620011e9816200103e565b9150606085013567ffffffffffffffff8111156200120657600080fd5b6200121487828801620010c9565b91505092959194509250565b600080604083850312156200123457600080fd5b823562001241816200103e565b946020939093013593505050565b60005b838110156200126c57818101518382015260200162001252565b50506000910152565b600081518084526200128f8160208601602086016200124f565b601f01601f19169290920160200192915050565b604081526000620012b8604083018562001275565b905060018060a01b03831660208301529392505050565b60c081526000620012e460c083018962001275565b6001600160a01b039790971660208301525060408101949094529115156060840152608083015260a090910152919050565b6060815260006200132b606083018662001275565b6001600160a01b039490941660208301525060400152919050565b600060018060a01b038087168352608060208401526200136a608084018762001275565b94166040830152506060015292915050565b600181811c908216806200139157607f821691505b602082108103620013b257634e487b7160e01b600052602260045260246000fd5b50919050565b601f8211156200140657600081815260208120601f850160051c81016020861015620013e15750805b601f850160051c820191505b818110156200140257828155600101620013ed565b5050505b505050565b815167ffffffffffffffff81111562001428576200142862001054565b62001440816200143984546200137c565b84620013b8565b602080601f8311600181146200147857600084156200145f5750858301515b600019600386901b1c1916600185901b17855562001402565b600085815260208120601f198616915b82811015620014a95788860151825594840194600190910190840162001488565b5085821015620014c85787850151600019600388901b60f8161c191681555b5050505050600190811b01905550565b600060018060a01b03808816835260a06020840152620014fc60a084018862001275565b6040840196909652606083019490945250911660809091015292915050565b6000602082840312156200152e57600080fd5b815162000a10816200103e565b6000602082840312156200154e57600080fd5b5051919050565b6000602082840312156200156857600080fd5b815167ffffffffffffffff8111156200158057600080fd5b8201601f810184136200159257600080fd5b8051620015a3620010ec826200109e565b818152856020838501011115620015b957600080fd5b620015cc8260208301602086016200124f565b95945050505050565b600060208284031215620015e857600080fd5b8151801515811462000a1057600080fd5b600080604083850312156200160d57600080fd5b82516200161a816200103e565b602093909301519294929350505056fe6080604052620f4240600a553480156200001857600080fd5b5060405162001672380380620016728339810160408190526200003b9162000129565b6200004633620000bc565b600380546001600160a01b0319166001600160a01b038616179055600883905562000072824262000174565b6007556064600655600180546001600160a01b03199081163317909155600480546001600160a01b039390931692821683179055600280549091169091179055506200019c915050565b600080546001600160a01b038381166001600160a01b0319831681178455604051919092169283917f8be0079c531659141344cd1fd0a4f28419497f9722a3daafe3b4186f6b6457e09190a35050565b80516001600160a01b03811681146200012457600080fd5b919050565b600080600080608085870312156200014057600080fd5b6200014b856200010c565b9350602085015192506040850151915062000169606086016200010c565b905092959194509250565b808201808211156200019657634e487b7160e01b600052601160045260246000fd5b92915050565b6114c680620001ac6000396000f3fe608060405234801561001057600080fd5b50600436106101a95760003560e01c8063696c58c4116100f95780639fb42b1f11610097578063d42c48d111610071578063d42c48d1146103d0578063f2fde38b14610406578063f851a44014610419578063fc0c546a1461042c57600080fd5b80639fb42b1f1461039b578063a43b6fff146103a4578063c59ee1dc146103c757600080fd5b806381d12c58116100d357806381d12c58146103495780638da5cb5b1461036e578063937e09b11461037f5780639d76ea581461038857600080fd5b8063696c58c41461030e5780636ddfaed114610321578063715018a61461034157600080fd5b806334b66460116101665780634e260f6f116101405780634e260f6f146102b3578063537ec8ec146102bc5780635b8575a9146102cf57806360b0b0f0146102fb57600080fd5b806334b6646014610267578063379248e21461028757806340193883146102aa57600080fd5b806312065fe0146101ae578063180b7138146101c95780631b16bb5c146101fb578063232af2551461021057806329dcb0cf1461023b5780632f0829f714610244575b600080fd5b6101b661043f565b6040519081526020015b60405180910390f35b6101dc6101d7366004611018565b6104b6565b604080516001600160a01b0390931683526020830191909152016101c0565b61020e610209366004611063565b610740565b005b600354610223906001600160a01b031681565b6040516001600160a01b0390911681526020016101c0565b6101b660075481565b6101b6610252366004611018565b6000908152600c602052604090206002015490565b6101b661027536600461112e565b600d6020526000908152604090205481565b6101b6610295366004611018565b6000908152600c602052604090206005015490565b6101b660085481565b6101b660055481565b61020e6102ca366004611150565b610827565b6102236102dd366004611018565b6000908152600c60205260409020600101546001600160a01b031690565b610223610309366004611150565b610aac565b6101b661031c36600461112e565b610c9f565b61033461032f366004611018565b610d75565b6040516101c091906111c2565b61020e610e17565b61035c610357366004611018565b610e2b565b6040516101c0969594939291906111d5565b6000546001600160a01b0316610223565b6101b660065481565b600254610223906001600160a01b031681565b6101b6600b5481565b6101b66103b2366004611018565b6000908152600c602052604090206004015490565b6101b660095481565b6103f66103de366004611018565b6000908152600c602052604090206003015460ff1690565b60405190151581526020016101c0565b61020e61041436600461112e565b610ef5565b600154610223906001600160a01b031681565b600454610223906001600160a01b031681565b600480546040516370a0823160e01b815230928101929092526000916001600160a01b03909116906370a0823190602401602060405180830381865afa15801561048d573d6000803e3d6000fd5b505050506040513d601f19601f820116820180604052508101906104b1919061121a565b905090565b6000806104cb6000546001600160a01b031690565b6001600160a01b0316336001600160a01b031614806104f457506003546001600160a01b031633145b6105195760405162461bcd60e51b815260040161051090611233565b60405180910390fd5b60085460095410156105855760405162461bcd60e51b815260206004820152602f60248201527f726169736564416d6f756e74206d757374206265206d6f7265207468616e206f60448201526e1c88195c5d585b081d1bc819dbd85b608a1b6064820152608401610510565b6000838152600c60205260409020600381015460ff16156105e85760405162461bcd60e51b815260206004820152601f60248201527f546865207265717565737420686173206265656e20636f6d706c657465642e006044820152606401610510565b600a80546005919081906105fc9084611292565b61060691906112a9565b8360050154116106405760405162461bcd60e51b815260206004820152600560248201526432b93937b960d91b6044820152606401610510565b600480546001850154600286015460405163a9059cbb60e01b81526001600160a01b03928316948101949094526024840152169063a9059cbb906044016020604051808303816000875af115801561069c573d6000803e3d6000fd5b505050506040513d601f19601f820116820180604052508101906106c091906112cb565b5060038301805460ff191660019081179091558301546002840154604080516001600160a01b03909316835260208301919091527fc04961a77e387a2654814d5b649460d0b0916738be46777ed5e1ee2b76c354d6910160405180910390a1505060018101546002909101546001600160a01b0390911692509050915091565b6000546001600160a01b031633148061076357506003546001600160a01b031633145b61077f5760405162461bcd60e51b815260040161051090611233565b600b80546000818152600c60205260408120929061079c836112ed565b909155508190506107ad858261138f565b506001810180546001600160a01b0319166001600160a01b0385161790556002810182905560038101805460ff19169055600060048201556040517f5392bd80651676ccaaedec1afbe841d47e369223df0ba1586110b6426ee87a3a906108199086908690869061144f565b60405180910390a150505050565b81600b5410156108795760405162461bcd60e51b815260206004820152601760248201527f5265717565737420646f6573206e6f742065786973742e0000000000000000006044820152606401610510565b6000546001600160a01b03166001600160a01b0316816001600160a01b0316036108e55760405162461bcd60e51b815260206004820181905260248201527f596f75277265206e6f7420616c6c6f77656420746f20636f6e747269627574656044820152606401610510565b6001600160a01b0381166000908152600d60205260409020546109555760405162461bcd60e51b815260206004820152602260248201527f596f75206d757374206265206120636f6e7472696275746f7220746f20766f74604482015261652160f01b6064820152608401610510565b6000828152600c602090815260408083206001600160a01b0385168452600681019092529091205460ff16156109c65760405162461bcd60e51b8152602060048201526016602482015275165bdd481a185d9948185b1c9958591e481d9bdd195960521b6044820152606401610510565b60018101546001600160a01b0316610a205760405162461bcd60e51b815260206004820152601e60248201527f5265717565737420686173206e6f74206265656e20696e6974696174656400006044820152606401610510565b600854600a546001600160a01b0384166000908152600d6020526040902054610a499190611292565b610a5391906112a9565b816005016000828254610a66919061147d565b9091555050600481018054906000610a7d836112ed565b90915550506001600160a01b039091166000908152600690910160205260409020805460ff1916600117905550565b6000600654831015610b005760405162461bcd60e51b815260206004820152601c60248201527f6d696e696d756d20636f6e747269627574696f6e206e6f74206d6574000000006044820152606401610510565b60048054604051636eb1769f60e11b81526001600160a01b038581169382019390935230602482015285929091169063dd62ed3e90604401602060405180830381865afa158015610b55573d6000803e3d6000fd5b505050506040513d601f19601f82011682018060405250810190610b79919061121a565b1015610bc75760405162461bcd60e51b815260206004820152601860248201527f746f6b656e207370656e64206e6f7420617070726f76656400000000000000006044820152606401610510565b6001600160a01b0382166000908152600d60205260408120549003610bf0576005805460010190555b600480546040516323b872dd60e01b81526001600160a01b0385811693820193909352306024820152604481018690529116906323b872dd906064016020604051808303816000875af1158015610c4b573d6000803e3d6000fd5b505050506040513d601f19601f82011682018060405250810190610c6f91906112cb565b50506001600160a01b0381166000908152600d602052604090208054830190556009805483019055805b92915050565b60006007544210158015610cb65750600854600954105b610cbf57600080fd5b6001600160a01b0382166000908152600d6020526040902054610ce157600080fd5b6001600160a01b038281166000818152600d6020526040808220805492905560048054915163a9059cbb60e01b815290810193909352602483018290529092169063a9059cbb906044016020604051808303816000875af1158015610d4a573d6000803e3d6000fd5b505050506040513d601f19601f82011682018060405250810190610d6e91906112cb565b5092915050565b6000818152600c60205260409020805460609190610d9290611306565b80601f0160208091040260200160405190810160405280929190818152602001828054610dbe90611306565b8015610e0b5780601f10610de057610100808354040283529160200191610e0b565b820191906000526020600020905b815481529060010190602001808311610dee57829003601f168201915b50505050509050919050565b610e1f610f6e565b610e296000610fc8565b565b600c60205260009081526040902080548190610e4690611306565b80601f0160208091040260200160405190810160405280929190818152602001828054610e7290611306565b8015610ebf5780601f10610e9457610100808354040283529160200191610ebf565b820191906000526020600020905b815481529060010190602001808311610ea257829003601f168201915b505050600184015460028501546003860154600487015460059097015495966001600160a01b039093169591945060ff16925086565b610efd610f6e565b6001600160a01b038116610f625760405162461bcd60e51b815260206004820152602660248201527f4f776e61626c653a206e6577206f776e657220697320746865207a65726f206160448201526564647265737360d01b6064820152608401610510565b610f6b81610fc8565b50565b6000546001600160a01b03163314610e295760405162461bcd60e51b815260206004820181905260248201527f4f776e61626c653a2063616c6c6572206973206e6f7420746865206f776e65726044820152606401610510565b600080546001600160a01b038381166001600160a01b0319831681178455604051919092169283917f8be0079c531659141344cd1fd0a4f28419497f9722a3daafe3b4186f6b6457e09190a35050565b60006020828403121561102a57600080fd5b5035919050565b634e487b7160e01b600052604160045260246000fd5b80356001600160a01b038116811461105e57600080fd5b919050565b60008060006060848603121561107857600080fd5b833567ffffffffffffffff8082111561109057600080fd5b818601915086601f8301126110a457600080fd5b8135818111156110b6576110b6611031565b604051601f8201601f19908116603f011681019083821181831017156110de576110de611031565b816040528281528960208487010111156110f757600080fd5b82602086016020830137600060208483010152809750505050505061111e60208501611047565b9150604084013590509250925092565b60006020828403121561114057600080fd5b61114982611047565b9392505050565b6000806040838503121561116357600080fd5b8235915061117360208401611047565b90509250929050565b6000815180845260005b818110156111a257602081850181015186830182015201611186565b506000602082860101526020601f19601f83011685010191505092915050565b602081526000611149602083018461117c565b60c0815260006111e860c083018961117c565b6001600160a01b039790971660208301525060408101949094529115156060840152608083015260a090910152919050565b60006020828403121561122c57600080fd5b5051919050565b60208082526029908201527f596f7520617265206e6569746865722074686520666163746f7279206e6f72206040820152683a34329037bbb732b960b91b606082015260800190565b634e487b7160e01b600052601160045260246000fd5b8082028115828204841417610c9957610c9961127c565b6000826112c657634e487b7160e01b600052601260045260246000fd5b500490565b6000602082840312156112dd57600080fd5b8151801515811461114957600080fd5b6000600182016112ff576112ff61127c565b5060010190565b600181811c9082168061131a57607f821691505b60208210810361133a57634e487b7160e01b600052602260045260246000fd5b50919050565b601f82111561138a57600081815260208120601f850160051c810160208610156113675750805b601f850160051c820191505b8181101561138657828155600101611373565b5050505b505050565b815167ffffffffffffffff8111156113a9576113a9611031565b6113bd816113b78454611306565b84611340565b602080601f8311600181146113f257600084156113da5750858301515b600019600386901b1c1916600185901b178555611386565b600085815260208120601f198616915b8281101561142157888601518255948401946001909101908401611402565b508582101561143f5787850151600019600388901b60f8161c191681555b5050505050600190811b01905550565b606081526000611462606083018661117c565b6001600160a01b039490941660208301525060400152919050565b80820180821115610c9957610c9961127c56fea2646970667358221220b5865ee9fc15d02171b8286ff546037ca7e0417ecaab27c89da955b724cea4b064736f6c63430008130033a264697066735822122011d782d176bb450079d9519802d4aac736532a45b94c44ee30a8d67a0d6c8b1a64736f6c63430008130033",
  "immutableReferences": {},
  "source": "//SPDX-License-Identifier: GPL-3.0\r\n\r\npragma solidity ^0.8.0;\r\n\r\nimport \"./Crowdfunding.sol\";\r\n\r\ncontract CrowdfundingFactory is Ownable {\r\n    mapping(address => ProjectDetails) public projects;\r\n    mapping(address => bool) public allowedAddresses;\r\n    bool isFreeForAll;\r\n\r\n    struct ProjectDetails {\r\n        string description;\r\n        Crowdfunding project;\r\n    }\r\n\r\n    event NewProjectInitiated(\r\n        address _projectAddress,\r\n        string _description,\r\n        uint _goal,\r\n        uint _timeAhead,\r\n        address _tokenUsed\r\n    );\r\n    event ContributeEvent(\r\n        address _projectAddress,\r\n        address _sender,\r\n        address _tokenAddress,\r\n        uint _amount\r\n    );\r\n    event RefundFromProject(\r\n        address _projectAddress,\r\n        address _contributer,\r\n        address _RefundToken,\r\n        uint _RefundAmount\r\n    );\r\n    event CreateRequestEvent(\r\n        address _projectAddress,\r\n        string _description,\r\n        address _recipient,\r\n        uint _amount\r\n    );\r\n    event ReceiveContributionEvent(\r\n        address _projectAddress,\r\n        address _recipient,\r\n        uint _amount\r\n    );\r\n\r\n    constructor() {\r\n        isFreeForAll = true;\r\n    }\r\n\r\n    function createNewProject(\r\n        uint _goal,\r\n        uint _timeAhead,\r\n        address _acceptingThisToken,\r\n        string memory _description\r\n    ) public returns (address) {\r\n        if (!isFreeForAll) {\r\n            require(\r\n                allowedAddresses[msg.sender] == true,\r\n                \"Address is not allowed\"\r\n            );\r\n        }\r\n\r\n        Crowdfunding crowdfunding = new Crowdfunding(\r\n            address(this),\r\n            _goal,\r\n            _timeAhead,\r\n            _acceptingThisToken\r\n        );\r\n\r\n        require(address(crowdfunding) != address(0));\r\n        crowdfunding.transferOwnership(msg.sender);\r\n\r\n        ProjectDetails storage newProject = projects[address(crowdfunding)];\r\n\r\n        newProject.description = _description;\r\n        newProject.project = crowdfunding;\r\n\r\n        emit NewProjectInitiated(\r\n            address(crowdfunding),\r\n            _description,\r\n            _goal,\r\n            _timeAhead,\r\n            _acceptingThisToken\r\n        );\r\n        address addy = address(crowdfunding);\r\n        return addy;\r\n    }\r\n\r\n    function contributeToProject(address _projectAddress, uint _amount) public {\r\n        Crowdfunding project = Crowdfunding(_projectAddress);\r\n        address _contributer;\r\n        address _tokenAddress = project.tokenAddress();\r\n\r\n        (_contributer) = project.contribute(_amount, msg.sender);\r\n        emit ContributeEvent(\r\n            _projectAddress,\r\n            _contributer,\r\n            _tokenAddress,\r\n            _amount\r\n        );\r\n    }\r\n\r\n    function getBalanceOfProject(\r\n        address _projectAddress\r\n    ) public view returns (uint) {\r\n        Crowdfunding project = Crowdfunding(_projectAddress);\r\n        return project.getBalance();\r\n    }\r\n\r\n    function getRefundFromProject(\r\n        address _projectAddress\r\n    ) public returns (uint) {\r\n        Crowdfunding project = Crowdfunding(_projectAddress);\r\n        uint _RefundAmount = project.getRefund(msg.sender);\r\n        emit RefundFromProject(\r\n            _projectAddress,\r\n            msg.sender,\r\n            project.tokenAddress(),\r\n            _RefundAmount\r\n        );\r\n        return _RefundAmount;\r\n    }\r\n\r\n    function createRequestForProject(\r\n        address _projectAddress,\r\n        string memory _description,\r\n        address _recipient,\r\n        uint _amount\r\n    ) public {\r\n        Crowdfunding project = Crowdfunding(_projectAddress);\r\n        project.createRequest(_description, _recipient, _amount);\r\n\r\n        emit CreateRequestEvent(\r\n            _projectAddress,\r\n            _description,\r\n            _recipient,\r\n            _amount\r\n        );\r\n    }\r\n\r\n    function voteRequestForProject(\r\n        address _projectAddress,\r\n        uint _requestNo\r\n    ) public {\r\n        Crowdfunding project = Crowdfunding(_projectAddress);\r\n        project.voteRequest(_requestNo, msg.sender);\r\n    }\r\n\r\n    function receiveContributionFromProject(\r\n        address _projectAddress,\r\n        uint _requestNo\r\n    ) public {\r\n        Crowdfunding project = Crowdfunding(_projectAddress);\r\n        address _recipient;\r\n        uint _amount;\r\n        (_recipient, _amount) = project.receiveContribution(_requestNo);\r\n\r\n        emit ReceiveContributionEvent(_projectAddress, _recipient, _amount);\r\n    }\r\n\r\n    // function getContributerAmountOfProject(\r\n    //     address _projectAddress\r\n    // ) public view returns (uint) {\r\n    //     Crowdfunding project = Crowdfunding(_projectAddress);\r\n    //     return project.contributers(msg.sender);\r\n    // }\r\n\r\n    // function getDeadlineOfProject(\r\n    //     address _projectAddress\r\n    // ) public view returns (uint) {\r\n    //     Crowdfunding project = Crowdfunding(_projectAddress);\r\n    //     return project.deadline();\r\n    // }\r\n\r\n    function allowAddress(address _allowThisAddress) public onlyOwner {\r\n        require(allowedAddresses[_allowThisAddress] == false);\r\n        allowedAddresses[_allowThisAddress] = true;\r\n    }\r\n\r\n    function disallowAddress(address _disallowThisAddress) public onlyOwner {\r\n        require(allowedAddresses[_disallowThisAddress] == true);\r\n        allowedAddresses[_disallowThisAddress] = false;\r\n    }\r\n\r\n    function getRequestOfProject(\r\n        address _projectAddress,\r\n        uint _requestNo\r\n    ) public view returns (string memory, address, uint, bool, uint, uint) {\r\n        Crowdfunding project = Crowdfunding(_projectAddress);\r\n        return (\r\n            project.getRequestDescription(_requestNo),\r\n            project.getRequestRecipient(_requestNo),\r\n            project.getRequestAmount(_requestNo),\r\n            project.getRequestCompleted(_requestNo),\r\n            project.getRequestNumOfVoters(_requestNo),\r\n            project.getRequestValueOfVotes(_requestNo)\r\n        );\r\n    }\r\n\r\n    function getNumOfRequestOfProject(\r\n        address _projectAddress\r\n    ) public view returns (uint) {\r\n        Crowdfunding project = Crowdfunding(_projectAddress);\r\n        return project.numRequests();\r\n    }\r\n\r\n    function getDescriptionOfProject(\r\n        address _projectAddress\r\n    ) public view returns (string memory, address) {\r\n        string memory d = projects[_projectAddress].description;\r\n        Crowdfunding a = projects[_projectAddress].project;\r\n        return (d, address(a));\r\n    }\r\n\r\n    function toggleFreeForAll() public {\r\n        isFreeForAll = !isFreeForAll;\r\n    }\r\n}\r\n",
  "sourcePath": "C:\\Users\\kimwu\\Desktop\\TFIP-NUS\\proj\\truffle\\contracts\\CrowdfundingFactory.sol",
  "compiler": {
    "name": "solc",
    "version": "0.8.19+commit.7dd6d404.Emscripten.clang"
  },
  "schemaVersion": "3.4.13",
  "updatedAt": "2023-04-21T20:56:16.993Z",
  "devdoc": {
    "kind": "dev",
    "methods": {
      "owner()": {
        "details": "Returns the address of the current owner."
      },
      "renounceOwnership()": {
        "details": "Leaves the contract without owner. It will not be possible to call `onlyOwner` functions anymore. Can only be called by the current owner. NOTE: Renouncing ownership will leave the contract without an owner, thereby removing any functionality that is only available to the owner."
      },
      "transferOwnership(address)": {
        "details": "Transfers ownership of the contract to a new account (`newOwner`). Can only be called by the current owner."
      }
    },
    "version": 1
  },
  "userdoc": {
    "kind": "user",
    "methods": {},
    "version": 1
  }
}