{
  "contractName": "DevFaucet",
  "abi": [
    {
      "inputs": [
        {
          "internalType": "address",
          "name": "_tokenAddress",
          "type": "address"
        },
        {
          "internalType": "uint256",
          "name": "mintTimer",
          "type": "uint256"
        }
      ],
      "stateMutability": "nonpayable",
      "type": "constructor"
    },
    {
      "anonymous": false,
      "inputs": [
        {
          "indexed": true,
          "internalType": "address",
          "name": "previousOwner",
          "type": "address"
        },
        {
          "indexed": true,
          "internalType": "address",
          "name": "newOwner",
          "type": "address"
        }
      ],
      "name": "OwnershipTransferred",
      "type": "event"
    },
    {
      "anonymous": false,
      "inputs": [
        {
          "indexed": false,
          "internalType": "address",
          "name": "mintedToAddress",
          "type": "address"
        },
        {
          "indexed": false,
          "internalType": "uint256",
          "name": "amount",
          "type": "uint256"
        }
      ],
      "name": "SupplyChange",
      "type": "event"
    },
    {
      "inputs": [],
      "name": "balance",
      "outputs": [
        {
          "internalType": "uint256",
          "name": "",
          "type": "uint256"
        }
      ],
      "stateMutability": "view",
      "type": "function",
      "constant": true
    },
    {
      "inputs": [],
      "name": "mintable",
      "outputs": [
        {
          "internalType": "bool",
          "name": "",
          "type": "bool"
        }
      ],
      "stateMutability": "view",
      "type": "function",
      "constant": true
    },
    {
      "inputs": [],
      "name": "owner",
      "outputs": [
        {
          "internalType": "address",
          "name": "",
          "type": "address"
        }
      ],
      "stateMutability": "view",
      "type": "function",
      "constant": true
    },
    {
      "inputs": [],
      "name": "renounceOwnership",
      "outputs": [],
      "stateMutability": "nonpayable",
      "type": "function"
    },
    {
      "inputs": [
        {
          "internalType": "address",
          "name": "",
          "type": "address"
        }
      ],
      "name": "timestampOfLastMint",
      "outputs": [
        {
          "internalType": "uint256",
          "name": "",
          "type": "uint256"
        }
      ],
      "stateMutability": "view",
      "type": "function",
      "constant": true
    },
    {
      "inputs": [],
      "name": "token",
      "outputs": [
        {
          "internalType": "contract IERC20",
          "name": "",
          "type": "address"
        }
      ],
      "stateMutability": "view",
      "type": "function",
      "constant": true
    },
    {
      "inputs": [],
      "name": "tokenAddress",
      "outputs": [
        {
          "internalType": "address",
          "name": "",
          "type": "address"
        }
      ],
      "stateMutability": "view",
      "type": "function",
      "constant": true
    },
    {
      "inputs": [
        {
          "internalType": "address",
          "name": "newOwner",
          "type": "address"
        }
      ],
      "name": "transferOwnership",
      "outputs": [],
      "stateMutability": "nonpayable",
      "type": "function"
    },
    {
      "inputs": [],
      "name": "distribute",
      "outputs": [],
      "stateMutability": "nonpayable",
      "type": "function"
    },
    {
      "inputs": [],
      "name": "toggleFaucetMintable",
      "outputs": [],
      "stateMutability": "nonpayable",
      "type": "function"
    }
  ],
  "bytecode": "0x608060405234801561001057600080fd5b506040516108a53803806108a583398101604081905261002f916101a4565b61003833610138565b600380546001600160a01b0384166001600160a01b0319918216811790925560058054821683179055600680549091168217905560408051638da5cb5b60e01b81529051339291638da5cb5b9160048083019260209291908290030181865afa1580156100a9573d6000803e3d6000fd5b505050506040513d601f19601f820116820180604052508101906100cd91906101d0565b6001600160a01b03161461011c5760405162461bcd60e51b81526020600482015260126024820152713737ba1037bbb732b91037b3103a37b5b2b760711b604482015260640160405180910390fd5b600455506000805460ff60a01b1916600160a01b1790556101f2565b600080546001600160a01b038381166001600160a01b0319831681178455604051919092169283917f8be0079c531659141344cd1fd0a4f28419497f9722a3daafe3b4186f6b6457e09190a35050565b80516001600160a01b038116811461019f57600080fd5b919050565b600080604083850312156101b757600080fd5b6101c083610188565b9150602083015190509250929050565b6000602082840312156101e257600080fd5b6101eb82610188565b9392505050565b6106a4806102016000396000f3fe608060405234801561001057600080fd5b506004361061009e5760003560e01c8063a933831f11610066578063a933831f1461013c578063b69ef8a814610144578063e4fc6b6d1461014d578063f2fde38b14610155578063fc0c546a1461016857600080fd5b80634bf365df146100a3578063582fa4b5146100cc578063715018a6146100fa5780638da5cb5b146101045780639d76ea5814610129575b600080fd5b6000546100b790600160a01b900460ff1681565b60405190151581526020015b60405180910390f35b6100ec6100da3660046105c1565b60016020526000908152604090205481565b6040519081526020016100c3565b61010261017b565b005b6000546001600160a01b03165b6040516001600160a01b0390911681526020016100c3565b600354610111906001600160a01b031681565b61010261018f565b6100ec60025481565b6101026101b8565b6101026101633660046105c1565b61049e565b600554610111906001600160a01b031681565b610183610517565b61018d6000610571565b565b610197610517565b6000805460ff60a01b198116600160a01b9182900460ff1615909102179055565b600054600160a01b900460ff16151560011461021b5760405162461bcd60e51b815260206004820152601860248201527f756e61626c6520746f206d696e74207269676874206e6f77000000000000000060448201526064015b60405180910390fd5b6005546040516370a0823160e01b81523060048201526001600160a01b03909116906370a0823190602401602060405180830381865afa158015610263573d6000803e3d6000fd5b505050506040513d601f19601f8201168201806040525081019061028791906105f1565b600255600454336000908152600160205260409020546102a79190610620565b4210156103025760405162461bcd60e51b815260206004820152602360248201527f43616e6e6f74206d696e74207965742c207374696c6c206f6e20636f6f6c646f6044820152623bb71760e91b6064820152608401610212565b336103445760405162461bcd60e51b8152602060048201526012602482015271061646472657373206e6f74206265203078360741b6044820152606401610212565b60055460405163095ea7b360e01b8152336004820152683635c9adc5dea0000060248201819052916001600160a01b03169063095ea7b3906044016020604051808303816000875af115801561039e573d6000803e3d6000fd5b505050506040513d601f19601f820116820180604052508101906103c29190610639565b5060055460405163a9059cbb60e01b8152336004820152602481018390526001600160a01b039091169063a9059cbb906044016020604051808303816000875af1158015610414573d6000803e3d6000fd5b505050506040513d601f19601f820116820180604052508101906104389190610639565b50806002600082825461044b919061065b565b909155505033600081815260016020908152604091829020429055815192835282018390527f50febc49bead4837d411278852c281f9e521d4aee3ef162aabf9f4527bd7941d910160405180910390a150565b6104a6610517565b6001600160a01b03811661050b5760405162461bcd60e51b815260206004820152602660248201527f4f776e61626c653a206e6577206f776e657220697320746865207a65726f206160448201526564647265737360d01b6064820152608401610212565b61051481610571565b50565b6000546001600160a01b0316331461018d5760405162461bcd60e51b815260206004820181905260248201527f4f776e61626c653a2063616c6c6572206973206e6f7420746865206f776e65726044820152606401610212565b600080546001600160a01b038381166001600160a01b0319831681178455604051919092169283917f8be0079c531659141344cd1fd0a4f28419497f9722a3daafe3b4186f6b6457e09190a35050565b6000602082840312156105d357600080fd5b81356001600160a01b03811681146105ea57600080fd5b9392505050565b60006020828403121561060357600080fd5b5051919050565b634e487b7160e01b600052601160045260246000fd5b808201808211156106335761063361060a565b92915050565b60006020828403121561064b57600080fd5b815180151581146105ea57600080fd5b818103818111156106335761063361060a56fea26469706673582212202976c55044f3227198a343a48afb0072b35864e8fe1b2db7d38715532d0bb1ae64736f6c63430008130033",
  "immutableReferences": {},
  "source": "//SPDX-License-Identifier: GPL-3.0\r\n\r\npragma solidity ^0.8.0;\r\n\r\nimport \"@openzeppelin/contracts/token/ERC20/IERC20.sol\";\r\nimport \"@openzeppelin/contracts/access/Ownable.sol\";\r\n\r\ncontract DevFaucet is Ownable {\r\n    bool public mintable;\r\n    mapping(address => uint) public timestampOfLastMint;\r\n    uint public balance;\r\n    address public tokenAddress;\r\n    uint timer;\r\n\r\n    IERC20 public token;\r\n    Ownable ownableToken;\r\n\r\n    event SupplyChange(address mintedToAddress, uint amount);\r\n\r\n    constructor(address _tokenAddress, uint mintTimer) {\r\n        // only owner of token can deploy this faucet\r\n        tokenAddress = _tokenAddress;\r\n        token = IERC20(_tokenAddress);\r\n        ownableToken = Ownable(address(token));\r\n        require(ownableToken.owner() == msg.sender, \"not owner of token\");\r\n\r\n        timer = mintTimer;\r\n        mintable = true;\r\n    }\r\n\r\n    function distribute() public {\r\n        require(mintable == true, \"unable to mint right now\");\r\n        balance = token.balanceOf(address(this));\r\n        require(\r\n            block.timestamp >= timestampOfLastMint[msg.sender] + timer,\r\n            \"Cannot mint yet, still on cooldown.\"\r\n        );\r\n        require(msg.sender != address(0), \"address not be 0x0\");\r\n        uint amount = 1000 * 10 ** 18;\r\n        token.approve(msg.sender, amount);\r\n        token.transfer(msg.sender, amount);\r\n        balance -= amount;\r\n        timestampOfLastMint[msg.sender] = block.timestamp;\r\n\r\n        emit SupplyChange(msg.sender, amount);\r\n    }\r\n\r\n    function toggleFaucetMintable() public onlyOwner {\r\n        mintable = !mintable;\r\n    }\r\n}\r\n",
  "sourcePath": "C:\\Users\\kimwu\\Desktop\\TFIP-NUS\\proj\\truffle\\contracts\\DevFaucet.sol",
  "compiler": {
    "name": "solc",
    "version": "0.8.19+commit.7dd6d404.Emscripten.clang"
  },
  "schemaVersion": "3.4.13",
  "updatedAt": "2023-05-25T09:31:26.980Z",
  "networkType": "ethereum",
  "devdoc": {
    "kind": "dev",
    "methods": {
      "owner()": {
        "details": "Returns the address of the current owner."
      },
      "renounceOwnership()": {
        "details": "Leaves the contract without owner. It will not be possible to call `onlyOwner` functions. Can only be called by the current owner. NOTE: Renouncing ownership will leave the contract without an owner, thereby disabling any functionality that is only available to the owner."
      },
      "transferOwnership(address)": {
        "details": "Transfers ownership of the contract to a new account (`newOwner`). Can only be called by the current owner."
      }
    },
    "version": 1
  },
  "userdoc": {
    "kind": "user",
    "methods": {},
    "version": 1
  }
}