{
  "contractName": "twlvFaucet",
  "abi": [
    {
      "inputs": [
        {
          "internalType": "address",
          "name": "_tokenAddress",
          "type": "address"
        },
        {
          "internalType": "uint256",
          "name": "mintTimer",
          "type": "uint256"
        }
      ],
      "stateMutability": "nonpayable",
      "type": "constructor"
    },
    {
      "anonymous": false,
      "inputs": [
        {
          "indexed": true,
          "internalType": "address",
          "name": "previousOwner",
          "type": "address"
        },
        {
          "indexed": true,
          "internalType": "address",
          "name": "newOwner",
          "type": "address"
        }
      ],
      "name": "OwnershipTransferred",
      "type": "event"
    },
    {
      "anonymous": false,
      "inputs": [
        {
          "indexed": false,
          "internalType": "address",
          "name": "mintedToAddress",
          "type": "address"
        },
        {
          "indexed": false,
          "internalType": "uint256",
          "name": "amount",
          "type": "uint256"
        }
      ],
      "name": "SupplyChange",
      "type": "event"
    },
    {
      "inputs": [],
      "name": "balance",
      "outputs": [
        {
          "internalType": "uint256",
          "name": "",
          "type": "uint256"
        }
      ],
      "stateMutability": "view",
      "type": "function"
    },
    {
      "inputs": [],
      "name": "mintable",
      "outputs": [
        {
          "internalType": "bool",
          "name": "",
          "type": "bool"
        }
      ],
      "stateMutability": "view",
      "type": "function"
    },
    {
      "inputs": [],
      "name": "owner",
      "outputs": [
        {
          "internalType": "address",
          "name": "",
          "type": "address"
        }
      ],
      "stateMutability": "view",
      "type": "function"
    },
    {
      "inputs": [],
      "name": "renounceOwnership",
      "outputs": [],
      "stateMutability": "nonpayable",
      "type": "function"
    },
    {
      "inputs": [
        {
          "internalType": "address",
          "name": "",
          "type": "address"
        }
      ],
      "name": "timestampOfLastMint",
      "outputs": [
        {
          "internalType": "uint256",
          "name": "",
          "type": "uint256"
        }
      ],
      "stateMutability": "view",
      "type": "function"
    },
    {
      "inputs": [],
      "name": "tokenAddress",
      "outputs": [
        {
          "internalType": "address",
          "name": "",
          "type": "address"
        }
      ],
      "stateMutability": "view",
      "type": "function"
    },
    {
      "inputs": [
        {
          "internalType": "address",
          "name": "newOwner",
          "type": "address"
        }
      ],
      "name": "transferOwnership",
      "outputs": [],
      "stateMutability": "nonpayable",
      "type": "function"
    },
    {
      "inputs": [],
      "name": "twlv",
      "outputs": [
        {
          "internalType": "contract IERC20",
          "name": "",
          "type": "address"
        }
      ],
      "stateMutability": "view",
      "type": "function"
    },
    {
      "inputs": [],
      "name": "twlvOwner",
      "outputs": [
        {
          "internalType": "address",
          "name": "",
          "type": "address"
        }
      ],
      "stateMutability": "view",
      "type": "function"
    },
    {
      "inputs": [],
      "name": "distribute",
      "outputs": [],
      "stateMutability": "nonpayable",
      "type": "function"
    },
    {
      "inputs": [],
      "name": "toggleFaucet",
      "outputs": [],
      "stateMutability": "nonpayable",
      "type": "function"
    }
  ],
  "bytecode": "0x608060405234801561001057600080fd5b506040516108c73803806108c783398101604081905261002f916101a6565b6100383361013a565b60058190556000805460ff60a01b1916600160a01b179055600380546001600160a01b0384166001600160a01b0319918216811790925560068054821683179055600780549091168217905560408051638da5cb5b60e01b81529051339291638da5cb5b9160048083019260209291908290030181865afa1580156100c1573d6000803e3d6000fd5b505050506040513d601f19601f820116820180604052508101906100e591906101d2565b6001600160a01b0316146101335760405162461bcd60e51b81526020600482015260116024820152703737ba1037bbb732b91037b3103a3bb63b60791b604482015260640160405180910390fd5b50506101f4565b600080546001600160a01b038381166001600160a01b0319831681178455604051919092169283917f8be0079c531659141344cd1fd0a4f28419497f9722a3daafe3b4186f6b6457e09190a35050565b80516001600160a01b03811681146101a157600080fd5b919050565b600080604083850312156101b957600080fd5b6101c28361018a565b9150602083015190509250929050565b6000602082840312156101e457600080fd5b6101ed8261018a565b9392505050565b6106c4806102036000396000f3fe608060405234801561001057600080fd5b50600436106100a95760003560e01c80638da5cb5b116100715780638da5cb5b146101425780639d635037146101535780639d76ea5814610166578063b69ef8a814610179578063e4fc6b6d14610182578063f2fde38b1461018a57600080fd5b8063295711f9146100ae5780632fc7eb00146100b85780634bf365df146100e8578063582fa4b51461010c578063715018a61461013a575b600080fd5b6100b661019d565b005b6006546100cb906001600160a01b031681565b6040516001600160a01b0390911681526020015b60405180910390f35b6000546100fc90600160a01b900460ff1681565b60405190151581526020016100df565b61012c61011a3660046105e1565b60016020526000908152604090205481565b6040519081526020016100df565b6100b66101c6565b6000546001600160a01b03166100cb565b6004546100cb906001600160a01b031681565b6003546100cb906001600160a01b031681565b61012c60025481565b6100b66101da565b6100b66101983660046105e1565b6104be565b6101a5610537565b6000805460ff60a01b198116600160a01b9182900460ff1615909102179055565b6101ce610537565b6101d86000610591565b565b600054600160a01b900460ff16151560011461023d5760405162461bcd60e51b815260206004820152601860248201527f756e61626c6520746f206d696e74207269676874206e6f77000000000000000060448201526064015b60405180910390fd5b6006546040516370a0823160e01b81523060048201526001600160a01b03909116906370a0823190602401602060405180830381865afa158015610285573d6000803e3d6000fd5b505050506040513d601f19601f820116820180604052508101906102a99190610611565b600255600554336000908152600160205260409020546102c99190610640565b4210156103295760405162461bcd60e51b815260206004820152602860248201527f796f7572206c617374206d696e74206973206c657373207468616e2031303030604482015267207365636f6e647360c01b6064820152608401610234565b3361036b5760405162461bcd60e51b8152602060048201526012602482015271061646472657373206e6f74206265203078360741b6044820152606401610234565b60065460405163095ea7b360e01b81523360048201526103e860248201819052916001600160a01b03169063095ea7b3906044016020604051808303816000875af11580156103be573d6000803e3d6000fd5b505050506040513d601f19601f820116820180604052508101906103e29190610659565b5060065460405163a9059cbb60e01b8152336004820152602481018390526001600160a01b039091169063a9059cbb906044016020604051808303816000875af1158015610434573d6000803e3d6000fd5b505050506040513d601f19601f820116820180604052508101906104589190610659565b50806002600082825461046b919061067b565b909155505033600081815260016020908152604091829020429055815192835282018390527f50febc49bead4837d411278852c281f9e521d4aee3ef162aabf9f4527bd7941d910160405180910390a150565b6104c6610537565b6001600160a01b03811661052b5760405162461bcd60e51b815260206004820152602660248201527f4f776e61626c653a206e6577206f776e657220697320746865207a65726f206160448201526564647265737360d01b6064820152608401610234565b61053481610591565b50565b6000546001600160a01b031633146101d85760405162461bcd60e51b815260206004820181905260248201527f4f776e61626c653a2063616c6c6572206973206e6f7420746865206f776e65726044820152606401610234565b600080546001600160a01b038381166001600160a01b0319831681178455604051919092169283917f8be0079c531659141344cd1fd0a4f28419497f9722a3daafe3b4186f6b6457e09190a35050565b6000602082840312156105f357600080fd5b81356001600160a01b038116811461060a57600080fd5b9392505050565b60006020828403121561062357600080fd5b5051919050565b634e487b7160e01b600052601160045260246000fd5b808201808211156106535761065361062a565b92915050565b60006020828403121561066b57600080fd5b8151801515811461060a57600080fd5b818103818111156106535761065361062a56fea264697066735822122098370154e447c121b543b3f4ba44ff68c3d1df94367cb40463177e56d89d3d8764736f6c63430008130033",
  "immutableReferences": {},
  "source": "//SPDX-License-Identifier: GPL-3.0\r\n\r\npragma solidity ^0.8.0;\r\n\r\n// import \"@openzeppelin/contracts/access/AccessControl.sol\";\r\n// import \"./TWLV.sol\";\r\nimport \"@openzeppelin/contracts/token/ERC20/IERC20.sol\";\r\nimport \"@openzeppelin/contracts/access/Ownable.sol\";\r\n\r\ncontract twlvFaucet is Ownable {\r\n    bool public mintable;\r\n    mapping(address => uint) public timestampOfLastMint;\r\n    uint public balance;\r\n    address public tokenAddress;\r\n    address public twlvOwner;\r\n    uint timer;\r\n\r\n    IERC20 public twlv;\r\n    Ownable ownableToken;\r\n\r\n    event SupplyChange(address mintedToAddress, uint amount);\r\n\r\n    constructor(address _tokenAddress, uint mintTimer) {\r\n        timer = mintTimer;\r\n        mintable = true;\r\n        tokenAddress = _tokenAddress;\r\n        twlv = IERC20(_tokenAddress);\r\n        ownableToken = Ownable(address(twlv));\r\n\r\n        // only owner of twlv can deploy this faucet\r\n        require(ownableToken.owner() == msg.sender, \"not owner of twlv\");\r\n    }\r\n\r\n    function distribute() public {\r\n        require(mintable == true, \"unable to mint right now\");\r\n        balance = twlv.balanceOf(address(this));\r\n        // require(block.timestamp >= blockSinceLastMint[to] + 90000, Your last mint is less than 25 hours);\r\n        require(\r\n            block.timestamp >= timestampOfLastMint[msg.sender] + timer,\r\n            \"your last mint is less than 1000 seconds\"\r\n        );\r\n        require(msg.sender != address(0), \"address not be 0x0\");\r\n        uint amount = 1000;\r\n        twlv.approve(msg.sender, amount);\r\n        twlv.transfer(msg.sender, amount);\r\n        balance -= amount;\r\n        timestampOfLastMint[msg.sender] = block.timestamp;\r\n\r\n        emit SupplyChange(msg.sender, amount);\r\n    }\r\n\r\n    function toggleFaucet() public onlyOwner {\r\n        mintable = !mintable;\r\n    }\r\n}\r\n",
  "sourcePath": "C:\\Users\\kimwu\\Desktop\\TFIP-NUS\\proj\\truffle\\contracts\\TwlvFaucet.sol",
  "compiler": {
    "name": "solc",
    "version": "0.8.19+commit.7dd6d404.Emscripten.clang"
  },
  "schemaVersion": "3.4.13",
  "updatedAt": "2023-04-21T20:56:17.009Z",
  "devdoc": {
    "kind": "dev",
    "methods": {
      "owner()": {
        "details": "Returns the address of the current owner."
      },
      "renounceOwnership()": {
        "details": "Leaves the contract without owner. It will not be possible to call `onlyOwner` functions anymore. Can only be called by the current owner. NOTE: Renouncing ownership will leave the contract without an owner, thereby removing any functionality that is only available to the owner."
      },
      "transferOwnership(address)": {
        "details": "Transfers ownership of the contract to a new account (`newOwner`). Can only be called by the current owner."
      }
    },
    "version": 1
  },
  "userdoc": {
    "kind": "user",
    "methods": {},
    "version": 1
  }
}