{
  "contractName": "twlvFaucet",
  "abi": [
    {
      "inputs": [
        {
          "internalType": "address",
          "name": "_tokenAddress",
          "type": "address"
        },
        {
          "internalType": "uint256",
          "name": "mintTimer",
          "type": "uint256"
        }
      ],
      "stateMutability": "nonpayable",
      "type": "constructor"
    },
    {
      "anonymous": false,
      "inputs": [
        {
          "indexed": true,
          "internalType": "address",
          "name": "previousOwner",
          "type": "address"
        },
        {
          "indexed": true,
          "internalType": "address",
          "name": "newOwner",
          "type": "address"
        }
      ],
      "name": "OwnershipTransferred",
      "type": "event"
    },
    {
      "anonymous": false,
      "inputs": [
        {
          "indexed": false,
          "internalType": "address",
          "name": "mintedToAddress",
          "type": "address"
        },
        {
          "indexed": false,
          "internalType": "uint256",
          "name": "amount",
          "type": "uint256"
        }
      ],
      "name": "SupplyChange",
      "type": "event"
    },
    {
      "inputs": [],
      "name": "balance",
      "outputs": [
        {
          "internalType": "uint256",
          "name": "",
          "type": "uint256"
        }
      ],
      "stateMutability": "view",
      "type": "function",
      "constant": true
    },
    {
      "inputs": [],
      "name": "mintable",
      "outputs": [
        {
          "internalType": "bool",
          "name": "",
          "type": "bool"
        }
      ],
      "stateMutability": "view",
      "type": "function",
      "constant": true
    },
    {
      "inputs": [],
      "name": "owner",
      "outputs": [
        {
          "internalType": "address",
          "name": "",
          "type": "address"
        }
      ],
      "stateMutability": "view",
      "type": "function",
      "constant": true
    },
    {
      "inputs": [],
      "name": "renounceOwnership",
      "outputs": [],
      "stateMutability": "nonpayable",
      "type": "function"
    },
    {
      "inputs": [
        {
          "internalType": "address",
          "name": "",
          "type": "address"
        }
      ],
      "name": "timestampOfLastMint",
      "outputs": [
        {
          "internalType": "uint256",
          "name": "",
          "type": "uint256"
        }
      ],
      "stateMutability": "view",
      "type": "function",
      "constant": true
    },
    {
      "inputs": [],
      "name": "token",
      "outputs": [
        {
          "internalType": "contract IERC20",
          "name": "",
          "type": "address"
        }
      ],
      "stateMutability": "view",
      "type": "function",
      "constant": true
    },
    {
      "inputs": [],
      "name": "tokenAddress",
      "outputs": [
        {
          "internalType": "address",
          "name": "",
          "type": "address"
        }
      ],
      "stateMutability": "view",
      "type": "function",
      "constant": true
    },
    {
      "inputs": [
        {
          "internalType": "address",
          "name": "newOwner",
          "type": "address"
        }
      ],
      "name": "transferOwnership",
      "outputs": [],
      "stateMutability": "nonpayable",
      "type": "function"
    },
    {
      "inputs": [],
      "name": "distribute",
      "outputs": [],
      "stateMutability": "nonpayable",
      "type": "function"
    },
    {
      "inputs": [],
      "name": "toggleFaucet",
      "outputs": [],
      "stateMutability": "nonpayable",
      "type": "function"
    }
  ],
  "bytecode": "0x608060405234801561001057600080fd5b5060405161089d38038061089d83398101604081905261002f916101a3565b61003833610137565b600380546001600160a01b0384166001600160a01b0319918216811790925560058054821683179055600680549091168217905560408051638da5cb5b60e01b81529051339291638da5cb5b9160048083019260209291908290030181865afa1580156100a9573d6000803e3d6000fd5b505050506040513d601f19601f820116820180604052508101906100cd91906101cf565b6001600160a01b03161461011b5760405162461bcd60e51b81526020600482015260116024820152703737ba1037bbb732b91037b3103a3bb63b60791b604482015260640160405180910390fd5b600455506000805460ff60a01b1916600160a01b1790556101f1565b600080546001600160a01b038381166001600160a01b0319831681178455604051919092169283917f8be0079c531659141344cd1fd0a4f28419497f9722a3daafe3b4186f6b6457e09190a35050565b80516001600160a01b038116811461019e57600080fd5b919050565b600080604083850312156101b657600080fd5b6101bf83610187565b9150602083015190509250929050565b6000602082840312156101e157600080fd5b6101ea82610187565b9392505050565b61069d806102006000396000f3fe608060405234801561001057600080fd5b506004361061009e5760003560e01c80639d76ea58116100665780639d76ea5814610131578063b69ef8a814610144578063e4fc6b6d1461014d578063f2fde38b14610155578063fc0c546a1461016857600080fd5b8063295711f9146100a35780634bf365df146100ad578063582fa4b5146100d6578063715018a6146101045780638da5cb5b1461010c575b600080fd5b6100ab61017b565b005b6000546100c190600160a01b900460ff1681565b60405190151581526020015b60405180910390f35b6100f66100e43660046105ba565b60016020526000908152604090205481565b6040519081526020016100cd565b6100ab6101a4565b6000546001600160a01b03165b6040516001600160a01b0390911681526020016100cd565b600354610119906001600160a01b031681565b6100f660025481565b6100ab6101b8565b6100ab6101633660046105ba565b610497565b600554610119906001600160a01b031681565b610183610510565b6000805460ff60a01b198116600160a01b9182900460ff1615909102179055565b6101ac610510565b6101b6600061056a565b565b600054600160a01b900460ff16151560011461021b5760405162461bcd60e51b815260206004820152601860248201527f756e61626c6520746f206d696e74207269676874206e6f77000000000000000060448201526064015b60405180910390fd5b6005546040516370a0823160e01b81523060048201526001600160a01b03909116906370a0823190602401602060405180830381865afa158015610263573d6000803e3d6000fd5b505050506040513d601f19601f8201168201806040525081019061028791906105ea565b600255600454336000908152600160205260409020546102a79190610619565b4210156103025760405162461bcd60e51b815260206004820152602360248201527f43616e6e6f74206d696e74207965742c207374696c6c206f6e20636f6f6c646f6044820152623bb71760e91b6064820152608401610212565b336103445760405162461bcd60e51b8152602060048201526012602482015271061646472657373206e6f74206265203078360741b6044820152606401610212565b60055460405163095ea7b360e01b81523360048201526103e860248201819052916001600160a01b03169063095ea7b3906044016020604051808303816000875af1158015610397573d6000803e3d6000fd5b505050506040513d601f19601f820116820180604052508101906103bb9190610632565b5060055460405163a9059cbb60e01b8152336004820152602481018390526001600160a01b039091169063a9059cbb906044016020604051808303816000875af115801561040d573d6000803e3d6000fd5b505050506040513d601f19601f820116820180604052508101906104319190610632565b5080600260008282546104449190610654565b909155505033600081815260016020908152604091829020429055815192835282018390527f50febc49bead4837d411278852c281f9e521d4aee3ef162aabf9f4527bd7941d910160405180910390a150565b61049f610510565b6001600160a01b0381166105045760405162461bcd60e51b815260206004820152602660248201527f4f776e61626c653a206e6577206f776e657220697320746865207a65726f206160448201526564647265737360d01b6064820152608401610212565b61050d8161056a565b50565b6000546001600160a01b031633146101b65760405162461bcd60e51b815260206004820181905260248201527f4f776e61626c653a2063616c6c6572206973206e6f7420746865206f776e65726044820152606401610212565b600080546001600160a01b038381166001600160a01b0319831681178455604051919092169283917f8be0079c531659141344cd1fd0a4f28419497f9722a3daafe3b4186f6b6457e09190a35050565b6000602082840312156105cc57600080fd5b81356001600160a01b03811681146105e357600080fd5b9392505050565b6000602082840312156105fc57600080fd5b5051919050565b634e487b7160e01b600052601160045260246000fd5b8082018082111561062c5761062c610603565b92915050565b60006020828403121561064457600080fd5b815180151581146105e357600080fd5b8181038181111561062c5761062c61060356fea2646970667358221220d4b53236d4d01f8a59db43605a923fd4cfe40ee3d287e5e0c1334cb5c3f594ed64736f6c63430008130033",
  "immutableReferences": {},
  "source": "//SPDX-License-Identifier: GPL-3.0\r\n\r\npragma solidity ^0.8.0;\r\n\r\nimport \"@openzeppelin/contracts/token/ERC20/IERC20.sol\";\r\nimport \"@openzeppelin/contracts/access/Ownable.sol\";\r\n\r\ncontract twlvFaucet is Ownable {\r\n    bool public mintable;\r\n    mapping(address => uint) public timestampOfLastMint;\r\n    uint public balance;\r\n    address public tokenAddress;\r\n    uint timer;\r\n\r\n    IERC20 public token;\r\n    Ownable ownableToken;\r\n\r\n    event SupplyChange(address mintedToAddress, uint amount);\r\n\r\n    constructor(address _tokenAddress, uint mintTimer) {\r\n        // only owner of twlv can deploy this faucet\r\n        tokenAddress = _tokenAddress;\r\n        token = IERC20(_tokenAddress);\r\n        ownableToken = Ownable(address(token));\r\n        require(ownableToken.owner() == msg.sender, \"not owner of twlv\");\r\n\r\n        timer = mintTimer;\r\n        mintable = true;\r\n    }\r\n\r\n    function distribute() public {\r\n        require(mintable == true, \"unable to mint right now\");\r\n        balance = token.balanceOf(address(this));\r\n        require(\r\n            block.timestamp >= timestampOfLastMint[msg.sender] + timer,\r\n            \"Cannot mint yet, still on cooldown.\"\r\n        );\r\n        require(msg.sender != address(0), \"address not be 0x0\");\r\n        uint amount = 1000;\r\n        token.approve(msg.sender, amount);\r\n        token.transfer(msg.sender, amount);\r\n        balance -= amount;\r\n        timestampOfLastMint[msg.sender] = block.timestamp;\r\n\r\n        emit SupplyChange(msg.sender, amount);\r\n    }\r\n\r\n    function toggleFaucet() public onlyOwner {\r\n        mintable = !mintable;\r\n    }\r\n}\r\n",
  "sourcePath": "C:\\Users\\kimwu\\Desktop\\TFIP-NUS\\proj\\truffle\\contracts\\TwlvFaucet.sol",
  "compiler": {
    "name": "solc",
    "version": "0.8.19+commit.7dd6d404.Emscripten.clang"
  },
  "schemaVersion": "3.4.13",
  "updatedAt": "2023-04-26T15:25:51.710Z",
  "networkType": "ethereum",
  "devdoc": {
    "kind": "dev",
    "methods": {
      "owner()": {
        "details": "Returns the address of the current owner."
      },
      "renounceOwnership()": {
        "details": "Leaves the contract without owner. It will not be possible to call `onlyOwner` functions anymore. Can only be called by the current owner. NOTE: Renouncing ownership will leave the contract without an owner, thereby removing any functionality that is only available to the owner."
      },
      "transferOwnership(address)": {
        "details": "Transfers ownership of the contract to a new account (`newOwner`). Can only be called by the current owner."
      }
    },
    "version": 1
  },
  "userdoc": {
    "kind": "user",
    "methods": {},
    "version": 1
  }
}